:020000040000FA
:10000000F8100002C5030000CD030000CF0300007C
:10001000D1030000D3030000D5030000000000005E
:10002000000000000000000000000000D7030000F6
:10003000D903000000000000DB030000DD03000026
:1000400009060000DF030000F1080000DF030000E4
:10005000DF0300000000000065050000DF03000072
:10006000DF030000DF030000DF030000DF03000008
:10007000DF030000DF030000DF030000DF030000F8
:10008000DF03000059060000DF030000000000004D
:10009000DF030000DF03000069060000DF0300004B
:1000A000DF030000DF03000000000000000000008C
:1000B0000000000000000000000000000000000040
:1000C0000000000000000000000000000000000030
:1000D0000000000000000000000000000000000020
:1000E0000000000000000000000000000000000010
:1000F0000000000000000000000000000000000000
:1001000000000000000000000000000000000000EF
:1001100000000000000000000000000000000000DF
:1001200000000000000000000000000000000000CF
:1001300000000000000000000000000000000000BF
:1001400000000000000000000000000000000000AF
:10015000000000000000000000000000000000009F
:10016000000000000000000000000000000000008F
:10017000000000000000000000000000000000007F
:10018000000000000000000000000000000000006F
:10019000000000000000000000000000000000005F
:1001A000000000000000000000000000000000004F
:1001B000000000000000000000000000000000003F
:1001C000000000000000000000000000000000002F
:1001D000000000000000000000000000000000001F
:1001E000000000000000000000000000000000000F
:1001F00000000000000000000000000000000000FF
:10020000DFF810D000F070F900480047C11C000072
:10021000AFF30080F810000230B450E8012F93B221
:10022000C48923448489A34228BF1B1B0489A34299
:1002300002BFBFF32F8F002007E0C3EA020340E8AC
:100240000134002CE9D14FF001000A6030BC704746
:1002500050E8012FC2EA024240E801210029F7D10B
:10026000704730B450E8022F1FFAA2F3C488A342AB
:1002700002BFBFF32F8F00200DE0C489234484897F
:10028000A34228BF1B1BC2EA034340E80234002CF0
:10029000E8D14FF001000A6030BC704750E8022FEF
:1002A000C2EA224240E802210029F7D17047034602
:1002B00053E8022FD988B2EB324F4FF0000017BF3E
:1002C00092B241EA014142EA014104E05A68B2EBCC
:1002D000324F08BF012043E80212002AE8D17047DC
:1002E00030B4044654E8000F0D4644E80053002B98
:1002F000F8D1156030BC704730B4044654E8000FA4
:1003000040EA010544E80053002BF7D1156030BCEA
:10031000704730B4044654E8000F00EA010544E891
:100320000053002BF7D1156030BC704730B4044641
:1003300054E8000F80EA010544E80053002BF7D190
:10034000156030BC704730B4044654E8000F00EB31
:10035000010544E80053002BF7D1156030BC70470D
:1003600030B4044654E8000FA0EB010544E8005304
:10037000002BF7D1156030BC704770B404464FF0C5
:10038000000054E8006F0D68AE4207BF44E8002348
:10039000012044E800630E60002B1CBF0020F0E742
:1003A00070BC704730B4044654E8000F88422CBF3C
:1003B000451A054644E80053002BF5D1156030BCC2
:1003C000704700000648804706480047FEE7FEE702
:1003D000FEE7FEE7FEE7FEE7FEE7FEE7FEE7FEE7F5
:1003E0006D060000010200002DE9F05F05460020C7
:1003F00092469B4688460646814640241BE0284696
:1004000041464746224600F05EF853465A46C01A17
:10041000914110D311461846224600F016F82D1AC5
:1004200067EB01084F4622460120002100F00DF83D
:1004300017EB00094E41201EA4F10104DFDC484601
:1004400031462A464346BDE8F09F202A04DB203A85
:1004500000FA02F1002070479140C2F1200320FA17
:1004600003F319439040704700487047D849000093
:1004700040EA01039B0703D009E008C9121F08C026
:10048000042AFAD203E011F8013B00F8013B521EA6
:10049000F9D27047D2B201E000F8012B491EFBD21D
:1004A00070470022F6E710B513460A46044619467F
:1004B000FFF7F0FF204610BD421C10F8011B002979
:1004C000FBD1801A7047202A04DB203A21FA02F07F
:1004D0000021704721FA02F3D040C2F1200291407E
:1004E0000843194670470000064C074D06E0E068D7
:1004F00040F0010394E8070098471034AC42F6D36B
:10050000FFF782FE4C5000006C50000070B58C1854
:1005100010F8015B15F0070301D110F8013B2A1117
:1005200006D110F8012B03E010F8016B01F8016B04
:100530005B1EF9D12B0705D40023521E0DD401F800
:10054000013BFAE710F8013BCB1A921C03E013F8C9
:10055000015B01F8015B521EF9D5A142D8D30020FE
:1005600070BD00002DE9F8430025DFF894804FF4BA
:10057000807601242F460095304602F04DF838B1C0
:10058000D8F80403204203D0304602F03BF825435C
:10059000361D64007F1CB6B2082FEDD34FF4BE7435
:1005A000204602F039F848B1204602F02BF845F019
:1005B00000456A460121002001F0F4FF15F0FF0F0D
:1005C00016D0012600242E420ED008EB8401D1F86B
:1005D0001005D1F81015C0F304200A4AC1F30141F7
:1005E00052F8242002B190477600641C082CEAD30C
:1005F000002D02DA684603F00FFABDE8F883000028
:10060000006000400402000270B54FF4807630466E
:1006100001F0B3FD0F4DB40540B1304601F0B4FD1B
:100620000120C4F808032968002088474FF4827627
:10063000304601F0A2FD00280AD0304601F0A4FDAA
:100640000220C4F808032968BDE87040012008476B
:1006500070BD0000AC00000202490248091F096891
:10066000006808472001000202F000BD2DE9F041BA
:100670008F4E4FF080548D4DD4F8301130782B6868
:100680004F1CC0F3031200D1D9B200274FF001086C
:10069000062905D1B4F824038649C0F30420086074
:1006A000D8B2062804D1032A02D184498248486777
:1006B00001F062FC28B1D4F844028149C0F3423011
:1006C0000860297830780629C0F3031006D1032882
:1006D00004D17C48016821F08071016001F060FC68
:1006E00040B14FF08040C0F80C71C0F810717448F0
:1006F000001F076029683078CAB2C0F30310062AC9
:1007000005D1032803D16E4B032264331A60C9B2AA
:1007100006290ED103280CD16B4A052111606A49C4
:100720007831C1F80080684808300760111D3F200B
:10073000086001F049FCE8B3644800686449086057
:100740006248001D0068091D0860604808300068A4
:10075000091D08605D480C300068091D08605B4891
:1007600010300068091D0860584814300068091DE1
:1007700008605648183000685549203108605348D1
:100780001C300068091D0860504820300068091DB1
:1007900008604E4824300068091D08604B48283026
:1007A0000068091D086049482C300068091D086070
:1007B000464800E018E030300068454940310860A4
:1007C000424834300068091D0860404838300068ED
:1007D000091D08603D483C300068091D08603B4821
:1007E00040300068091D0860D4F83011481C00D161
:1007F0002978384D062904D1D4F8580200F04F006A
:10080000286001F0A5FB30B133480168C90702D068
:100810006FF001010160D4E94C10062907D1C21E16
:10082000022A04D92D4A136843F4806313600F2908
:1008300003D12A6842F00F022A604FF010220629E5
:1008400007D1C01E032804D9D2F808021C491C3164
:100850000860D2F80002002803DBD2F80402002866
:100860001FDA012003F0A6F81521C2F800121C4877
:100870000368002BFCD0C2F8041201680029FCD0E8
:10088000002003F097F8BFF34F8F0E48F03801684F
:10089000144A01F4E06111430160BFF34F8F00BFC0
:1008A000FDE7124910480860BDE8F081E00F00F054
:1008B000E80F00F0403501400DF0ADBA00C0074030
:1008C0003C050040FCED00E0105600400404001020
:1008D00020C50040E40E0040000400403C170040EA
:1008E00000E401400400FA050090D003A8010002D2
:1008F0000148006800470000B400000202E008C898
:10090000121F08C1002AFAD170477047002001E089
:1009100001C1121F002AFBD17047000001212028CD
:1009200003DA81400548014003E0402802DA20381C
:10093000814009B10120704700207047FC06FFBDCF
:1009400030B593B05920ADF83C00184811901720ED
:10095000ADF8400004253C216846FFF7A2FD0024C5
:100960000FA88DF8004009908DF803501821104809
:10097000FFF797FD0E4805210C4A0170446004758D
:10098000F02181608481103A684602CA00F00CFAB6
:1009900008B100F0A7F80549054A1039081F72DFB1
:1009A000002801D000F09EF813B030BD1400000202
:1009B000AC010002022000F013BB000070B500245F
:1009C000064D06E06868012110F8340002F064FC6E
:1009D000641C28788442F5D3002070BDC00000025A
:1009E000F8B516460C4605460A2A01D20720F8BD7E
:1009F00002F04CFD18B902F00FFD0028F7D1134F9B
:100A0000102113487D603C70BE60FFF74AFD002056
:100A1000C7E904000F4E0DE005EBC40031680091FA
:100A200081788DF8011000780B4A694602F084FC49
:100A30000028DCD1641EE4B2EED2BDE8F8400548DF
:100A40000021064A001D00F05FB80000C00000024F
:100A5000B0020002DC460000411A00003916000016
:100A600010B572B602F06EF801F0BAFE0028FBD1A4
:100A700011481249401AC408012000EB044010A19B
:100A800001F0C8FF11480068C00700D000BE022076
:100A900000EB04400EA101F0BDFFBFF34F8F0B48E8
:100AA000E43801680E4A01F4E06111430160BFF3CC
:100AB0004F8F00BFFDE70000CC5000007C500000CD
:100AC000466174616C206572726F7200F0ED00E037
:100AD00053797374656D207265736574000000004E
:100AE0000400FA050EB500210091CDE901106A4617
:100AF00044F20100FFF7B4FF0EBD0000014800F012
:100B000002BE00000001000210B55AB100684FF0AB
:100B1000FF3401294261C0E9024400D00021016193
:100B2000002010BD072010BD38B5114808235822F9
:100B3000416800910F49006801F064FA002815D15E
:100B40000D4A69460D4800F0E3FD04000ED1012175
:100B50000A4800F058FE0123094A1946074800F0E8
:100B6000AAFD0649012008390870204638BD00005A
:100B7000E4460000D0020002C93B00000001000270
:100B8000FFFF7F00F8B50446002617460D468DF896
:100B90000060684600F042F8D4E90201C04370EA00
:100BA000010005D09DF8000000F05CF80020F8BDC1
:100BB00000F02CFF40197141C4E902019DF80000CA
:100BC00000F050F8A761206900B125612146BDE819
:100BD000F840002003F0BEBA38B5044600208DF876
:100BE0000000684600F01AF8D4E90201C04370EA38
:100BF00001000DD04FF0FF30C4E902009DF8000065
:100C000000F030F82146BDE83840012003F0A2BAD8
:100C10009DF8000000F026F8002038BD30B5EFF355
:100C2000108172B60D4A9468012324B10370002923
:100C300000D162B630BD93604FF0E023D3F880510D
:100C4000074C25401560C3F88041D3F884415460B7
:100C50005A17C3F8842100220270E8E72803000233
:100C6000FC06FFBD0B498A68002A11D000280FD16D
:100C7000EFF3108072B60B684FF0E022C2F800313B
:100C80004B68C2F8043100228A60002800D162B6A5
:100C900070470000280300022DE9F041064608686D
:100CA0000C46411C4FF0A0474FF0010506D005FA55
:100CB00000F1C7F80815206801F04EFC6068411C7F
:100CC00002D0002101F036FC3168A069C1F824058A
:100CD000607D227D31681043C1F86C05D4E90012B3
:100CE0003068C0F81425C0F80C15207D012815D1F6
:100CF000A068411C02D0002101F01CFCE068411CEE
:100D000005D08540C7F80855E06801F025FCD4E916
:100D100002123068C0F80825C0F81015BDE8F0814F
:100D20002DE9F041064608680C46411C4FF0A047EB
:100D30004FF0010506D005FA00F1C7F80815206844
:100D400001F014FC6068411C02D0002101F0FBFBA3
:100D50003168A069C1F82405607D217D32680843AF
:100D6000C2F86C05D4E900123068C0F80C15C0F860
:100D70001425207D012815D1A068411C02D0002136
:100D800001F0E1FBE068411C05D08540C7F808553B
:100D9000E06801F0EBFBD4E902123068C0F80825E6
:100DA000C0F81015BDE8F0812DE9FC470025178833
:100DB0000646158090F82D001446894630B13A4613
:100DC0002146484600F0B1F8051E09D1B0784FF031
:100DD0000C0A18B32088C846001DB84202D95046F4
:100DE000BDE8FC87684679DF0028F9D12088032117
:100DF00008F8001020881921401C80B2208008F8D3
:100E000000102088401C80B2208000EB0801BDF853
:100E1000000003F06EFB218808442080F078022255
:100E2000C8B1218896F9033001F1030C4846BC454E
:100E3000D5D8425421884FF0010C491C89B2218039
:100E400000F801C02188491C89B2218009F80130CD
:100E50002088401C20807068B8B1218890F900304B
:100E600001F1030C4846BC45B9D8425421880A22F6
:100E7000491C89B2218042542188491C89B22180B1
:100E800009F801302088401C2080308950B1CDE91C
:100E900000474B460622022106F1080003F098FBAA
:100EA000051E9DD1308A50B1CDE900474B4607223F
:100EB000032106F1100003F08BFB051E90D1308B4F
:100EC00050B1CDE900474B461522142106F1180018
:100ED00003F07EFB051E83D1306A30B13B462246CB
:100EE000494600F065FB051EDBD1706A30B13B4618
:100EF0002246494600F04EFF051ED2D196F82C003E
:100F000038B13B4622464946304602F0B1FF051E45
:100F1000C7D1307838B13B4622464946304600F0CA
:100F2000C3FF051EBDD128465AE77CB50546088893
:100F30000C460930904201D90C207CBD68466DDF1B
:100F40000028FAD121880820685420881B21401CE1
:100F500080B2208029542088401C80B22080284400
:100F6000DDF801100160BDF8051081802088801D2A
:100F700080B220809DF80010490800D0012129543A
:100F80002088401C208000207CBD00002DE9FC4111
:100F90000646C0074FF000050ED0104F0024012276
:100FA000385D009500231146019501F069FA641C33
:100FB000022CF4D300F046F8B0070DD5074E0024FC
:100FC000B61C0022305D012300951146019501F009
:100FD00057FA641C042CF4D3BDE8FC819E46000043
:100FE00007490B5C4FF0A041D1F80425012098403F
:100FF00020EA0203C1F808351040C1F80C0570471B
:101000009E4600000249085C012101F0F0BA000090
:101010009E4600000249085C002101F0E8BA000089
:101020009E4600000649095C4FF0A040D0F8040538
:10103000C84010F0010000D0012080F0010070478E
:101040009E46000010B500242046FFF7DBFF641C1D
:10105000022CF9D310BD10B500242046FFF7DAFFAB
:10106000641C022CF9D310BD10B50246064B4FF09C
:10107000FF3000215C5C944201D1084610BD491C40
:101080000429F7D310BD0000A04600002DE9F04769
:101090000D468146FFF7E8FF0446042836D2DFF804
:1010A00074801B481C4EA8F10C0725B3012D0ED0EF
:1010B000022D2BD104EB440030444578002D25D07F
:1010C000B968002922D02846BDE8F047084704EB5C
:1010D0004401755C0E44717849B10E4A4FF4804169
:1010E000093A8068FFF74EFD08B987F80390B17898
:1010F00008F80410E2E78068FFF76EFD04EB440196
:10110000314418F804008D78A842D7D0BDE8F087A4
:10111000A446000038000002E301000270B500237D
:10112000042810D20D4D00EB4004012A02D1012900
:101130000CD00022094E00EB4000304461B101297F
:1011400006D0022906D00723184670BD0E30C2B261
:101150002A55F9E74270F7E78270F5E7E3010002EC
:10116000044A014600201279D20702D0084600F056
:101170004DB870472C00000270B506461E4800248A
:10118000C0E90161B00720D500250122114628469B
:10119000FFF7C4FF6D1C0446042D02D2002CF4D0CE
:1011A00013E094B940F2333204211448FFF718FCDD
:1011B00004000AD1FFF702FC040006D10F48104AD0
:1011C0000021001FFFF7A0FC0446F00712D0012009
:1011D000FFF7DCFE74B909480A4A00210C38FFF712
:1011E00093FC040006D10548074A01210838FFF79F
:1011F0008BFC0446204670BD2C000002B046000067
:10120000D9140000051C0000B50900002DE9F05FAD
:101210006E4C054600266078B34618B184F801B0DC
:1012200000F0DEFC6A4F4FF47A694FF4C87A4FF051
:101230000108182D69D2DFE805F00C131338475464
:10124000696E727B727BC58484848484B3B6B9BCB6
:10125000C5C500F0C5FC3868FFF7BEFC06465CE07B
:101260000020FFF7DFFE00284FF0000008D0FFF756
:10127000C9FE022D02D14FF4E16008E0484606E0C5
:10128000FFF7C8FE022D01D1C82000E05046410CF6
:10129000C0034FF47A72801841F1000125705200AA
:1012A0000023FFF7A1F801462AE00020FFF7BAFE6D
:1012B00000284FF0000004D0FFF7A4FE4FF4487060
:1012C000E5E7FFF7A7FEDFE70020FFF7ABFE00280A
:1012D0004FF0000002D0FFF795FECFE7FFF79AFE30
:1012E000D4E70020FFF79EFE00284FF0000002D058
:1012F000FFF788FE01E0FFF78DFE257040F6CD4137
:1013000000223868FFF73EFC064646E00020FFF763
:1013100067FE257008E0002051E025703DE084F86C
:1013200001800120FFF75CFE002240F26661E8E7E1
:1013300084F801800120FFF753FE00224FF4005192
:10134000DFE77868FFF748FC0646D5F1110000D0CA
:101350002EB10220FFF756FE84F802B01DE00128EE
:1013600016D980B2C8214843C117C90341EA504188
:10137000C0034FF47A72801841F10001520000233B
:10138000FFF732F8014600227868FFF7FBFB0646BC
:101390000220FFF73FFE84F802803046BDE8F09F50
:1013A00000F01EFCB9E700F01BFCB4E700F018FCED
:1013B00004E000F015FC0020FFF72CFE0120FFF7F1
:1013C00029FEAAE7FFF747FEA7E700002C0000026E
:1013D000A44600002DE9F84F0546861C00208DF834
:1013E000000091460F464FF0010A6846FFF716FCD1
:1013F0001B4C04F21C4860683860D4E90101194FA5
:10140000401A3968081A0EE00121404600F03FFEFC
:1014100000F004FC0146404600F039FED4E9010129
:10142000401A3968081A401C8642EDD8B9F1000FFD
:1014300003D0052065F3891002E0062065F39F5074
:1014400061683A68114004EB8101C860606830440B
:1014500060609DF80000FFF705FC5046BDE8F88F7E
:10146000D80400025001000270B50D4604460A2956
:1014700002D10D21FFF7F8FFA0682268411CA1608E
:101480001554D4E90101814204D32046BDE87040DF
:1014900000F0FDBE70BD00000448816840688142D4
:1014A00001D101207047002070470000D8040002DD
:1014B000034630B5074800210478426806E000BFC3
:1014C00002EBC10005789D4203D0491CA142F7DB25
:1014D000002030BDC000000200780221FFF7D6BD19
:1014E00005494FF0FF32082841F8202002D3084474
:1014F00080F848207047000004020002F0B54FF069
:10150000FF3512B10023082601E008230C260C4CFD
:1015100005E000BF54F823707F1C04D05B1CB3426D
:10152000F8D32846F0BD26185DB286F8305044F84E
:101530002310002AF5D1E11881F84800F1E70000F6
:10154000040200020249084490F93000704700008C
:101550000402000270B5084C050009D0103421685F
:10156000002907D008682060496828468847F6E7C0
:101570000834F4E770BD0000F0010002054A0121C3
:1015800020B1012805D19170FFF7E4BF5170002010
:10159000FAE77047F001000210B5D0E90234D1E952
:1015A0000220D11AA04101D3012010BD002010BD9E
:1015B0002DE9F04117880646B81D14460D4698429D
:1015C00002D90C20BDE8F0813188072206290AD310
:1015D0004FF4486C4FF6FF73614501D9994202D12F
:1015E0007088062801D21046ECE7604501D9984280
:1015F000F9D1994203D0984201D08142F3D8052015
:10160000E85520881221401C80B22080295420886F
:10161000401C80B220804119308802F06AFF218886
:10162000084480B220804119708802F062FF21884E
:10163000084420800020C5E770B500240F4D10E05D
:10164000686800EBC406307801F0DCFE717801298F
:1016500001D0012100E000214140307800F05CF928
:10166000641C28788442EBDBD5E90401084303D0ED
:10167000BDE8704002F08ABD70BD0000C0000002ED
:1016800010B50021024800F00DFD80F3100010BDE0
:10169000F40800024FF480328A400168C1F8482300
:1016A0000068C0F8082370474FF4A07202EB810174
:1016B00089B200F0A1B92DE9F04105460E464FF47C
:1016C000A07000EB860081B228684FF48034B440EB
:1016D000984622F07F47C0F808432868C0F848437E
:1016E000286801F039FB286800EB8600C0F84075D7
:1016F0002868C0F84443B8F1000F02D02868C0F849
:101700000443BDE8F0810068D0F80405704700008C
:1017100070B54379234C44F823204279231D03EB11
:10172000C202224C1579204A121BD4082DB108257B
:10173000022000EB04401EA130E005680A88C5F8CD
:10174000082590F904208978002A4FEA411104DB2A
:1017500002F1E02282F8001405E002F00F0202F12B
:10176000E02282F8141D90F904100122002909DBFF
:1017700001F01F0502FA05F54909890001F1E02190
:10178000C1F800514179002503EBC1010A7141798B
:1017900043F83100032000EB04400EA101F03AF9B8
:1017A000284670BD1C010002B45000007C500000AF
:1017B00052544320696E7374616E636520616C726C
:1017C0006561647920696E697469616C697A6564C0
:1017D0002E0000005254433A20696E697469616CAE
:1017E000697A65642E00000090F90400002809DB86
:1017F00000F01F02012191404009800000F1E0202B
:10180000C0F8001270470A46022100F07BB84FF47E
:10181000827100F0F1B80068012101607047006832
:101820000121416070472DE9F05F07460C464FF4F7
:10183000A07000EB84001FFA80FA38684FF48036FD
:10184000A6409B4622F07F45C0F848633868C0F840
:1018500008633868D0F8048500EB8402D2F840951C
:10186000C2F840855146386801F076FAA9EB0800C5
:1018700020F07F40012806D1102001F005FD5146DF
:10188000386801F069FA3868D0F80485C0F8446314
:10189000A5EB080121F07F413868012900EB8400A5
:1018A00010D0C0F840553868D0F804156FF07F4C60
:1018B0006A1A521E22F07F42ACEB0B03934217D3FD
:1018C00062B118E06D1CC0F84055102001F0DCFC3E
:1018D0003868D0F8040540450AD10CE000EB8400DC
:1018E0006D1CC0F840553868D0F80405884202D015
:1018F0000D20BDE8F09F01223146384600F002F885
:101900000020F6E70368C3F84413002A02D00068F9
:10191000C0F80413704700002DE9F84F0E46344913
:10192000804601EB5001C007097801D00F0901E0A2
:1019300001F00F074FF00009424601204946FEF72B
:1019400084FDDFF8B0A004460D46052F4ED2DFE837
:1019500007F003161B282C00002E47D0012140461B
:1019600002F008FB8DF800906846FFF757F95046E3
:10197000D0E904120C431543CAE9044532E00EB124
:10198000022114E0002112E04EB10321404602F092
:10199000F1FA4046BDE8F84F012102F009BE0121ED
:1019A00005E0002E22D1042101E02EB103214046A2
:1019B000BDE8F84F02F0DEBA0021404602F0DAFA44
:1019C0000021404602F0F4FD8DF800906846FFF7D4
:1019D00025F95046E243D0E904341A4024EA0501CF
:1019E000CAE904219DF80000FFF73CF9BDE8F88F33
:1019F000B0020002C000000210B5006842581AB1DF
:101A000001F0AAF9012010BD002010BD10B50B484F
:101A1000FFF779FE094A083AD2E90434C018D2E93E
:101A2000063244F10001C31A71EB020204D24FF0F6
:101A30008072801841F1000110BD00000001000219
:101A400010B5C0B2FFF734FD0446007801F0DAFCAF
:101A500001466078012801D0012000E0002090EAD2
:101A6000010F08D00449D1E90401084303D1BDE8BE
:101A7000104002F08BBB10BDC00000022DE9FC5FDE
:101A80000E008346DDE90C47C6F1000098469246F9
:101A9000814600D40846012503E000BF90FBFAF020
:101AA0006D1C5045FADAA84500D9454624B1002EF0
:101AB00001DB780700D5641EB80702D5B8F1000F26
:101AC0000AD0F80708D13CB1A54205D220215846DA
:101AD000641EFFF7C9FCF6E7002E02DA4E462D2100
:101AE00002E0780703D52B215846FFF7BDFC07F02D
:101AF000030002280BD1B8F1000F08D13CB1A54278
:101B000005D230215846641EFFF7AEFCF6E7CDE95A
:101B10000047434652463146584602F0EFFCBDE8C6
:101B2000FC9F000070B50D46044600684FF48871B4
:101B300001F060FB4FF49071206801F05BFB4FF403
:101B40009271206801F056FB4FF4A271206801F0F9
:101B500051FB4FF4AC71206801F04CFB2068124936
:101B6000C0F804132068690740F30730090E002805
:101B700004DB00F1E02080F8001405E000F00F0025
:101B800000F1E02080F8141D206840F307300028A1
:101B900009DB00F01F02012191404009800000F1A3
:101BA000E020C0F8001170BD100342000246002082
:101BB0001268530713D502F00300012802D002284F
:101BC0000CD105E0C2F383100B68801C184404E0BC
:101BD0000223086803EB925210440860012070470A
:101BE000074810B5807838B100242046FFF70AFA7C
:101BF000641C022CF9D310BDBDE81040FFF722BAD7
:101C00002C00000203480179C90702D00078FFF7D1
:101C1000FDBA70472C000002704700002DE9FF411B
:101C20000026244800F030FA2248001F074600F042
:101C30002BFA214C2149A06800900D6800E0009823
:101C40006946284004EB80000C30FFF7AFFF002806
:101C5000F5D101AA009901EA050304EB8303491CAD
:101C6000DB6842F82030401C00910228F2D3019832
:101C700000F0030001280BD0022810D101980321A5
:101C800001EB90500099BDF80A6001EB900005E06F
:101C90000198BDF80A60C0F38310084400903846EC
:101CA00000F0EFF908B10098A06004B03046BDE83C
:101CB000F0810000F0080002D80400025001000288
:101CC00008B54FF48041002000F010FF08B1FEF786
:101CD00009FF00F077FDFEF727FF08B1FEF702FFCE
:101CE00000210120FFF748FA08B1FEF7FBFE01F0E2
:101CF00007F808B1FEF7F6FE01F07EF908B1FEF72D
:101D0000F1FE002000906946012001F035F808B18D
:101D1000FEF7E8FE684601F0A9F808B1FEF7E2FE1A
:101D2000FEF70EFE12481349401AC008032101EBCA
:101D3000004011A100F06EFE154C0121207873DFE8
:101D400008B1FEF7CFFE0220FFF70AFA08B1FEF74E
:101D5000C9FE04222178012077DF08B1FEF7C2FE18
:101D600000F03EFD0028FBD100F0DEFFF8E70000A8
:101D7000CC5000007C500000426561636F6E2065AE
:101D800078616D706C6520737461727465642E0087
:101D90000000000270B5144682880E460546208871
:101DA000111D0144921C994201D8FE2A01D90C2030
:101DB00070BD521C32542088FF21401C80B220800C
:101DC00031542088401C80B220808119288802F07C
:101DD00090FB2188084480B22080AA8842B1A9687B
:101DE00041B13044FEF744FB2088A9880844208094
:101DF000002070BD072070BD2DE9F047C5881E1D6D
:101E0000B6FBF5F78946B6FBF5F1044605FB176C02
:101E1000407916686843DDF820A0F718001F874254
:101E200000D9C61A166001E02468491E0029FBD1BA
:101E3000A5EB0C078846B74216D818E004EB0C0057
:101E4000001D09EB0803BAF1000F3A4602D0014623
:101E5000184600E01946FEF70BFB2468F61B4FF00E
:101E6000000CB844B54201D9374600E02F46002E99
:101E7000E4D1BDE8F087000030B5024651B100F072
:101E800049FE0021074C08E034F821301568AB42C8
:101E900002D11160002030BD491C8142F4D30520DD
:101EA00030BD000000000000F8B50F460178144670
:101EB0000546012901D1687830B12088821C9A42F8
:101EC00032D8012902D006E00720F8BD6978014424
:101ED000891C994228D8181A801E86B2ADF8006075
:101EE0002188B81C084469467DDF0028EDD1297897
:101EF000022904D06878BDF80020904205D3BDF8CF
:101F00000000B04201D809200AE00820012905D1CB
:101F10006978B14202D8ADF8001001E0ADF8006078
:101F2000BDF80010FE2901D90C20F8BD2288491CFB
:101F3000B9542188491C89B2218078542088401CDA
:101F40002080BDF80010084420800020F8BD00006B
:101F50004FF08050D0F830114A1C05D0062906D029
:101F60000F2904D00020704702480178F6E70120CD
:101F700070470000E00F00F04FF08050D0F83011B3
:101F80004A1C05D0062906D00F2904D0002070472E
:101F900002480178F6E7012070470000E00F00F0EA
:101FA0004FF08050D0F830114A1C05D0062906D0D9
:101FB0000F2904D00020704702480178F6E701207D
:101FC00070470000E00F00F04FF08050D0F8301163
:101FD0004A1C06D0D0F8340106290AD00F290BD0AC
:101FE0000CE007480178064808300078C0F3031079
:101FF000F2E7C01E012801D9012070470020704778
:10200000E00F00F010B531B1B2FBF3F403FB142480
:102010001CB1092010BD0E2010BD016000214160DF
:1020200081608281C381084610BD70B50C460546AB
:10203000FEF7F2F8002802D021882868084470BD15
:1020400010B50A8849888A4203D1FEF727F9012092
:1020500010BD002010BD70B50C460546FEF701F915
:10206000002802D061882868084470BD10B50A882D
:1020700049888A4203D1FEF7EBF8012010BD002009
:1020800010BD002100F009B8012100F010B808B51A
:102090006A46FEF758F9009808BD08B56A46FEF78B
:1020A00038F908BD08B56A46FEF71AF908BD08B543
:1020B0006A46FEF721F9009808BD08B56A46FEF7A2
:1020C0004FF9009808BD38B5044600258DF800503A
:1020D0006846FEF7A3FD21686268086890420ED941
:1020E000401E08600178238AE26801FB0325227AFA
:1020F0002168101AC0B20A79824200D208719DF894
:102100000000FEF7AFFD284638BD38B50546002073
:102110008DF800000C466846FEF780FDE868298AC5
:10212000201AB0FBF1F12A681068431C136001709B
:102130009DF80000FEF796FD38BD10B530B1017A6C
:1021400042680368891AC9B21A6006E00E2010BD01
:1021500003681A68541C1C601170491EC9B2F7D27A
:10216000006800210171084610BDC20800F0070395
:102170000120895C98400840704700F18040006869
:10218000002800D00120704708B500F180400021F0
:1021900001600068009008BD70B50D4C01252078E5
:1021A00008B185260EE00020A06060602061E0603C
:1021B000084801F043F8064600F06AFF08B901F04C
:1021C00027F8257001F01CF800B1A570304670BDED
:1021D000F00100027D15000038B500258DF8005093
:1021E0006846FEF71BFD084CE068401EE060E068B2
:1021F00028B901F005F810B901F02EF8A5709DF886
:102200000000FEF72FFD38BDF0010002F0B50546D5
:102210000478154889B0164640F82420124A086907
:10222000121DA2F1080742F82400487F38552022E9
:102230006846FEF71DF904942878385C48B10EB161
:102240000A4A00E000226946281D01F095FA09B00B
:10225000F0BD0EB1064A00E00022694605F10C000F
:1022600001F054F9F3E70000A4000002B1430000BC
:10227000F94100000FB408B50399002904D004AA5D
:1022800000926A4600F00FF801B05DF814FB10B53B
:1022900082680446002A05D0D4E9040321689847DF
:1022A0000020A06010BD2DE9FC4791460C0080463F
:1022B00076D014F8011B39B125290ED04046FFF71E
:1022C000D3F820780028F4D198F80C00002867D0C3
:1022D0004046BDE8FC47FFF7DABF00200122217825
:1022E0002B291BD02D2902D0302908D102E040F043
:1022F000010001E040F00200641C002AEFD100253B
:102300002A290ED02178A1F130020A2A11D205EB38
:10231000850201EB4205641C303DF1E740F004000A
:10232000EAE7D9F800100B1DC9F800300968641CF1
:102330000D44217800232E290BD114F8011FA1F19F
:1023400030020A2A05D203EB830201EB4203303B41
:10235000F3E76C290DD068290BD0692921D00BDC5B
:10236000252918D0582931D063290ED0642915D1D8
:1023700017E014F8011FECE7702969D0732932D0F7
:1023800075291BD0782909D120E0D9F80000011D5A
:10239000C9F8001001784046FFF766F8641C90E722
:1023A0006CE0D9F800100A1DC9F800200968CDE9D1
:1023B00000500A224046FFF761FBEFE7D9F8001012
:1023C0000A1DC9F8002009680A2206E0D9F80010A1
:1023D0000A1DC9F8002009681022CDE900504046C6
:1023E00002F08CF8DAE7D9F8001000270A1DC9F8C6
:1023F00000200E68C00705D112E04046761C7F1C05
:10240000FFF732F831780029F7D104E02021404667
:102410006D1EFFF729F8BD42C0D9002DF6D1BDE7EA
:102420004EB13046FEF748F8074604E0202140460A
:102430006D1EFFF719F8BD4206D9002DF6D103E055
:102440004046761CFFF710F831780029F8D1A5E74F
:10245000D9F80000011DC9F8001005683021404678
:10246000FFF702F878214046FEF7FEFF0820002122
:10247000CDE90001034610222946B0E7BDE8FC87FC
:1024800070B541EA4201DDE904564FF0A04441EA4B
:10249000830141EA052104EB800041EA0641C0F8CE
:1024A000001770BD70B541EA4201DDE904564FF0F6
:1024B000A04441EA830141EA052104EB800041EA9E
:1024C0000641C0F8001770BD70B541EA4201DDE970
:1024D00004564FF0A04441EA830141EA052104EB90
:1024E000800041EA0641C0F8001770BD70B541EAAE
:1024F0004201DDE904564FF0A04441EA830141EA7C
:10250000052104EB800041EA0641C0F8001770BDC8
:102510001CB5002100910B4601220191FFF7D4FF69
:102520001CBD1CB5002100910B4601220191FFF753
:10253000DDFF1CBD1CB500220B4600921146019226
:10254000FFF7C2FF1CBD1CB500220B4600921146CE
:102550000192FFF7CBFF1CBD1CB5002100910B467B
:10256000012201911146FFF7AFFF1CBD1CB50021F0
:1025700000910B46012201911146FFF7B7FF1CBDE8
:102580004FF0A04202EB8000D0F8002722F4403246
:10259000C0F80027D0F8002742EA0141C0F8001730
:1025A0007047000038B5094B44181B6800936B4610
:1025B00008E000BF53F82010D1F8205520C2C1F820
:1025C0002055401C8442F5D838BD0000D04600009C
:1025D00042094FF0000100D1491E00F01F00012206
:1025E00082400A4201D0012070470020704701223A
:1025F0004FF0A043824011B1C3F808257047C3F8DB
:102600000C257047034908B50844002101600068A3
:10261000009008BD0060004002494058012800D0E9
:10262000002070470060004030B5154A0146002088
:10263000D2F8104423460AE0DB681D79854205D1B3
:10264000401C0A28F6DB4FF0FF3030BD1B68002B22
:10265000F2D1431CF9D0CB681871D2F8103443B1D1
:10266000DB68CC681B682360D2F81024D268116044
:1026700030BDC2F81014C96800220A6030BD0000E5
:10268000D8040002F0B595B01C4615460E46084623
:102690001A9F00F00FFB182109A8FDF702FF0E9703
:1026A000CDE909540023082203A9304600F017FBA6
:1026B00005980690BDF81000ADF81C00BDF812009A
:1026C000ADF81E0000208DF821000399082501F0C7
:1026D0000300012802D0022816D02FE0C1F3C20067
:1026E000C1F383178C0A8DF82000BA002B460FA97E
:1026F000304600F0F4FA09A8009006AB3A460FA95C
:10270000204600F033FA19E0C1F3C2008C0D8DF8B9
:102710002000082C01D2274600E008272B463A4625
:102720000FA9304600F0DBFA3D44E41B09AB06AAD2
:1027300039460FA800F082F9002CEAD1304600F0AB
:10274000BFFA15B0F0BD7047012001F073BD000065
:10275000084810B50178084A515C19B1001D01F014
:10276000A5F802E00C3000F09FFFBDE8104000200B
:1027700001F060BD34010002A000000208B5034A68
:1027800000924023024AFFF77DFF08BD313E000062
:10279000400300020A4A012902EBC00007D00229C7
:1027A00007D0032907D0042907D000207047022052
:1027B00070470420704700797047407970470000E7
:1027C0007C50000010B5FFF7BFFF04210348FFF75E
:1027D0002BFF02490120C968487110BD6C500000F0
:1027E0002DE9F04F8DB0FEF757FE18B100200DB067
:1027F000BDE8F08F7D4C4FF0000BC4F818B4BFF368
:102800004F8F7B49A06802900D68D846284004EBA2
:1028100080000BE0D4F8180470B961680298814216
:1028200001D8A160E2E7284004EB80000C3002A947
:10283000FFF7BCF90028EDD1002009AA029901EAAE
:10284000050304EB8303491CDB6842F82030401C7D
:1028500002910228F2D3099800F00301022902D064
:1028600001294DD0A8E0810D50228946B2EB905F3E
:1028700000D850210E4666F39F50099008315D48FC
:1028800000F0CFF9070077D000F014FA4346082291
:1028900009A9384600F02BFA029908F1080A2940E4
:1028A000681A8000001D864223D9504D0C3530B186
:1028B000C2B204EB8101301A90460C3104E0294683
:1028C000F2B2002590462846C6B25346384600F07C
:1028D0000EFA0AEB08032DB1324629464FEA0700EB
:1028E00000F005FA029909F1030001EB9000029053
:1028F00039E004EB81015346324638460C31EFE7AC
:10290000C0F38311062900D3062161F389100990D1
:10291000C0F38310801C8100364800F082F9070064
:102920004AD000F0C7F94346082209A9384600F00A
:10293000DEF908F1080800260FE00298434600EA95
:102940000501401C04EB81010290042238460C3141
:1029500000F0CDF908F10408761C0998C0F3831043
:10296000B042EAD847B1D4F81054D4F8180478B17A
:10297000384600F0A5F934E01EE0E8684079012807
:1029800004D12A682846394612689047E8680568E5
:10299000002DF2D1384600F093F98DF800B068466A
:1029A000FEF73CF9D4F8180408B90298A0609DF825
:1029B0000000FEF757F914E0D4F8104405E0216850
:1029C000204689688847E0680468002CF7D10A48E7
:1029D0000A49401AC008022101EB004008A100F09A
:1029E00019F8FEF759FD80F0010000E7D804000255
:1029F00050010002EC500000CC5000007C50000060
:102A00004261636B656E647320666C7573686564A0
:102A10000000000000231A4601F0C4BA08B50123E3
:102A200000926A4601F0BEFA08BD1CB5CDE900234C
:102A300002236A4601F0B6FA1CBD00002DE9F047FA
:102A40000E4680461C469246082940D894F80C90C1
:102A5000002020731946104601F05EF80025B542AB
:102A600006D218F805201BA12046FFF703FC03E05F
:102A70001AA12046FFF7FEFB6D1C082DEFD318A10D
:102A80002046FFF7F7FB0025B54212D218F8057073
:102A90007E2F08D8FDF7E8FC0068C05D10F03E0FFF
:102AA00001D03A4600E02E220EA12046FFF7E2FBBD
:102AB00003E00DA12046FFF7DDFB6D1C082DE3D3DD
:102AC00001222146504601F009F884F80C90BDE837
:102AD000F087000020253032780000002020200000
:102AE0007C0000002563000020000000064910B5AE
:102AF00000200870054800F0E1F8002803D10448E0
:102B000000F01CF9002010BDD8040002EC500000B9
:102B1000A448000002480349401AC008704700005A
:102B2000EC5000007C50000013B56846FFF7A4F994
:102B300008B100201CBD0248009950F831001CBDAE
:102B40007C50000070B508480125D0F8104405708D
:102B500007E0E06845712168204649688847E068D9
:102B60000468002CF5D170BDD80400022DE9FF47A0
:102B700081460C9D00200C462F7B287398461646F4
:102B80002946184600F0C8FF072E42D2DFE806F0BB
:102B900004090F161F2A360049462846FFF76AFB2C
:102BA00037E0494628462268FFF764FB31E0D4E964
:102BB000002349462846FFF75DFB2AE0A068009005
:102BC000D4E9002349462846FFF754FB21E0D4E925
:102BD0000201CDE90001D4E9002349462846FFF768
:102BE00049FB16E004F1080007C88DE80700D4E9A6
:102BF000002349462846FFF73DFB0AE004F10800A0
:102C00000FC88DE80F00D4E9002349462846FFF796
:102C100031FB00222946404600F060FF2F73BDE8DB
:102C2000FF872DE9F041058A80462D1F4819C01CF9
:102C3000B0FBF5F0C6B24046FFF745FA041E19D0C6
:102C40000020207101206071E58000272546761E56
:102C5000C4F800800BE04046FFF735FA60B16179B7
:102C6000491C6171286005467F1CC0F80080B7428E
:102C7000F1D32046BDE8F081204600F002F80020A4
:102C8000F8E72DE9F041457901466B1E002201E08D
:102C90000968521C9A42FBD30F680146002605E0E2
:102CA00038460C68FFF731FA2146761CAE42F7D35E
:102CB000BDE8F0810121001DFFF7E9B9FFF73DBA3A
:102CC00010B504460121001DFFF7F7F910F0FF0FC2
:102CD00004D12046BDE81040FFF7D3BF10BD1CB59E
:102CE00001920122009201AAFFF786F81CBD1CB5D3
:102CF00001920022009201AAFFF77EF81CBD00009D
:102D0000064910B500204870091D0860BFF35F8FA9
:102D10000349044800F0E0F9002010BD280100023A
:102D2000304700003403000210B500F0B1F908B1DB
:102D300041DF10BD20BF40BF20BF10BD8268002111
:102D4000916082681161826851618268D160826895
:102D5000516080680160704708B5002242504058B9
:102D6000009008BD20B10349096801600020704748
:102D70000E20704728490000FEB502460E46084660
:102D8000FFF7F0FF002862D1002500958DF80020A4
:102D900001208DF8020001950620ADF8040002958F
:102DA00069462020326869DF29492A4A891AC908F8
:102DB000012202EB014430B100F0FCF9024620464A
:102DC0002549FFF72BFE0095019502958DF80150DE
:102DD00069464020326869DF30B100F0EBF9024605
:102DE00020461E49FFF71AFE0095019502958DF8C1
:102DF000005069460120326869DF30B100F0DAF92D
:102E0000024620461649FFF709FEF820009001957A
:102E100002956946A120326869DF30B100F0CAF935
:102E2000024620460F49FFF7F9FD009501950295EE
:102E30008DF800506946A020326869DF30B100F09B
:102E4000B9F9024620460849FFF7E8FD0020FEBD1B
:102E5000DC5000007C500000244F00006C4F00004C
:102E6000844E0000D04E0000304E00002DE9F041AD
:102E70000546076860DF804619491A482A68081A1B
:102E8000C608BA4219D9022000EB064416A1204612
:102E9000FFF7C0FD20463A461FA12B68FFF7C5FD8E
:102EA0004FF08050D0F80C012968800200F10050EA
:102EB000421A204625A1FFF7B1FDB8F100004FF0FE
:102EC00001040AD000F076F9024604EB06402AA17C
:102ED000FFF7A4FD4046BDE8F0812F480470F9E7F4
:102EE000DC5000007C500000496E737566666963B3
:102EF00069656E742052414D20616C6C6F63617422
:102F0000656420666F722074686520536F66744430
:102F100065766963652E00004368616E676520749D
:102F200068652052414D207374617274206C6F6328
:102F30006174696F6E2066726F6D2030782578201D
:102F4000746F20307825782E000000004D6178697C
:102F50006D756D2052414D2073697A6520666F72E0
:102F6000206170706C69636174696F6E2069732091
:102F7000307825782E00000073645F626C655F65B1
:102F80006E61626C6528292072657475726E656465
:102F90002025732E00000000A701000230B5144860
:102FA00091B00078002820D05FF03405ADF8405093
:102FB00010A903A861DF30B1052816D011B0BDE813
:102FC0003040FDF78FBD03AC0A49684600F084F835
:102FD00007E000BFD0E9002120469047684600F096
:102FE00092F802980028E1D0F4E711B030BD00005B
:102FF000A70100022C4900007CB5194C207808B1CB
:1030000008207CBD0120A070002000F0E3FE112804
:1030100019D0002000F0F6FE12480026006801904A
:103020008DF800606846FDF7F9FD0F4901A810DF33
:1030300005000AD0002020709DF80000FDF712FE68
:103040002DB128467CBD00207CBD0120F3E7A67091
:10305000667000F05DFF012000F0D4FEF3E7000091
:10306000A4010002C0480000610A00000EB5074933
:10307000684600F031F805E0D0E90010884768465E
:1030800000F041F802980028F6D10EBDDC4800009F
:103090000148007870470000A40100021FB568468F
:1030A0004BDF30B1052814D004B0BDE81040FDF767
:1030B00019BD084901A800F00FF806E0D0E9002189
:1030C0000098904701A800F01EF803980028E6D069
:1030D000F4E71FBD48490000016009684160AFF393
:1030E000008010B5D0E900215368994201D1002138
:1030F00004E0D1E90034A34202D01946816010BD3A
:1031000008314160F0E7816800290BD002689268BD
:103110000A44826041684B689A4203D10831416099
:10312000FFF7DFBF704770B50D460646446804E000
:10313000B2682946904718B1246820680028F7D162
:1031400020682860256070BD40680068704741684D
:103150000868002801D002680A6070470246002013
:10316000526806E08B4203D1086810600120704766
:103170001A461368002BF5D1704700000C4A10B5B1
:1031800002F594730EE0991AC91001EBD171491040
:1031900002EBC1010C68844201D90B4602E005D262
:1031A00001F108029A42EED3002010BD486810BD1C
:1031B0005047000000B5FFF7E1FF002800D10148AB
:1031C00000BD00003C4700004058002800D001200E
:1031D000704708B5002242504058009008BDD0F812
:1031E0000403084000D0012070474058002800D058
:1031F0000120704708B5002242504058009008BD99
:1032000002480068002800D00120704700040140F7
:1032100008480068012110F0010F06D14FF0E020AE
:10322000C02280F800248430C1670349012008606F
:103230007047000000E100E0180500400549024623
:1032400000200B790BB1852070470A6001220A71BA
:1032500070470000AC000002022010B54107C1F821
:1032600008034FF48270FEF78FFF054901200860C4
:1032700004480168C1F300410029FAD110BD0000E3
:103280000C00004018040040002802D001498001D1
:1032900008477047014700002DE9F0410E460546FA
:1032A00000F0A2FB0028284619D0FEF74BF9083899
:1032B00000F00CFC032802D001280ED007E04FF0EC
:1032C000A040D0F81005E84010F0010F05D0032110
:1032D0002846BDE8F041FFF753B90221F8E700F0B6
:1032E0008FFB002822D02846FEF72CF904464FF425
:1032F000807000EB84000E4F81B207EB8400D0F8A1
:10330000102542F00102C0F810250846FFF77AF9AF
:10331000002E0BD02846FEF715F9064951F820007B
:10332000002803D00120A040C7F80403BDE8F081C5
:1033300000600040040200022DE9FC41DFF8B88083
:10334000044608EB0400002790F930001346C0172C
:103350000E46401C01D008274AE0B0781946C0F359
:1033600040022046FEF7CAF80546401C3FD0B07820
:10337000410717D4C0070AD04FF0A04000EB8400EB
:10338000D0F8001721F00201C0F8001707E0002173
:103390007378204600910A460191FFF783F8204692
:1033A00000F014FBB078800718D51448317800EB92
:1033B0008500D0F81025124B1A40C0F810254FF4A4
:1033C000F8524FF4403302EA042203EA01410A436F
:1033D000D0F810150A43C0F8102509E008EB0500E5
:1033E000327810F8481F41EA8211017000E004278A
:1033F0003846BDE8FC810000040200020060004085
:10340000FFE0FCFF4FF0A041D1F81015C14011F0D2
:10341000010000D00120704770B5194D95F8580093
:1034200008B1082070BD0024661E2046FFF7D0F8C2
:1034300010B1281980F83060641CE4B2202CF4D359
:1034400000242046FEF74CF8641CE4B20C2CF8D3A0
:1034500000200D4968650B4CC02081F8000401264E
:103460004020891FC1F800014FF4BE70FFF7CAF871
:10347000A004C4F8040385F85860002070BD000063
:10348000040200020060004006E000E0034890F8FB
:103490005800002800D001207047000004020002FC
:1034A0000121B1EB507F01D101207047002070470E
:1034B00038B50D4600F07CFB040014D000208DF8D8
:1034C00000006846FDF7AAFB207928B19DF80000AE
:1034D000FDF7C8FB112038BD0120256020719DF843
:1034E0000000FDF7BFFB002038BD10B500F060FB09
:1034F000002802D000210160017110BD014902487D
:1035000000F0C0BE60020002002000402DE9F04142
:103510000546007916460F4600EB40012D4A01EBA7
:10352000C00102EB810494F82A1011B10820BDE813
:10353000F081294951F820102868FFF7B9FF08B138
:103540001120F4E739462846FDF7A6FB6660386986
:10355000206030004FF001062FD03F7F4FF48E7176
:103560002868FFF736FE4FF4A2712868FFF731FE96
:1035700028681A49C0F8041328684FEA471140F335
:103580000730002804DB00F1E02080F8001405E09B
:1035900000F00F0000F1E02080F8141D286840F3CF
:1035A0000730002809DB00F01F0106FA01F140098D
:1035B000800000F1E020C0F8001128680421C0F864
:1035C00000150020A061E06184F8290044F8140F80
:1035D000A675ACE760020002D4460000800002003D
:1035E0002DE9F05F054600790B4600EB400101EB49
:1035F000C000244901EB8004284600F045F810B1D2
:103600001120BDE8F09F62614FF00009C4F82090DE
:10361000A36084F828904FF48E784E46414628687F
:10362000FFF7D7FD28684FF0010AC0F808A021462F
:10363000286800F0B7FD606808BBD5F800B067697E
:103640000FE000BF94F8280008B10F2615E04146AE
:103650005846FFF7B9FD0028F4D02146584600F03F
:10366000A1FD206AB842F2D3574641462868FFF7C9
:10367000ABFD0028F9D02868C760C4F81490304624
:10368000BFE7000060020002007900EB400101EB9F
:10369000C000044901EB80004069002800D00120EF
:1036A00070470000600200022DE9F04704460079EF
:1036B0004FF0000900EB400101EBC000284901EB8D
:1036C00080072068C0F800957868B0B12068254967
:1036D000C0F80813206840F3073000280DDB00F025
:1036E0001F02012191404009800000F1E020C0F854
:1036F0008011BFF34F8FBFF36F8F2068D0F80C2578
:10370000D0F81485D0F80865D0F810554FF0FF3187
:10371000C0F81415C0F80C152068C0F80815C0F8DA
:103720001015501C02D01046FEF7F2FEB8F1FF3F14
:1037300002D04046FEF7ECFE681C02D02846FEF799
:10374000E7FE701C02D03046FEF7E2FE2068FFF76D
:10375000CCFE87F82A90C7F80490BDE8F0870000F7
:1037600060020002840202000149024800F038BEF3
:103770008C020002002000402DE9F041054616466B
:1037800000790F46154A00EBC00102EB810494F862
:10379000201011B10820BDE8F081114951F8201026
:1037A0002868FFF785FE08B11120F4E7394628465E
:1037B000FDF7B6FA6660386920601EB1397F284689
:1037C000FEF7B0F928680821C0F800150020A061B4
:1037D000E0616061012184F82010DCE78C020002C6
:1037E000D84600002DE9F04704460E4600792749E7
:1037F00000EBC00001EB800517463046FFF750FE96
:1038000030B1204600F044F820B11120BDE8F08727
:103810001020FBE76F61AE604FF490774FF0000827
:1038200039462068FFF7E6FC4FF4AC763146206855
:10383000FFF7E0FC2068AA686969C0F84425C0F871
:10384000481520684FF00109C0F808906868D0B9A1
:10385000BA4651462068FFF7C8FC07463146206843
:10386000FFF7C3FC0743F4D010B14FF00F0808E096
:103870002068C0F80C9031462068FFF7B6FC00289D
:10388000F9D0002068614046C0E700008C020002C9
:103890000079054900EBC00001EB80004069002879
:1038A00000D00120704700008C0200022DE9F04793
:1038B000064600793D4900EBC00001EB8005346805
:1038C00068680127A8B13A49C4F80813306840F382
:1038D000073000280DDB00F01F0107FA01F1400955
:1038E000800000F1E020C0F88011BFF34F8FBFF3DC
:1038F0006F8FD4F8000220F02000C4F80002A869FD
:103900004FF4A27820B141462046FFF773FC676070
:103910004FF4AC7949462046FFF76CFCE760474618
:1039200049462046FFF761FC0028F9D0A86928B174
:1039300039462046FFF759FC0028F1D04FF0000A25
:10394000C4F800A53068D0F80C25D0F81495D0F84C
:103950000885D0F810754FF0FF31C0F80C15C0F88D
:1039600014153068C0F80815C0F81015501C02D0A6
:103970001046FEF7D6FDB9F1FF3F02D04846FEF7EC
:10398000D0FD781C02D03846FEF7CBFDB8F1FF3FE2
:1039900002D04046FEF7C5FD2046FFF7A6FD85F89C
:1039A00020A0C5F804A0BDE8F08700008C0200024A
:1039B0001003420003490860034801680029FCD055
:1039C0007047000004E5014000E4014010B50549DE
:1039D000C20800F00703885C01249C4020438854FF
:1039E00010BD0000580200020449084490F930005C
:1039F000082801DB01207047002070470402000204
:103A00000449084490F93000082801D20120704789
:103A100000207047040200022DE9F05F2A4F06469D
:103A20004FF0A04A4FF0010B0024381990F95010C4
:103A3000491C3CD090F85000314620F0C005284683
:103A4000FEF793FB20B3204600F040F881460AEBD6
:103A50008500D0F80007C0F30148B8F1020F18D074
:103A600002212846FEF78CFD0BFA05F1CAF8201555
:103A70002846FDF767FD57F820204AB14846B9F1BE
:103A8000030F11D0B8F1020F05D0B8F1030F07D022
:103A90000DE00321E5E74846B9F1010F04D006E047
:103AA0004846B9F1020F02D1014628469047641CEE
:103AB000042CBAD3324601210020FEF773FD306892
:103AC0000028B1D1BDE8F09F040200020249084479
:103AD00090F85000800970470402000210B50C46AF
:103AE000017A052908D0407A38B1084808A102684F
:103AF0002046FEF7BFFB00E01AB106A12046FEF704
:103B0000B9FB2046BDE81040FEF7C1BB80010002B2
:103B1000257300000D0A000038B5C3880D46044621
:103B200033B114A0009015A216A12846FEF7A2FBFF
:103B3000217A05291CD0607A48B1A088FEF72AFEB8
:103B4000164951F8202016A12846FEF793FBA088BD
:103B50000021FEF7E9FF03461049207A143951F895
:103B6000202001B02846BDE830400EA1FEF782BB00
:103B700038BD00001B5B306D000000001B5B313B5B
:103B800033316D0025734C6F67732064726F7070F2
:103B90006564202825642925730D0A008001000230
:103BA000257300003C25733E2025733A2000000059
:103BB0000349884201D10348704700207047000044
:103BC00000200040B400000270B50546FDF71FFE5E
:103BD000134C40B1D4E904024FF08071411842F116
:103BE0000000C4E9041000212846FDF75DFD30B156
:103BF000606820B1606800F021FA00206060012157
:103C00002846FDF751FD18B1FDF700FFC4E9060194
:103C1000284600F05FFA2846BDE8704000F038B84A
:103C2000F80000022DE9F04100260E70D0E9027480
:103C30000D468046FDF7EAFE381A002364EB0101C9
:103C40001A461B1A8A4115DAB0F5350F04D3FCF772
:103C500055FF0D49421800E03A464FF49603002103
:103C60000A48FDF7E0FD10B10D2807D00AE0012059
:103C7000BDE8F08100210548FDF70CFD404600F04D
:103C8000DDF928700020F3E7FFFFB4000001000217
:103C9000F8B5204C064600251F48FFF755FA10B32B
:103CA000D0E90210CA4372EA000224D0626882B1ED
:103CB0006368D3E90223891A984127D26068D0E962
:103CC0000210C94371EA000103D061681248FFF78E
:103CD0002AFA00F049F907466946FFF7A3FFB0B199
:103CE000606858B10DE0606800280FD13046BDE82B
:103CF000F840FDF794BD00F037F9CDE73046FDF709
:103D00008AFD67609DF800000028C5D1F8BD656098
:103D1000C2E70000F8000002EC46000070B505465E
:103D200088690C4600284FF4847128460AD0FFF7B2
:103D300050FAD5F81805626AE1688854606A401C38
:103D4000606270BDFFF745FAD5F8180570BD1FB564
:103D500001238DF80030CDE90121D0E90012684639
:103D600090471FBD1FB501238DF80030CDE901211B
:103D7000D0E90012684690471FBD000038B5002109
:103D8000012548B1012810D003280DD1FFF740FAD2
:103D9000BDE83840FEF720BA4FF0E020C0F880516F
:103DA000BFF34F8FBFF36F8F38BD8DF8001068469B
:103DB000FCF734FF064C207808B9FEF7EDF9E0680F
:103DC000401CE060A5709DF80000FCF74BFF38BD7B
:103DD000F00100023EB5044609496846FFF77CF948
:103DE00008E000BFD0E900212046904730B1684686
:103DF000FFF789F902980028F4D13EBD11203EBD9D
:103E0000C44800003EB5044608496846FFF764F917
:103E100007E000BFD0E90021204690476846FFF741
:103E200072F902980028F5D13EBD0000D04800008C
:103E300070B50D4C0020D2B22070201D0B4D0378C0
:103E4000EB5C1BB1001DFFF7CDFC02E00C30FFF76F
:103E5000C7FB08B1FCF746FE6078002802D0217845
:103E60000029FAD070BD000030010002A00000025D
:103E70002DE9F0410746806A14468846C8B30025FC
:103E800031E000BFB96A05EB450001EB8006B08860
:103E9000801CFE2802D90C20BDE8F0812288401C3D
:103EA00008F8020020881622401C80B2208008F802
:103EB00000202088401C80B2208000EB0801308860
:103EC00000F017FB2188084480B22080B28842B1FC
:103ED000B16871B14044FCF7CBFA2088B18808443E
:103EE00020806D1CEDB297F82C00A842CAD80020A3
:103EF000D2E7FFE70720CFE7002805D103490120DB
:103F000048700020FDF726BB70470000F00100025A
:103F100010B51620FCF702FDA0B1114890F800047E
:103F20004009082811D20121814011F0EC0F0CD07A
:103F30000C4882684FF480016AB1016841F4800145
:103F4000016010BD42F2010001E042F20200BDE852
:103F50001040FCF7C7BD4FF0E020C0F8001110BDC5
:103F600016E000E0280300020148FFF7F0B8000067
:103F7000EC460000C207002A03D000BF4FF00F023A
:103F800001E04FF0F00201D04FEA0111044B03EBC6
:103F90005003187800EA020040EA010018707047E8
:103FA000B00200022DE9F84F0746224891468846A4
:103FB00005681E46012269461846FDF70BFADFF830
:103FC00078A060B3009800210446801C0AE000BF7E
:103FD00000EA050259F821C00AEB8202401C491C84
:103FE000C2F80CC0B142F3D34FEA1749FDF748FBC2
:103FF000611C29400AEB810149EA00422C40CA6059
:104000000AEB8401C86867F3C50066F3891068F39A
:104010009F2020F00300401C20F00400C8609AF8A4
:10402000000001E0FEF7DCFB0028FBD1FDF7F4FD0A
:10403000BDE8F88F50010002D8040002F8B504462C
:1040400022480026007878B374B3FDF7DFFCD4E98A
:104050000232C01A91412DD300258DF800506846D8
:10406000FCF7DCFD206910B9681EC4E902009DF868
:104070000000FCF7F7FDD4E9051088478DF80050E3
:104080006846FCF7CBFD22697AB1D4E90210CB4334
:1040900073EA000309D089186841C4E902109DF849
:1040A0000000FCF7DFFD09E00DE09DF80000FCF7E3
:1040B000D9FD08E0D84370EA020004D02146044844
:1040C000FFF731F801263046F8BD0000F800000285
:1040D000EC46000038B51D4D69462868FDF7BBFF6A
:1040E0001B4C30E0017821B101290ED0022922D1E8
:1040F00017E04168D1E90220D24372EA00021AD0E7
:1041000012480830FFF70FF815E0416860688142F7
:1041100002D1002060600EE00C480830FFF71EF866
:1041200009E0FFF721FF20B14FF0FF31C0E9021194
:10413000F7E70120207069462868FDF781FF69468E
:104140002868FDF788FF0028CCD138BDE446000080
:10415000F8000002F8B50B4C0D460646694620688B
:10416000FDF763FF58B10670456069462068FDF7AA
:104170007DFF10B10448FDF737FB0020F8BD042097
:10418000F8BD0000E446000000010002034880681A
:104190004108034800224068FCF7F4BCC00000025C
:1041A000DC46000070B50C4605464FF48E71FFF7F3
:1041B00010F8216AA068415C206A401C2062C5F8A2
:1041C0001C1570BD1FB500228DF80020029181687A
:1041D00001914261D0E90012684690471FBD1FB5AA
:1041E00000228DF800200291816801914261D0E99E
:1041F0000012684690471FBD1FB50A4601788DF82A
:10420000001041680191017A8DF80810C068039090
:10421000044850F82210001F50F8222068469047AA
:104220001FBD0000A800000201490120087070476E
:104230003001000210B588B0044620220E496846BD
:10424000FCF716F906200090C01F01900290039021
:104250004FF0EB7006900CB1084A00E0002269466E
:104260000748FDF7D3FF08B1FCF73CFC0448001FEA
:10427000447008B010BD00008448000029420000CE
:10428000340100022DE9FF470C4605464FF400714A
:10429000FEF7A5FF01274FF40178002618B34FF46D
:1042A000927949462846FEF78FFFE0B149462846F5
:1042B000FEF78FFFC5F8088394F8290000B96F60F6
:1042C00002208DF80000D5F88004C5F88004039022
:1042D000A0690290E0680190A661E661D4E900124D
:1042E0006846904728E004212846FEF778FF18B377
:1042F0004FF484712846FEF767FFE8B1214628464F
:10430000FFF70CFD616AA069884215D1E06938B1F8
:10431000E268616AA0612069E6616662E06008E0C7
:1043200094F8290000B96F60C5F80883A661E268B7
:10433000616A2046FFF70BFD4FF48E784146284610
:10434000FEF742FF80B16069216A814202D294F88F
:10435000280028B341462846FEF73BFF606918B1A4
:1043600061692046FFF72EFF4FF4A27841462846A8
:10437000FEF72AFF002818D041462846FEF729FFFD
:1043800094F8290000B12F60A06900280DD0A66123
:10439000E268616A04B02046BDE8F047FFF7D7BC89
:1043A00021462846FFF7FEFEDEE7BDE8FF87000056
:1043B0001FB50A4601788DF8001041680191017A15
:1043C0008DF80810C0680390044850F82210001FB0
:1043D00050F82220684690471FBD0000A800000248
:1043E0002DE9FF410C464FF4927705463946FEF71A
:1043F000FCFE0026B8B139462846FEF7FBFE022037
:104400008DF80000D5F88004C5F880040390D5F835
:104410003C050290E0680190A661E661D4E90012D3
:104420006846904723E04FF4887739462846FEF7E0
:10443000DCFEE0B139462846FEF7DCFED5F83C1537
:10444000A069884213D1E06960B1E268D5F8000242
:1044500020F02000C5F80002E069A0612069E66153
:10446000E06001E0A661E2682046FFF77BFC4FF4C4
:10447000A27739462846FEF7B8FE68B13946284685
:10448000FEF7B8FEA06938B1A661E661D5F83C1523
:104490002046E268FFF766FC4FF4907631462846E6
:1044A000FEF7A3FE60B131462846FEF7A3FE0120C9
:1044B000E860606920B1D5F84C152046FFF78FFE03
:1044C0004FF4AC7631462846FEF78FFE00280ED01A
:1044D00031462846FEF78EFE6069002807D0D5F8E1
:1044E0004C1504B02046BDE8F041FFF778BEBDE8AA
:1044F000FF810870000A4870022070472DE9F05FC4
:104500008346DDE90A4A994690460D46084601274A
:1045100003E000BFB0FBF8F07F1C4045FAD2B9457C
:1045200000D94F465FEACA7012D18CB15FEA8A7037
:1045300002D5B9F1000F01D0202607E0302605E0B2
:1045400031465846641EFCF78FFF0CB1A742F7D3E3
:104550005FF00106B9F1010F02D9A9F1010903E0E9
:10456000B5FBF6F0404502D306FB08F6F2E7DFF8AC
:104570003C9000BFB5FBF6F000FB165519F8001093
:104580005846FCF771FFB6FBF8F6002EF2D15FEA51
:10459000CA7009D0002C07D0A74205D22021584666
:1045A000641EFCF761FFF5E7BDE8F09F06470000D9
:1045B00070B50C460546FCF77BFF002807D0426823
:1045C000002A04D021462846BDE87040104770BD3F
:1045D0002DE9FC411646DDE90854CDE900541F469B
:1045E0008046022200F00CF8002807D1CDE90054E3
:1045F0003B4610223146404600F002F8BDE8FC81FF
:104600002DE9FC5F0026DDE90C4B994692468E466B
:1046100080462788354630E0D8F80400002200EBB9
:10462000850069460068019001A864DF002830D148
:104630009DF8000050451FD10EB1002100E002217D
:10464000228808441118594522D846B9521C90B204
:10465000208009F800E02088401C20800126218865
:1046600001A801EB0902694664DF002811D1208806
:104670009DF80010084420806D1CB8F80000A84286
:10468000CADC56B12088C01B401E80B2FF2802D968
:104690000C20BDE8FC9F09F807000020F9E703049F
:1046A0000C0B0909400000026000000280000002BB
:1046B0000C0001008D1000000B0001008D100000A7
:1046C000090001008D100000090001008D1000009C
:1046D00000000050FD3400006937000003000000B6
:1046E000D8000002C0020002010006000000000025
:1046F00018010002991500000000000000000000F1
:104700000738FDD8704730313233343536373839D1
:104710004142434445460000000000000000000004
:104720000000000000000000000000000000000089
:10473000184700003047000004000000556E6B6E03
:104740006F776E206572726F7220636F6465000010
:1047500000000000544D000001000000004C00006B
:1047600002000000F449000003000000744C000047
:1047700004000000C84C000005000000A84B000029
:1047800006000000444B000007000000B04C000091
:1047900008000000BC4B000009000000204C000095
:1047A0000A0000003C4D00000B000000DC49000046
:1047B0000C000000D44B00000D000000A44D0000D0
:1047C0000E000000A04C00000F000000DC4C0000B8
:1047D00010000000104D000011000000B84D000056
:1047E000120000008C4D000013000000284D000056
:1047F000800000005C4B000081000000984A00002F
:1048000082000000584A000083000000384A00007F
:1048100084000000744A000085000000804B000006
:1048200086000000884C000090000000244B00002F
:1048300091000000184A000092000000E84B0000C0
:1048400000820000F04C0000018200003C4C00009F
:1048500002820000584C000000840000B44A0000AE
:1048600001840000604D000002840000FC4A00004A
:1048700003840000D84A00007D2700005127000073
:1048800047270000FFFFFFFFFFFFFFFFFFFFFFFFC6
:10489000FFFFFFFF00000000000000000000D60145
:1048A00006010000400400027F000000C004000276
:1048B00000000000000000000000000000000000F8
:1048C00000100200B0480000C048000008000000CE
:1048D000E8480000F848000008000000F848000020
:1048E0000849000008000000185100002051000095
:1048F00000000000000000000851000018510000F6
:1049000000000000000000000000000000000000A7
:104910000000000000000000000000000000000097
:104920000000000000000000000000020849000034
:104930002849000008000000005100000851000054
:104940000000000000000000384900004849000055
:10495000080000000040404040404040404041418D
:104960004141414040404040404040404040404044
:1049700040404040400502020202020202020202DE
:1049800002020202022020202020202020202002DB
:10499000020202020202909090909090101010106B
:1049A0001010101010101010101010101010101007
:1049B000020202020202888888888888080808089B
:1049C0000808080808080808080808080808080867
:1049D0000202020240000000554900004E52465FAC
:1049E0004552524F525F494E56414C49445F4441F3
:1049F000544100004E52465F4552524F525F534F52
:104A000046544445564943455F4E4F545F454E41D9
:104A1000424C4544000000004E52465F4552524F02
:104A2000525F464541545552455F4E4F545F454E87
:104A300041424C45440000004E52465F4552524FA1
:104A4000525F4D555445585F554E4C4F434B5F4652
:104A500041494C45440000004E52465F4552524F7A
:104A6000525F4D555445585F4C4F434B5F4641494B
:104A70004C4544004E52465F4552524F525F4D5591
:104A80005445585F434F4E445F494E49545F464139
:104A9000494C4544000000004E52465F4552524F7B
:104AA000525F4D555445585F494E49545F46414900
:104AB0004C4544004E52465F4552524F525F424C65
:104AC000455F495053505F52585F504B545F5452AA
:104AD000554E4341544544004E52465F4552524F55
:104AE000525F424C455F495053505F504545525FBD
:104AF00052454A4543544544000000004E52465F2B
:104B00004552524F525F424C455F495053505F4CA3
:104B1000494E4B5F444953434F4E4E4543544544E1
:104B2000000000004E52465F4552524F525F4150C6
:104B3000495F4E4F545F494D504C454D454E54458D
:104B4000440000004E52465F4552524F525F4E4F56
:104B5000545F535550504F52544544004E52465F97
:104B60004552524F525F4D4F44554C455F4E4F5446
:104B70005F494E495449414C495A454400000000A0
:104B80004E52465F4552524F525F4D4F44554C4531
:104B90005F414C52454144595F494E495449414C4B
:104BA000495A4544000000004E52465F4552524F5C
:104BB000525F4E4F545F464F554E44004E52465F33
:104BC0004552524F525F494E56414C49445F5354EF
:104BD000415445004E52465F4552524F525F444148
:104BE00054415F53495A45004E52465F4552524F19
:104BF000525F494F5F50454E44494E470000000008
:104C00004E52465F4552524F525F5356435F4841A2
:104C10004E444C45525F4D495353494E47000000A6
:104C20004E52465F4552524F525F494E56414C4993
:104C3000445F4C454E475448000000004E52465FCA
:104C40004552524F525F4452565F5457495F455246
:104C5000525F414E41434B004E52465F4552524FC8
:104C6000525F4452565F5457495F4552525F444E1B
:104C700041434B004E52465F4552524F525F494EA0
:104C80005445524E414C00004E52465F4552524FE1
:104C9000525F53544F524147455F46554C4C0000BC
:104CA0004E52465F4552524F525F4E554C4C00009B
:104CB0004E52465F4552524F525F494E56414C4903
:104CC000445F504152414D004E52465F4552524F53
:104CD000525F4E4F5F4D454D000000004E52465F03
:104CE0004552524F525F464F5242494444454E004E
:104CF0004E52465F4552524F525F4452565F545790
:104D0000495F4552525F4F56455252554E00000082
:104D10004E52465F4552524F525F494E56414C49A2
:104D2000445F4144445200004E52465F4552524F48
:104D3000525F5245534F5552434553004E52465FC2
:104D40004552524F525F494E56414C49445F464C82
:104D5000414753004E52465F53554343455353001A
:104D60004E52465F4552524F525F424C455F49504A
:104D700053505F4348414E4E454C5F414C52454174
:104D800044595F4558495354530000004E52465F02
:104D90004552524F525F434F4E4E5F434F554E5414
:104DA000000000004E52465F4552524F525F544938
:104DB0004D454F55540000004E52465F4552524FEC
:104DC000525F4255535900007761726E696E6700F9
:104DD00064656275670000001B5B313B33306D001A
:104DE0001B5B306D000000001B5B313B33316D00FD
:104DF0001B5B313B33326D001B5B313B33336D004A
:104E00001B5B313B33346D001B5B313B33356D0035
:104E10001B5B313B33366D001B5B313B33376D0021
:104E2000696E666F000000006572726F72000000AC
:104E300073645F626C655F6366675F73657428297E
:104E40002072657475726E656420257320776865BD
:104E50006E20617474656D7074696E6720746F2064
:104E600073657420424C455F47415454535F434639
:104E7000475F534552564943455F4348414E474576
:104E8000442E000073645F626C655F6366675F73E6
:104E9000657428292072657475726E6564202573A7
:104EA000207768656E20617474656D7074696E67D3
:104EB00020746F2073657420424C455F434F4D4D05
:104EC0004F4E5F4346475F56535F555549442E004A
:104ED00073645F626C655F6366675F7365742829DE
:104EE0002072657475726E6564202573207768651D
:104EF0006E20617474656D7074696E6720746F20C4
:104F000073657420424C455F47415454535F434698
:104F1000475F415454525F5441425F53495A452EB2
:104F20000000000073645F626C655F6366675F73B7
:104F3000657428292072657475726E656420257306
:104F4000207768656E20617474656D7074696E6732
:104F500020746F2073657420424C455F434F4E4E62
:104F60005F4346475F4741502E00000073645F6215
:104F70006C655F6366675F7365742829207265746A
:104F800075726E6564202573207768656E20617484
:104F900074656D7074696E6720746F20736574201A
:104FA000424C455F4741505F4346475F524F4C4537
:104FB0005F434F554E542E00636C6F636B000000CF
:104FC000434C4F434B0000004750494F54450000AD
:104FD0005052530055415254000000005541525464
:104FE000450000006170705F627574746F6E000040
:104FF0006170705F74696D65720000007077725F38
:105000006D676D7400000000736F72746C69737467
:1050100000000000756172745F6C6F675F626163AE
:105020006B656E6400000000617070006E72665FF8
:10503000736468006E72665F7364685F626C6500BB
:105040006E72665F7364685F736F63002051000067
:1050500000000002AC0100000C05000090510000AF
:10506000AC0100024C0F00000C0900007848000061
:10507000000000001450000048010002B84F00007A
:1050800000000000C04F000000000000C84F0000FA
:1050900000000000D04F000000000000D44F0000CE
:1050A00000000000DC4F000000000000E44F0000A2
:1050B00000000000F04F000000000000FC4F000066
:1050C0000000000008500000000000002850000010
:1050D000000003032C5000000000030334500000C4
:1050E0000000030340500000000003035C010002C5
:1050F000540100025C01000280030002180000005D
:10510000F93E0000000000009D2F0000000000009C
:105110009D300000000000007D3D00000000000008
:1051200032FF13C401B3021F00181D0215DEADBE0D
:10513000EF45566778899AABBCCDDEEFF0010203EC
:1051400004C35AFF010956200138091F58151001E0
:1051500040110232041220BA4008296C5904011C83
:1051600023284E1BC84D3719081AD0081AE0041A14
:10517000D8041AE8041AF0041AF80411191C1A08C1
:10518000041A10041A180451040090D003000000FF
:0400000500000201F4
:00000001FF
