:020000021000EC
:10900000006000205D930100A5930100A79301007B
:10901000A9930100AB930100AD9301000000000093
:10902000000000000000000000000000AF930100FD
:10903000B193010000000000B3930100B59301005B
:109040005DB50100B7930100D1B90100B7930100EC
:10905000B79301000000000085B80100B79301003C
:10906000B7930100B7930100B7930100B7930100D4
:10907000B7930100B7930100B7930100B7930100C4
:10908000B793010041A70100B79301000000000061
:10909000B7930100B79301006DD00100B7930100B1
:1090A000B7930100B793010000000000000000002A
:1090B00000000000000000000000000000000000B0
:1090C00000000000000000000000000000000000A0
:1090D0000000000000000000000000000000000090
:1090E0000000000000000000000000000000000080
:1090F0000000000000000000000000000000000070
:10910000000000000000000000000000000000005F
:10911000000000000000000000000000000000004F
:10912000000000000000000000000000000000003F
:10913000000000000000000000000000000000002F
:10914000000000000000000000000000000000001F
:10915000000000000000000000000000000000000F
:1091600000000000000000000000000000000000FF
:1091700000000000000000000000000000000000EF
:1091800000000000000000000000000000000000DF
:1091900000000000000000000000000000000000CF
:1091A00000000000000000000000000000000000BF
:1091B00000000000000000000000000000000000AF
:1091C000000000000000000000000000000000009F
:1091D000000000000000000000000000000000008F
:1091E000000000000000000000000000000000007F
:1091F000000000000000000000000000000000006F
:10920000354936480A1A02D0072291438D4634491F
:1092100034480A1A06D00722914381F309880222B2
:1092200082F3148830483149314A00F044F831481B
:109230003149324A00F03FF831483249324A00F0B1
:109240003AF832483249334A00F035F83248334967
:10925000334A00F030F833483349344A00F02BF8F1
:1092600033483449344A00F026F83448344900225F
:1092700000F02CF833483449002200F027F8334836
:109280003349091A082902DB002202604160314A91
:1092900090471F481F49884205D00268043003B434
:1092A000904703BCF7E700208646EC4600200021EB
:1092B000294A9047FEE7884207D0521A05D0037822
:1092C00001300B700131013AF9D17047884202D068
:1092D00002700130FAE7704700600020005800205B
:1092E00000600020006000208CEA010018110020BE
:1092F00084110020BC930100BC930100ACDC010090
:109300008CEA0100181100201811002070DD010006
:1093100070DD010070DD010070DD010070DD010015
:1093200070DD010070DD010070DD01008CEA0100DC
:10933000F8EA01008411002084110020841100202B
:10934000B01C0020B01C0020B01C0020B01C00206D
:10935000B02400207393010099C7010000F02CB8DD
:109360000B484FF00701884385460A488047FFF7BE
:1093700047BF094809490A4A884207D0521A05D00E
:10938000037801300B700131013AF9D170470000C8
:1093900000600020D1AF010070DD01001811002035
:1093A00018110020FEE7FEE7FEE7FEE7FEE7FEE716
:0C93B000FEE7FEE7FEE7FEE7FFF7D2BF96
:1093BC007047000007B5044B0093044A402300F0AB
:1093CC0032F803B05DF804FBDD9301008511002039
:1093DC002DE9F84388461446B2B10F4B0F4E0325C6
:1093EC00002743F00109224608EB0701002003F097
:1093FC00E1FA0744241A48B933782BB14FF47A4078
:10940C00C847013D02D13570BDE8F88301233370A4
:10941C00002CE8D1F8E700BF70DD010084110020BA
:10942C00704703F017BBF0B595B01D4616460846BD
:10943C000C4601F005FD1A9B0D93CDE9086500253E
:10944C002B46082205A920460A958DF82C500C9520
:10945C0001F012FD079B0293069B03939DF81430B9
:10946C008DF8115003F00302012A1DD1BDF8142010
:10947C00059DC3F3C203C2F383168DF81030B200FE
:10948C0008230EA9204601F0F7FCC5F3952508AB7F
:10949C000093324602AB0EA9284600F0ADFB2046E5
:1094AC0001F0D2FC15B0F0BD022AF8D1BDF816506F
:1094BC00C3F3C203C5F389158DF810300827082DA6
:1094CC002E4628BF08263B4632460EA9204601F000
:1094DC00D3FCAD1B08AB02AA31460EA8374400F0F2
:1094EC00EFFB002DEBD1DAE7014B01221A7070472C
:1094FC00061200207047000070B50E4D06460FCDC9
:10950C0088B06C460FC495E80F00002E84E80F005D
:10951C00094A0A484FF0060308BF00226946009327
:10952C0001F078FF08B100F0B1FD054B1E7008B0DA
:10953C0070BD00BF84DD0100F594010018110020FE
:10954C00C511002007B5044B0093044A4023FFF7D4
:10955C006AFF03B05DF804FB6D950100C611002095
:10956C0038B50D480D4C0E4D002323700378EB5C81
:10957C00D2B263B1043002F0D5FE08B100F086FD22
:10958C00084B1A7812B12378002BFBD038BD0C3065
:10959C0002F076FCF1E700BF181100200612002043
:1095AC00A0180020C511002008B50848084A037807
:1095BC00D35C3BB1043002F019FEBDE8084000203A
:1095CC00FFF79ABF0C3002F0E5FBF6E7181100200C
:1095DC00A01800200120FFF78FBF000038B50A4DFE
:1095EC00FFF71FFF0421284600F076FA074B0124F1
:1095FC005C71FFF7EFFF042105F1100000F06CFA2D
:10960C00034B5C7138BD00BF50DD01002C110020F4
:10961C00341100200378024613F0040006D003F046
:10962C000300012803D0022809D0012070470B68E1
:10963C0012880233C2F3831213440B6070470B6819
:10964C005288023303EB92130B60EEE72DE9F04FD7
:10965C00DFF81CA187B00F4600230446861C0DF1D1
:10966C00070015468DF8073000F0F8FEDAF80420F4
:10967C003A60DAF8083003F580739B1A0AF21C473B
:10968C000AF583690AF21448B3421AD30020002D5C
:10969C0069D004F00F039B0143F0050363F30F0043
:1096AC00DAF80430DAB2033233444AF822009DF877
:1096BC000700CAF8043000F0F5FE012007B0BDE841
:1096CC00F08F0121384601F0EAF8484601F0FFF826
:1096DC00404601F0FCF8DAF808000290C0B2033002
:1096EC000AEB800002A9FFF795FF029B30BBDAB2B0
:1096FC000AEB8202D16803919A1C0133DBB20AEBAC
:10970C0083030292D3F80CB001F00303012B22D097
:10971C00022B15D08346404601F0DCF810B1029BB9
:10972C00CAF808305946384601F0B9F8DAF808306A
:10973C00DAF8042003F580739B1AA5E7D8B2CEE7BC
:10974C00BDF80E30C3F3891303334FEA1B4B02EB06
:10975C0093030293DFE7BDF80C30C3F383134FEA96
:10976C001B4B1344F5E7A40544F0060098E700BF33
:10977C00D8120020064B074810B500221A7001F0D1
:10978C0018FB044610B9044801F0A4FB204610BD98
:10979C00D8120020CCDC0100E8DD010030B50A4C09
:1097AC0071B10A4A0A49121BD20800239A4201D10C
:1097BC00002030BD31F82350854202D00133F5E74B
:1097CC00034654F83300F4E7E0DC010050DD0100FF
:1097DC0018110020094B013903EBC000032909D8EB
:1097EC00DFE801F00A020406042070470079704794
:1097FC00407970470020704702207047E0DC010080
:10980C00034BD3E90130C31A58425841704700BF8B
:10981C00D81200202DE9F04186B0FFF7F1FF054684
:10982C00002840F0ED80774CC4F81804BFF34F8F3C
:10983C00A3680293DBB2033304EB830002A9FFF7A6
:10984C00E9FE029B18B1D4F81824002A5AD0DAB2D7
:10985C00991C013304EB8202DBB204EB8303D26864
:10986C00DB68049302F00303022B0392029154D1A0
:10987C00BDF80E306448C3F38917502F3E4628BFFD
:10988C00502606F1080166F38F13C1F30901ADF8F8
:10989C000E3001F0A6FA0546002800F09C8001F07D
:1098AC00CFFA0023082203A9284601F0DBFA02991B
:1098BC00CB43DBB20133C9B20331B6EB830F4FEAB2
:1098CC00830204EB810125D95FFA82F80823A6EB09
:1098DC000806284601F0C6FAF6B208F108034B490F
:1098EC0003F0FC033246284601F0BCFA029B033716
:1098FC0003EB97070297D4F81834002B43D1D4F814
:10990C00106453E062689A4294D8A260284606B06C
:10991C00BDE8F08108233246E5E7012B5BD1BDF8A9
:10992C000C303948C3F38311062928BF062161F393
:10993C008913023101F00F018900ADF80C3001F0F0
:10994C0050FA0546002846D001F07AFA0023082286
:10995C0003A9284601F086FA0026BDF80C20C2F3B4
:10996C008312B300964203F10803C4D202994A1C35
:10997C00C9B20331029204EB81010422284601F0A2
:10998C0071FA0136E9E7284601F05EFAFFF738FF75
:10999C0080F00105EDB2B9E7F3685B7923B1336868
:1099AC0029461B6830469847F3681E68002EF3D191
:1099BC00284601F049FA0DF107008DF8076000F018
:1099CC004DFDD4F818340BB9029BA3609DF8070029
:1099DC0000F068FDDAE7D4F8104454B90C4B0D488C
:1099EC000D49C01AC008000440F0020000F05CF8F9
:1099FC00CCE7236820469B689847E3681C68ECE733
:109A0C00002583E7D8120020CCDC0100E4120020F2
:109A1C00E0DC010008DD0100D1DD01002DE9F34798
:109A2C0004460E46924601A9012218469946FFF7B4
:109A3C000DFE1B4F10B3019D4FF00008AA1CC8452A
:109A4C0008EB020123D11748002100F005FF80F339
:109A5C001000000440EA1440E4006B1C04F03804CD
:109A6C00DBB2EDB244F0010407EB8303033544EAA7
:109A7C00881444EA8624D86047F825403B781BB10B
:109A8C00FFF7C8FE0028FBD102B0BDE8F087C9B2D1
:109A9C0007EB81015AF82830CB6008F10108CEE7BA
:109AAC00D8120020F416002000231A46FFF7B6BF88
:109ABC0007B50123019201AAFFF7B0FF03B05DF8CF
:109ACC0004FB07B5CDE9002302236A46FFF7A6FF86
:109ADC0003B05DF804FB000030B50F4CD4F8102433
:109AEC0003460020114631B9D96808714AB9C4F847
:109AFC0010340A6030BDC9680D79854206D00968FA
:109B0C00F1E7D26814680C601360F3E701300A289F
:109B1C00E8D14FF0FF30EDE7D812002038B5084BF4
:109B2C000125D3F810441D7004B938BDE3685D718C
:109B3C00236820465B689847E3681C68F4E700BF1D
:109B4C00D8120020C38873B504460D4633B1144AAD
:109B5C0000921449144A284600F01FFF217A052967
:109B6C001CD0637A4BB1A088FFF734FE0F4B104921
:109B7C0053F82020284600F010FF227A0D4BA088C5
:109B8C0053F822600021FFF709FE0B4903463246C9
:109B9C00284602B0BDE8704000F0FFBE02B070BDB8
:109BAC0014DE0100FCDD0100F4DD010080DE0100AB
:109BBC0019DE0100A4DE01001CDE010010B5037AE1
:109BCC00052B0C460FD0437A23B1084A084920468E
:109BDC0000F0E3FE0749204600F0DFFE2046BDE81A
:109BEC00104000F0CFBE002AF8D0F3E714DE0100DD
:109BFC0019DE010011DE01002DE9F04385B01F468E
:109C0C000C9D002395F80C902B7306460C46904641
:109C1C0029463846FFF796FFB8F1060F09D8DFE85A
:109C2C0008F00412181F283340003146284600F073
:109C3C00B4FE002229463846FFF7C0FF85F80C9089
:109C4C0005B0BDE8F08322683146284600F0A5FE39
:109C5C00EFE7D4E900233146284600F09EFEE8E702
:109C6C00A36800933146D4E90023284600F095FE02
:109C7C00DFE7E3680193A36800933146D4E900233E
:109C8C00284600F08AFED4E723690293E368019327
:109C9C00A36800933146D4E90023284600F07DFEEA
:109CAC00C7E76369039323690293E3680193A3688D
:109CBC0000933146D4E90023284600F06EFEB8E745
:109CCC0008292DE9F74F80460E4617461C463DD80D
:109CDC0000251B7B2573214610460193FFF732FFAD
:109CEC00DFF888A0DFF888B0AE4232D918F805202A
:109CFC005946204600F051FE0135082DF4D11D497E
:109D0C00DFF874A0DFF874B0204600F046FE4FF088
:109D1C0000094E4524D918F809507E2D1ED8284626
:109D2C0003F0CEFB002814BF2A462E2259462046AB
:109D3C0000F033FE09F10109B9F1080FE9D1012254
:109D4C0021463846FFF73AFF019B237303B0BDE869
:109D5C00F08F5146204600F020FECDE72E22E5E79D
:109D6C005146204600F019FEE4E700BF2CDE01004E
:109D7C0026DE010030DE01002EDE010032DE0100A5
:109D8C00C30710B507D4F023054A4008145C2340E0
:109D9C001943115410BD0901C9B20F23F4E700BFD8
:109DAC00C017002030B5094B1C78094B02461968C6
:109DBC0000239C4201DC002030BD11F83350954249
:109DCC0001EBC300F8D00133F3E700BF901700207C
:109DDC00D017002070B504460D46FFF7E3FF30B1F5
:109DEC00436823B129462046BDE87040184770BD32
:109DFC0008B50B4B0B4819680022490800F041FAD2
:109E0C00024658B10848094B09491B1ADB081B04C8
:109E1C0043F00200BDE80840FFF74ABE08BD00BF92
:109E2C009417002098170020E0DC010010DD0100E1
:109E3C00B8DE010010B5C0B2FFF7B4FF04460078DD
:109E4C0001F010FD63785A1E53425341834208D1EE
:109E5C00044BD3E90023134303D1BDE81040FFF7B3
:109E6C00C7BF10BDB817002037B54308374AD35CBD
:109E7C00C2074CBF1B0903F00F0304460D46042B0D
:109E8C0025D8DFE803F003262F3C4000F9B101216F
:109E9C00FFF776FF00230DF107008DF8073000F077
:109EAC00DDFA0120A4F12003C4F12001284A20FA94
:109EBC0001F100FA03F30B43A040D2E90041204327
:109ECC000B43C2E900039DF8070000F0EBFA03B066
:109EDC0030BD002918BF0221204603B0BDE8304038
:109EEC00FFF74EBF49B10321FFF74AFF012120467E
:109EFC0003B0BDE83040FFF76DBF0121ECE700294E
:109F0C00E5D10421E8E709B10321E5E7FFF738FFC4
:109F1C0029462046FFF75EFF0DF107008DF807502C
:109F2C0000F09CFA0120A4F12003C4F12001084A9E
:109F3C0020FA01F100FA03F30B43A040D2E90041EF
:109F4C0024EA000021EA0303BBE700BFC01700208E
:109F5C00B81700202DE9F041124E134F002433782E
:109F6C00A34208DC114BD3E90023134318D0BDE8FE
:109F7C00F041FFF73DBF3D6805EBC40815F8340010
:109F8C0001F070FC98F801305A1E53425341181AD4
:109F9C004142414115F83400FFF766FF0134DEE71A
:109FAC00BDE8F08190170020D0170020B8170020D2
:109FBC00092AF7B505460C4616463ED901F072FB48
:109FCC00E8B11F4B1F481D601F4B204F1C70204BCE
:109FDC00002110221E6003F0C0FA1E4B002000214D
:109FEC00C3E90001013CE4B20326FF2C0DD11A4A4F
:109FFC001A48002103B0BDE8F04000F037B901F079
:10A00C00F7FA0028DDD003B0F0BD9DF8063015F846
:10A01C0034008DF8046005EBC40223F007038DF8BF
:10A02C00063001A993788DF805303A4601F044FBCF
:10A03C00013CE4B20028D8D0E5E70720E3E700BFF5
:10A04C00D0170020C017002090170020419E01005F
:10A05C0094170020B8170020619F0100E8DE010072
:10A06C0070B5084D084E00242B789C4201D300207B
:10A07C0070BD3368012113F8340001F0ADFB0134DD
:10A08C00F2E700BF90170020D01700201FB5002169
:10A09C00039001AA44F20100CDE9011100F004F88B
:10A0AC0005B05DF804FB000038B572B6FFF736FD5D
:10A0BC00FFF7B0FB0028FBD1104B114C114D12498E
:10A0CC00E41AE408240444F00100FFF7EDFCD5F891
:10A0DC00F030DB0700D500BE0C4944F00200FFF75E
:10A0EC00E3FCBFF34F8FEA68094B02F4E0621343C1
:10A0FC00EB60BFF34F8F00BFFDE700BFE0DC01005A
:10A10C0008DD010000ED00E0ECDE0100F8DE0100EE
:10A11C000400FA0510B5D0E90243D1E90202A042CD
:10A12C0072EB03032CBF0120002010BD08B50A48B8
:10A13C0000F0E9FA094AD2E90031C018084BD3E91A
:10A14C00002341F10001904271EB030303D210F1A3
:10A15C00807041F1000108BD3C110020D81700208F
:10A16C005018002037B505460C460A4801A900F0E6
:10A17C00FEFA60B10570446001A9064800F021FBAD
:10A18C0018B1054800F0C4FA002003B030BD04201B
:10A19C00FBE700BF3C1800203C11002038B5184BE1
:10A1AC001B78044613B90025284638BD0028FAD080
:10A1BC00037F03F0FF05002BF5D0FFF7B7FFD4E9C1
:10A1CC000223904271EB030314D3236903B9237761
:10A1DC00D4E90530984721690029E4D0237F03F0A6
:10A1EC00FF05002BDFD0D4E902325B1842F10002EC
:10A1FC00C4E902320348214600F08BFED4E700BFCD
:10A20C00E017002014DF010013B5114B1149186839
:10A21C00019008231048582200F096FA044698B989
:10A22C000E4A0F4801A900F05FF9044660B90C48CA
:10A23C00012100F04BFA01230A4A0948194600F0A3
:10A24C00ADF9094B01221A70204602B010BD00BFB7
:10A25C0010DF0100E41700203C180020D9A20100F7
:10A26C003C110020FFFF7F00E01700203AB103688B
:10A27C005A614A1E51425141196100207047072012
:10A28C00704738B5037F04460D4683B98261FFF7EA
:10A29C004DFF2369281841F10001C4E9020103B103
:10A2AC00256121460020BDE83840FFF75BBF002048
:10A2BC0038BD0023014603770120FFF753BF000090
:10A2CC00014800F020BA00BF3C1100202DE9F347F3
:10A2DC00064600F003FA40B1584AD2E9003113F1B6
:10A2EC00807341F10001C2E900310021304600F0D9
:10A2FC0004FA38B1524C236823B12068FFF74EFFA3
:10A30C00002323600121304600F0F7F920B1FFF75C
:10A31C000DFF4C4BC3E900014B48494D4B4C4C4F86
:10A32C0001A900F05EFA002842D1DFF82081444CEC
:10A33C00DFF82091404600F002FE2368002872D01E
:10A34C007BB12368D0E90252D3E902138D4272EB40
:10A35C0003032AD223681B7F1BB12168404600F0FF
:10A36C00D8FD404600F0E5FDD0E9027A0546FFF73E
:10A37C00DDFE3F1A6AEB010A012F7AF1000345DB7F
:10A38C00B7F5350F40D3FFF79BFF334A02444FF428
:10A39C0096030021484600F021F900283ED123689D
:10A3AC0013B9304600F0F2F8256002B0BDE8F08732
:10A3BC000378012B1DD0022B09D14FF00008204649
:10A3CC0000F0B7FD002836D080F81C80F7E73BB9C9
:10A3DC0041680B7F23B901230B77204600F099FDD0
:10A3EC0001A9194800F028FA01A9174800F0F9F959
:10A3FC0099E741682B68994202D100232B60EFE763
:10A40C00204600F09FFDEBE7AA68C0E70021484614
:10A41C0000F069F92846FFF7C1FE01E00D28F9D0DC
:10A42C000023236086E7002BBFD1304602B0BDE885
:10A43C00F04700F0AFB801233B70D1E7D8170020EC
:10A44C0058180020501800203C18002014DF010080
:10A45C00E01700203C110020FFFFB40070B5EFF3B3
:10A46C00108672B60C4A946801239CB993600B4B0E
:10A47C000B4DD3F8801029401160C3F88050D3F8ED
:10A48C00841051604FF0FF32C3F88420047006B979
:10A49C0062B670BD0370FAE75C18002000E100E0C2
:10A4AC00FC06FFBD084B9A6810B55AB150B9EFF3D2
:10A4BC00108172B6054A1C6814605C685460986020
:10A4CC0001B962B610BD00BF5C18002000E100E0CD
:10A4DC000346405882B028B100225A505B58019371
:10A4EC00019B012002B07047F8B5204B4479204EF7
:10A4FC0043F824201F4A204B06EBC4049B1A2279F4
:10A50C00DB081B0432B143F002001C49FFF7CCFA04
:10A51C000820F8BD02680C88C2F8084590F9045070
:10A52C008A7804795201002DD2B219DB14494F19E3
:10A53C0087F8002301226D0904F01F0402FA04F4C9
:10A54C0041F82540427906EBC201012446F832005D
:10A55C000C7143F003000B49FFF7A6FA0020D8E773
:10A56C00094904F00F040A55ECE700BF70180020ED
:10A57C0068180020E0DC010018DD010020DF01007C
:10A58C0000E100E042DF010014ED00E0036801226D
:10A59C001A607047036801225A60704773B501F165
:10A5AC005005AD000068ADB24FF480348C400026ED
:10A5BC00C0F80843C0F84843465101F5A871455905
:10A5CC00019522F07F42019D40F82120C0F84443C0
:10A5DC000BB1C0F8044302B070BD00002DE9F74F79
:10A5EC000D4622F07F4402684FF4803705F1500687
:10A5FC008F408046B60002EB8500C2F84873B6B2B5
:10A60C00C2F80873D2F8041599464FF0000BD0F835
:10A61C004035C0F8401542F806B05B1A92590092CA
:10A62C0023F07F43012B009A4FEA850A0CD1264B6D
:10A63C004FF4806043F001039847D8F8003043F89A
:10A64C0006B09B590193019BD8F80010D1F8046512
:10A65C00C1F84473A31B23F07F43012B1CD11A4B6D
:10A66C0005F5A875013443F0010341F825404FF47A
:10A67C0080609847D8F80030D3F804359E4209D151
:10A68C00D8F800300020C3F84473C3F8047303B047
:10A69C00BDE8F08F0D20FAE78A44C9F1FF13CAF820
:10A6AC004045D1F80405221A013A22F07F4203F505
:10A6BC007F439342EED3002AE2D10134CAF84045DD
:10A6CC00D1F804359842DAE760DF01000368022212
:10A6DC00C3F8442309B1C3F80423704700684FF44E
:10A6EC008271FFF7F5BE4FF4803303FA01F1036872
:10A6FC00C3F84813C3F80813704750318900006839
:10A70C0089B2FFF7E5BE0368D3F804057047000073
:10A71C0090F90430002B09DB5A09012103F01F03C7
:10A72C0001FA03F34032024941F82230704700BF6E
:10A73C0000E100E0024B034A1B681068184700BF99
:10A74C00701800206818002030B5054659B1B2FBCE
:10A75C00F3F403FB1424A0B238B9C5E90010A860C7
:10A76C00AA81EB8130BD0E20FCE70920FAE737B552
:10A77C0050E8013F9DB2C48925448489A54228BF75
:10A78C002D1B0489A54202BFBFF32F8F002207E0C7
:10A79C00C5EA030540E80154002CE9D14FF0010251
:10A7AC008DF803200193019A0A609DF8031001F0C3
:10A7BC00FF0321B1006810FA82F003B030BD1846D7
:10A7CC00FBE70A884B889A4209D150E8012FC2EA6C
:10A7DC00024240E80123002BF7D1012070470020F2
:10A7EC00704737B550E8023F1FFAA3F5C488A5425D
:10A7FC0002BFBFF32F8F00220DE0C489254484894A
:10A80C00A54228BF2D1BC3EA054540E80254002C85
:10A81C00E8D14FF001028DF803200193019A0A60F0
:10A82C009DF8031001F0FF0321B1006800EB12400A
:10A83C0003B030BD1846FBE70A884B889A4209D111
:10A84C0050E8022FC2EA224240E80223002BF7D143
:10A85C00012070470020704710B5034653E8000FE5
:10A86C000A4643E8002494F0000FF7D110BD10B550
:10A87C00034653E8002F42EA010043E8000494F039
:10A88C00000FF6D110BD10B5034653E8000F00EAD7
:10A89C00010243E8002494F0000FF6D110BD10B56E
:10A8AC00034653E8002F02EB010043E8000494F048
:10A8BC00000FF6D110BD10B5034653E8002FA2EBE4
:10A8CC00010043E8000494F0000FF6D110BD012103
:10A8DC00FFF7CDBF0021FFF7D6BF10B590B1D0E97F
:10A8EC00012301689B1ADBB20A60013BDBB2FF2B30
:10A8FC00026802D10020107110BD11684C1C14604C
:10A90C000B70F2E70E20F7E737B5054600240DF182
:10A91C0007008DF80740FFF7A1FD2A686B681168E6
:10A92C0099420ED9481E106011F8013CEC68298A36
:10A93C0001FB0344AB6811791B1ADBB2994238BF97
:10A94C0013719DF80700FFF7ADFD204603B030BD35
:10A95C0037B5054600230DF107000C468DF807307E
:10A96C00FFF77CFD2A681368591C1160E968641AAA
:10A97C00298AB4FBF1F41C709DF80700FFF792FDD7
:10A98C0003B030BD826810B504462AB14369016832
:10A99C00006998470023A36010BD0EB403B503995A
:10A9AC0021B104AB01AA019300F076F802B05DF876
:10A9BC0004EB03B070470A2938B504460D4602D1A2
:10A9CC000D21FFF7F8FFA3682268591CA160D5542C
:10A9DC00D4E901329A4204D32046BDE83840FFF74F
:10A9EC00D1BF38BD2DE9F84F9846DDE90A4315462D
:10A9FC0082460F460A464FF00109AA420FD2C145C2
:10AA0C0038BFC14613F0010B01D16CB900240126EB
:10AA1C00B8F1010F1BD908F1FF386E43F8E709F1C3
:10AA2C000109B2FBF5F2E8E79B070ED5B8F1000F70
:10AA3C000CBF30262026A145E9D2013C31465046B8
:10AA4C00FFF7B9FF002CF6D1E0E72026F3E7B7FBC0
:10AA5C00F6F39D42E1D9DFF83C80B7FBF6F35046A4
:10AA6C0018F8031006FB1377FFF7A5FF3346AB422C
:10AA7C00B6FBF5F6F1D2BBF1000F02D00CB1A1453B
:10AA8C0001D3BDE8F88F20215046013CFFF793FF1E
:10AA9C00F4E700BF66DF01002DE9F74F05461746C6
:10AAAC008846002900F03E8118F8011B49B92B7B20
:10AABC00002B00F03781284603B0BDE8F04FFFF7BC
:10AACC0061BF252940F0B780002698F800302D2B67
:10AADC00424608F1010823D0302B24D02B2B25D053
:10AAEC0000242A2B02F1010123D13B681A1D1B689B
:10AAFC003A601C440A4613782E2B26D101324FF0B3
:10AB0C00000A104610F8011BA1F1300CBCF1090F22
:10AB1C001DD80A2303FB0A13A3F1300A0246F0E7FF
:10AB2C0046F00106D1E746F00206CEE746F00406F1
:10AB3C00CBE711F8013CA3F130000928DBD80A223D
:10AB4C0002FB0434303C0A46CBE74FF0000A12F803
:10AB5C00011B01F0FB0068289046F8D0782909D831
:10AB6C006F290CD8632962D022D8252963D05829A3
:10AB7C0000F0888098F80030002B95D197E7703959
:10AB8C000829F7D801A353F821F000BF0BAD010041
:10AB9C0081AB010081AB0100A1AC010081AB0100D4
:10ABAC007FAC010081AB010081AB010091AC0100D5
:10ABBC00642901D06929DDD13A68D2F80090111DC1
:10ABCC0089EAE9723960A2EBE9724FF0010B092AAC
:10ABDC0035DCD34538BFD3462CB1B9F1000F01DBBE
:10ABEC00720700D5013CB30702D5BAF1000F03D0B0
:10ABFC00F00701D44CBB0024B9F1000F2DDAC9F1D8
:10AC0C0000092D212846FFF7D6FE06F00302022A82
:10AC1C0004D1BAF1000F01D11CBB0024CDE90046D0
:10AC2C0053460A2249462846FFF7DCFEA2E73B685A
:10AC3C001A1D19783A602846FFF7BDFE9AE70A23D9
:10AC4C000BF1010BB2FBF3F2C1E7A345D4D22021E7
:10AC5C002846013CFFF7AFFECCE77107D5D52B2179
:10AC6C00D0E7A345DAD230212846013CFFF7A3FEFA
:10AC7C00D2E73968CDE900460A1D3A6053460A22EC
:10AC8C000968D0E739680A1D3A60CDE90046534699
:10AC9C001022F5E73B681A1D3A6016F00106D3F84E
:10ACAC00009024D1B9F1000F03D0484602F0AAFC61
:10ACBC000646B4421DD809F1FF3919F8011F0029C5
:10ACCC003FF458AF2846FFF776FEF6E728460136E4
:10ACDC00FFF771FE19F806100029F7D1A642BFF450
:10ACEC0049AF20212846013CFFF765FEF6E7002618
:10ACFC00F0E720212846013CFFF75DFED9E73B68D1
:10AD0C001A1D3A60302128461C68FFF754FE782142
:10AD1C002846FFF750FE00220823CDE900322146D9
:10AD2C00102280E703B0BDE8F08F00BF2DE9F84F8B
:10AD3C00B0F806A04579D2F800B09DF828900AFB2F
:10AD4C0005F5043D88460BEB0301A94203F104040D
:10AD5C0088BFA5EB030BB4FBFAF607460AFB1644B7
:10AD6C00C2F800B04EB9AAEB04055D4528BF5D469C
:10AD7C00BBF1000F04D1BDE8F88F3F68013EF1E74D
:10AD8C00043408EB06003C442A46B9F1000F0DD000
:10AD9C002146ABEB050B02F0B7FBDA452E443F68BE
:10ADAC0055464FF0000428BF5D46E1E701462046BA
:10ADBC00EFE7FFF792BDF8B546790146721E0546DE
:10ADCC00002393422D6803D30024A64202D8F8BD79
:10ADDC000133F6E70F682846FFF7BAFD0134394610
:10ADEC00F3E72DE9F843068ACD1C0746FFF78CFDE7
:10ADFC00043E35440446B5FBF6F5F0B14FF48073D0
:10AE0C00EDB28380C680013D076081464FF000089B
:10AE1C00A84512D23846FFF777FD064648B163794C
:10AE2C000133637108F10108C9F80000076081461D
:10AE3C00EEE72046FFF7BFFF34462046BDE8F88317
:10AE4C0001210430FFF72BBD10B50121044604305D
:10AE5C00FFF731FDC0B220B92046BDE81040FFF726
:10AE6C00AABF10BD1FB503920022009203AAFFF7E0
:10AE7C005DFF05B05DF804FB1FB503920122009243
:10AE8C0003AAFFF753FF05B05DF804FB41DF7047E1
:10AE9C00064B10B500241C70054B1C60BFF35F8F74
:10AEAC000449054800F01FF8204610BD7C1800200E
:10AEBC008018002080DF01007418002008B502F013
:10AECC00B5F818B1BDE80840FFF7E0BF20BF40BFA0
:10AEDC0020BF08BD836800225A60C3E904229A602F
:10AEEC00DA601A6070470B684A684360934208BF87
:10AEFC000023016008BF43607047436843B1026898
:10AF0C00916852680B449342436004BF0023436032
:10AF1C00704770B5446806460D46206818B1B36892
:10AF2C002946984718B923682B60256070BD2468A2
:10AF3C00F3E74368186808B102681A607047436801
:10AF4C00186870474368186800B97047884203D185
:10AF5C0002681A600120704703460068F4E700009D
:10AF6C0010B50D49A1F59472914201D800200FE063
:10AF7C008C1AE30F03EBE4035B1002EBC30452F8EF
:10AF8C003330834205D802D204F10802ECE7606842
:10AF9C0010BD2146E8E700BF8CE4010008B5FFF7BF
:10AFAC00DFFF024B002808BF184608BD4FE3010025
:10AFBC004FF08053D3F83001A0F10F0358425841A1
:10AFCC007047000008B5FFF7F3FF48B14FF080530E
:10AFDC004FF08042D3F84432C3F34233C2F83C35CD
:10AFEC00FFF7E6FF40B14FF080430022C3F80C217D
:10AFFC00C3F81021C3F83825FFF7DAFF002846D034
:10B00C004FF080524C4BD2F80414C3F82015D2F8F0
:10B01C000814C3F82415D2F80C14C3F82815D2F868
:10B02C001014C3F82C15D2F81414C3F83015D2F838
:10B03C001814C3F83415D2F81C14C3F84015D2F800
:10B04C002014C3F84415D2F82414C3F84815D2F8C8
:10B05C002814C3F84C15D2F82C14C3F85015D2F898
:10B06C003014C3F85415D2F83414C3F86015D2F860
:10B07C003814C3F86415D2F83C14C3F86815D2F828
:10B08C004014C3F86C15D2F84424C3F87025FFF7AC
:10B09C008FFF48B14FF08043D3F80024D20744BF50
:10B0AC006FF00102C3F80024FFF782FF38B14FF0B4
:10B0BC008042D2F8E43E43F00F03C2F8E43E4FF076
:10B0CC001023D3F80022002A03DBD3F80432002B20
:10B0DC002EDA1A4B0122C3F80425D3F80024002AD7
:10B0EC00FBD04FF010221521C2F80012D3F8002427
:10B0FC00002AFBD04FF010231522C3F804220F4B6B
:10B10C00D3F80024002AFBD00022C3F80425D3F87E
:10B11C000024002AFBD0BFF34F8F0949094BCA68A2
:10B12C0002F4E0621343CB60BFF34F8F00BFFDE727
:10B13C00054B064A1A6008BD00C0004000E0014003
:10B14C0000ED00E00400FA05441100200090D0034B
:10B15C00054A4FF0A043105CD3F8043523FA00F0F5
:10B16C00C04300F0010070478CE40100044B1A5CF2
:10B17C00012393404FF0A042C2F80C35704700BF3A
:10B18C008CE40100044B1A5C012393404FF0A04265
:10B19C00C2F80835704700BF8CE4010008B50020E8
:10B1AC00FFF7F0FFBDE808400120FFF7EBBF08B543
:10B1BC000020FFF7DBFFBDE808400120FFF7D6BFFA
:10B1CC00074A4FF0A041105CD1F8043501228240AF
:10B1DC0022EA03001340C1F80805C1F80C3570478A
:10B1EC008CE401000C2809D00B2809D0092809D0BF
:10B1FC000D280CBF03204FF0FF3070470020704724
:10B20C000120704702207047C20708B5014608D5D7
:10B21C004FF0A0430322C3F80C27C3F81027FFF705
:10B22C00BDFF8B070AD54FF0A0430C22C3F8302783
:10B23C00C3F82C27C3F82427C3F8342708BD000013
:10B24C0038B5074C051E04F1080318BF1C462368CB
:10B25C002BB11A6822605B6828469847F7E738BD1F
:10B26C008C18002020B9054B01225A70FFF7E8BF5B
:10B27C00012802D1014A9070F8E770478418002029
:10B28C0020B9034B01225A70FFF7DABF704700BF99
:10B29C008418002038B5154C23782BBB14486360F8
:10B2AC00A3602361E36000F0FDF8054601F0BEFEEB
:10B2BC0008B900F01BF9012323700E4BD3F80034AE
:10B2CC000BB10123A3702846FFF768FE0A4C0B4A0A
:10B2DC000B4903460B48241AE408240444F00300E9
:10B2EC00FEF7EFFB284638BD8525E6E784180020DD
:10B2FC0071B201000000014020DD0100B2E4010048
:10B30C008EE40100E0DC010037B50D4C00230DF19B
:10B31C0007008DF80730FFF7A1F8E368013BE36005
:10B32C00E36833B9074BD3F8005415B900F0FEF8B5
:10B33C00A5709DF80700FFF7B5F803B030BD00BF4E
:10B34C008418002000000140012813B50CD00328FC
:10B35C0020D038B9134B0122C3F88020BFF34F8F94
:10B36C00BFF36F8F02B010BD0F4C00230DF107001F
:10B37C008DF80730FFF772F823780BB9FFF78AFFC7
:10B38C00E3689DF807000133E3600123A370FFF726
:10B39C0089F8E7E700F0AAF802B0BDE81040FFF723
:10B3AC00B3BF00BF00E100E0841800201FB5037894
:10B3BC008DF800304368019383688DF80830C368BA
:10B3CC00054A0393054B684653F8213052F8211077
:10B3DC00984705B05DF804FB981800209C180020D5
:10B3EC001FB503788DF800304368019383688DF89E
:10B3FC000830C368054A0393054B684653F821305F
:10B40C0052F82110984705B05DF804FB98180020FD
:10B41C009C180020F0B5194B90F800C091F81DE075
:10B42C0043F82C20164B16460A6943F82C20154B72
:10B43C0003F80CE00C4607460FCC89B06D460FC5DF
:10B44C0094E80F0085E80F00CDF810C0BEF1000F96
:10B45C0009D0002E0C4A694608BF3246381D00F050
:10B46C0003FE09B0F0BD002E084A694608BF3246FB
:10B47C0007F10C0000F0DAFBF3E700BF9C1800208A
:10B48C0098180020A0180020B9B30100EDB30100FA
:10B49C0000F18040002382B0036003680193019B9C
:10B4AC0002B0704738B50C4B1D799DB9012218605C
:10B4BC001A712846FFF772FD084C094A09490346E0
:10B4CC000948241AE408240444F00300FEF7F9FAAE
:10B4DC00284638BD8525ECE7A4180020E0DC0100E7
:10B4EC00DBE401008EE40100E0DC01000B4B1A6888
:10B4FC00D20704D4C02283F8002301221A604FF033
:10B50C00804301220648C3F81825064B0649C01A89
:10B51C00C008000440F00300FEF7C6BA00E100E0EA
:10B52C00E0DC0100E0DC0100C5E401004FF08042EA
:10B53C0008B50223C2F808334FF48270FFF7A8FF56
:10B54C000123D360D2F81834DB03FBD408BD000010
:10B55C004FF0804210B5D2F8003153B14FF48070E7
:10B56C00FFF796FF0123C2F808330B4B00201B6832
:10B57C0098474FF08042D2F8043163B14FF4827097
:10B58C00FFF786FF0223C2F80833034BBDE81040D7
:10B59C001B680120184710BDA418002000F1804042
:10B5AC0000F5C040002382B0036003680193019B47
:10B5BC0002B07047800000F1A040D0F8002722F4C0
:10B5CC004032C0F80027D0F8003743EA0143C0F8F6
:10B5DC0000377047054B4FF0FF32072843F8202007
:10B5EC0084BFC01880F84820704700BFAC180020FA
:10B5FC0038B52549254B264CE41A91F85830E40807
:10B60C0024045BB10820FFF7C9FC224A22490346F7
:10B61C0044F00200FEF755FA082038BD4FF0FF3217
:10B62C0022FA03F0C00748BFC81803F1010348BF52
:10B63C0080F83020202BF3D10025E8B20135FFF73C
:10B64C00C9FF0C2DF9D1154B0025C0224D6583F88F
:10B65C00062340221A604FF4BE70FFF79FFF104B79
:10B66C004FF00042C3F804232846012381F85830D8
:10B67C00FFF794FC074A0849034644F00300FEF721
:10B68C0020FA2846C9E700BFAC180020E0DC010016
:10B69C00E8DC010006E501008EE4010000E100E0B9
:10B6AC0000600040034B93F85800003818BF01208D
:10B6BC00704700BFAC180020F8B5414F3B1893F908
:10B6CC003030002B79DA8C78C4F34004002C0BBF9B
:10B6DC00082300230C250825AB4211D10424204655
:10B6EC00FFF75CFC374D384A3849034638482D1A69
:10B6FC00ED082D0445F00300FEF7E3F92046F8BDF4
:10B70C0057F82360013643D13E185DB247F8232029
:10B71C0086F8305014B9FA1882F848008A78540721
:10B72C0016D4D60736D5820002F1A042D2F80047D3
:10B73C0024F00204C2F80047264EC40800F0070C9F
:10B74C00012202FA0CF216F804C042EA0C0232553D
:10B75C008C780E7814F0020425D09B0003F1804302
:10B76C0003F5C0430002D3F8102522F4473222F42B
:10B77C004072C3F810253604D3F8102500F4F850A5
:10B78C0006F4403630431043C3F810050024A6E7F6
:10B79C000133A1E74C7800F5E0724FF0A046A4000D
:10B7AC0046F82240C8E7083D47FA85F595F8500061
:10B7BC0040EA861685F8506091E708248FE700BFB1
:10B7CC00AC180020E8DC0100F2E401008EE401007A
:10B7DC00E0DC01000019002038B5204C251895F943
:10B7EC003020072A18DD083A44FA82F494F85030D5
:10B7FC009B09032B0BD14FF0A043D3F81015C1407C
:10B80C0001F001010231BDE83840FFF7D3BE012B36
:10B81C000CBF02210321F6E7D3B2072B1DD89300EE
:10B82C0003F1804303F5C043D3F8100540F0010049
:10B83C00C3F8100502F1400040B2800080B2FFF75F
:10B84C00ADFE51B195F9303054F823302BB10123B2
:10B85C0003FA02F2024BC3F8042338BDAC180020E3
:10B86C00006000404FF0A043D3F8103523FA00F0ED
:10B87C0000F00100704700002DE9F74F00244E4DF9
:10B88C0001944FF48072012102F1804303F5C0430F
:10B89C0090B21B68012B06D1D5F804330B4202D0B1
:10B8AC00FFF77CFE0C430432B2F5907F4FEA410166
:10B8BC00EAD1414BD3F87C31012B0CD14FF4BE7043
:10B8CC00FFF76CFE4FF0A04344F00044D3F8202562
:10B8DC000192C3F82025E3B2D3B1384F00250126DD
:10B8EC00344210D0AB0003F1804303F5C043D3F8CE
:10B8FC001005D3F8101557F8253023B1C1F30141C9
:10B90C00C0F3042098470135082D4FEA4606E7D1CD
:10B91C00002C48DA294D4FF0A048294E4FF0000971
:10B92C00012716F9013B5A1C31D0C3F3C20208326D
:10B93C006A44DCB212F8042C03F03F0A03F007034C
:10B94C0007FA03F31A4222D00AF5E073504658F86E
:10B95C002330C3F3014BBBF1020F0CBF03210221B7
:10B96C00FFF728FE07FA0AF3C8F8203505EB0A039F
:10B97C0093F9303055F823304BB1A109032904D089
:10B98C00BBF1020F12D1012901D15046984709F1A0
:10B99C000109B9F1040FC4D1D8F820350193C8F8C6
:10B9AC002035002BB9D103B0BDE8F08FBBF1030FEC
:10B9BC00EDD10229E8E700BF00600040AC18002080
:10B9CC00FC180020014B1B68184700BF0819002009
:10B9DC001B4B9842F7B51B4C1B4D0E4621D1002337
:10B9EC000DF107008DF80730FEF738FD174B1F7966
:10B9FC0017B901221E601A719DF80700FEF752FD5F
:10BA0C007FB11120FFF7CAFA641BE4082404034633
:10BA1C000F4A104944F00200FEF753F8112003B00E
:10BA2C00F0BD0020FFF7BAFA641BE40824040346B7
:10BA3C00074A084944F00300FEF743F80020EEE7FC
:10BA4C0000200040F0DC0100E0DC010008190020BF
:10BA5C001BE501008EE40100034B984201BF034B30
:10BA6C0000221A601A71704700200040081900204B
:10BA7C000023435082B043580193019B02B070479E
:10BA8C000A4610B54FF48E71FFF7F2FF136A9168F6
:10BA9C00C95C136A01331362C0F81C1510BD8B69A5
:10BAAC000A4610B54FF4847123B9FFF7E1FFD0F8C3
:10BABC00183510BDFFF7DCFF536AD168D0F81805B4
:10BACC00C854536A01335362F3E700001FB50123D6
:10BADC008DF80030044BCDE90110D3E90012684613
:10BAEC00904705B05DF804FB1019002030B54D4DA2
:10BAFC00D5F804339A0585B051D5D5F82431002BEF
:10BB0C004DD04FF492712846FFF7B2FF4FF40173FA
:10BB1C00C5F80833444B93F829200AB901226A600E
:10BB2C00404902228DF80020D1F88024C1F88024ED
:10BB3C0003929A690292DA6801920022C3E9062202
:10BB4C006846D3E9001290473648D0F81C315BB1F7
:10BB5C00354A5169136A99424DD992F82830002B15
:10BB6C0049D11146FFF78CFF2E48D0F84431002BF9
:10BB7C0056D04FF4A271FFF77BFF2B4B93F8292083
:10BB8C000AB1012202609A69002A49D0586AD96820
:10BB9C0000229A6105B0BDE83040FFF797BFD5F899
:10BBAC0004335B07D0D5D5F80831002BCCD01E4C14
:10BBBC001C482146FFF773FF636AA2699A42C3D1FE
:10BBCC00E369E1684BB1A3612369E3600023606A18
:10BBDC00E3616362FFF77AFFB6E794F829300BB99B
:10BBEC0001236B600F4B4FF40172C3F80823002341
:10BBFC00606AA361EEE70B484FF48E71FFF738FFD4
:10BC0C005369002BB0D051690291002391688DF8D3
:10BC1C000030019153616846D2E900139847A3E7BD
:10BC2C0005B030BD00200040101900202DE9F8436C
:10BC3C00534D90F804802C2303FB0853064693F8CD
:10BC4C002A300C469146002B40F096804D490068F6
:10BC5C00FFF7BEFE0746002840F09080226830684F
:10BC6C00511C0BD04FF0A04101239340C1F8083573
:10BC7C0002F5E0734FF0030C41F823C061684B1CD4
:10BC8C001FBF01F5E0734FF0A04C4FF0000E4CF8C5
:10BC9C0023E0A369C0F8243594F814C0637DBCF18B
:10BCAC00010F4CEA0303C0F86C35C0F81415C0F84A
:10BCBC000C251DD1A268531C1FBF02F5E0734FF079
:10BCCC00A0414FF0000C41F823C0E368591C0BD085
:10BCDC004FF0A04C01219940CCF8081503F5E07108
:10BCEC004FF0030E4CF821E0C0F80835C0F81025D1
:10BCFC002C2202FB08F2AB18C3F804902369AB505A
:10BD0C00B9F1000F20D04FF48E71247FFFF7B0FEF5
:10BD1C004FF4A2713068FFF7ABFE32681A4BC2F8D1
:10BD2C000433130B42F307326101002AC9B21EDB44
:10BD3C001648841884F800130121520903F01F03DC
:10BD4C0001FA03F340F8223033680422C3F80025CB
:10BD5C002C2303FB08530022C3E9062283F8292075
:10BD6C005A61012283F82A203846BDE8F883084A34
:10BD7C0003F00F03D154E7E70827F5E71127F3E7A2
:10BD8C0010190020F9BA01008000020000E100E067
:10BD9C0014ED00E0F8B503680579304C0022C3F8C7
:10BDAC0000252C2202FB05425268A2B12C4AC3F892
:10BDBC0008231A0B43F30733002B0CDB02F01F0193
:10BDCC005B0901228A402033264941F82320BFF326
:10BDDC004F8FBFF36F8F0068D0F80C65D0F8141537
:10BDEC00D0F80835D0F810254FF0FF37BE42C0F818
:10BDFC00147518BF06F5E076C0F80C75C0F8087518
:10BE0C00C0F810751EBF4FF0A0474FF0020C47F85A
:10BE1C0026C04E1C1FBF4FF0A04601F5E071022753
:10BE2C0046F82170511C1FBF4FF0A04102F5E07283
:10BE3C00022641F822605A1C1FBF03F5E0734FF035
:10BE4C00A042022142F82310FFF706FE2C2303FB2D
:10BE5C000544002384F82A306360F8BD10190020D3
:10BE6C008402020000E100E00279044B2C2101FB6A
:10BE7C0002335869003818BF012070471019002090
:10BE8C002DE9F84F064690F8048089469246FFF754
:10BE9C00EBFF044600283CD1204F2C2508FB057BEA
:10BEAC004FF48E71CBF814A0CBF80890CBF820008F
:10BEBC008BF828003068FFF7DBFD306801238360C6
:10BECC005946FFF7DDFDDBF804305D461BBB3068DF
:10BEDC00DBF814402B6A9C4211D83368D3F81C2130
:10BEEC00002AFBD00122DA6000202C2303FB087708
:10BEFC0000237B61BDE8F88F95F828303BB9D0F86A
:10BF0C001C31002BF8D05946FFF7BAFDE2E70F20A1
:10BF1C00EBE71120EEE72046ECE700BF10190020FC
:10BF2C000023435082B043580193019B02B07047E9
:10BF3C001FB501238DF80030044BCDE90110D3E976
:10BF4C0000126846904705B05DF804FB3C190020D0
:10BF5C007FB5434AD2F82461002E60D010464FF4CE
:10BF6C009271FFF7DDFF02238DF80030D2F8803498
:10BF7C00C2F880340393D2F83C350293394BDA681B
:10BF8C0001920022C3E906226846D3E900129047C9
:10BF9C003348D0F8443173B14FF4A271FFF7C0FFAE
:10BFAC00304B9A693AB10022C3E90622D968D0F81D
:10BFBC003C05FFF7BDFF2A48D0F82031ABB14FF458
:10BFCC009071FFF7ADFF0123C360264B5A6962B134
:10BFDC00D0F84C150291002299688DF8002001913F
:10BFEC005A616846D3E9001290471D48D0F8583181
:10BFFC009BB14FF4AC71FFF793FF1A4B5A6962B1C6
:10C00C00D0F84C150291002299688DF8002001910E
:10C01C005A616846D3E90012904704B070BDD2F85B
:10C02C001031002BB4D04FF488711046FFF778FF15
:10C03C000C4BD2F83C0599698842A9D1DC69D968C6
:10C04C0064B1D2F8005225F02005C2F800521A69EA
:10C05C009C61DA60DE61FFF76BFF99E79C61FAE7A0
:10C06C00002000403C1900202DE9F8435A4E90F86E
:10C07C000480242303FB0863044693F820300D4608
:10C08C009146002B40F0A38054490068FFF7A0FCB8
:10C09C000746002840F09D802A682068511C0BD070
:10C0AC004FF0A04101239340C1F8083502F5E0732D
:10C0BC004FF0030C41F823C069684B1C1FBF01F5FE
:10C0CC00E0734FF0A04C4FF0000E4CF823E0AB693E
:10C0DC00C0F8243595F814C06B7DBCF1010F4CEA07
:10C0EC000303C0F86C35C0F80C25C0F814151DD12D
:10C0FC00AA68531C1FBF02F5E0734FF0A0414FF02C
:10C10C00000C41F823C0EB68591C0BD04FF0A04C2D
:10C11C0001219940CCF8081503F5E0714FF0030E9E
:10C12C004CF821E0C0F80835C0F81025242202FB99
:10C13C0008F2B318C3F804902B69B350B9F1000F8F
:10C14C002FD04FF488712A7FFFF7EAFE20684FF456
:10C15C009071FFF7E5FE20684FF49271FFF7E0FE57
:10C16C0020684FF4A271FFF7DBFE4FF4AC7120682E
:10C17C00FFF7D6FE23681A49C3F80413190B43F3CF
:10C18C0007335201002BD2B21CDB1648C51885F8B8
:10C19C00002301225B0901F01F0102FA01F140F8B2
:10C1AC00231023680822C3F80025242303FB086608
:10C1BC000023C6E906337361012386F82030384624
:10C1CC00BDE8F883084B01F00F015A54E9E7082742
:10C1DC00F5E71127F3E700BF3C1900205DBF010014
:10C1EC001003420000E100E014ED00E0F8B5444C0F
:10C1FC000579242303FB054302465B680068ABB159
:10C20C00404BC0F8083340F30733002B4FEA103192
:10C21C000CDB01F01F065B090121B14020333A4EC3
:10C22C0046F82310BFF34F8FBFF36F8FD0F8003257
:10C23C0023F02003C0F80032242303FB05439B6941
:10C24C002BB14FF4A271FFF76BFE012343604FF447
:10C25C00AC71FFF765FE0123C360242303FB054388
:10C26C00D0F858110029FBD0996919B1D0F84411B4
:10C27C000029F5D00023C0F800351368D3F80C75ED
:10C28C00D3F81465D3F80825D3F810154FF0FF3CFC
:10C29C006745C3F80CC518BF07F5E077C3F814C59C
:10C2AC00C3F808C5C3F810C51EBF4FF0A0434FF02C
:10C2BC00020C43F827C0771C1FBF4FF0A04306F5B4
:10C2CC00E076022743F826704E1C1FBF01F5E07183
:10C2DC004FF0A043022643F82160531C1FBF4FF0C0
:10C2EC00A04302F5E072022143F82210FFF7B4FBE1
:10C2FC00242303FB0544002384F820306360F8BD3D
:10C30C003C1900201003420000E100E00279044BCC
:10C31C00242101FB02335869003818BF01207047F3
:10C32C003C19002001F06043B3F1005F2DE9F047A8
:10C33C000646884692463BD190F80490FFF7E6FFFC
:10C34C000446002836D11D4F3068242505FB09759D
:10C35C004FF49071C5F814A0C5F80880FFF7E0FD04
:10C36C004FF4AC713068FFF7DBFD33686A69A9687C
:10C37C00C3F84415C3F8482501229A606A68DAB9F3
:10C38C00D3F82021D3F858011AB90028F8D00F207F
:10C39C0007E00028FBD10122DA60D3F85821002AEB
:10C3AC00FBD0242303FB097700237B61BDE8F087D6
:10C3BC001020FBE71120F9E72046F7E73C19002095
:10C3CC000220FEF7FDBE00002DE9F04780460D4629
:10C3DC00FEF708FF0328044610D8012D10D0022DBB
:10C3EC0030D05DB91A48FDF764FF1A4B04EB4402D8
:10C3FC0013449D78184B1B5DAB4219D0BDE8F087F8
:10C40C00144E00EB4003F218F55C5378470053B11F
:10C41C00DFF848900E484A464FF48041FDF731FF53
:10C42C0008B989F8008027443E440B4BB2781A5562
:10C43C00002DE3D00A4B1B68002BDFD02846BDE84B
:10C44C00F047184700EB4004024804446578EFE7D6
:10C45C0088190020C8190020E1190020601900205B
:10C46C00DC19002000780221FFF7AEBF08B5074B9E
:10C47C001B783BB10020FEF785FEBDE8084001208B
:10C48C00FEF780BEBDE80840FEF788BE61190020AB
:10C49C00F8B57A4C237805461BB100232370FFF7BF
:10C4AC00E5FF172D00F28780DFE805F00C17174227
:10C4BC005364757F878C878C949999999999C3C883
:10C4CC00D0D8E3E3FFF7D2FF6D48FDF7F2FE6D4BDA
:10C4DC00002204461A702046F8BD0020FEF738FEF4
:10C4EC00F0B10020FEF74EFE022D0CBF4FF4E164BC
:10C4FC004FF47A64634B1D7000254FF400464FF4E3
:10C50C007A7029464FF4FA620023E4FB060100F02E
:10C51C00E1FE2A460146BDE8F8405948FDF7B1BE98
:10C52C00FEF724FE022D0CBFC8244FF4C874E1E7BB
:10C53C000020FEF70DFE40B10020FEF723FE4FF465
:10C54C004874504B03221A70D6E7FEF70FFEC8242E
:10C55C00F7E70020FEF7FCFD38B10020FEF712FED5
:10C56C004FF47A64474B0422EDE7FEF7FFFD4FF4DE
:10C57C00C874F7E70020FEF7EBFD48B10020FEF78A
:10C58C0001FE404B05221A7040F6CD410022C2E755
:10C59C00FEF7ECFDF5E70020FEF712FE394B062204
:10C5AC001A70002240F26661B5E70020FEF7DEFD4E
:10C5BC00344B07221A7000248DE701202070FEF7FF
:10C5CC00FFFDEEE701202070FEF7FAFD00224FF48C
:10C5DC000051A0E7FEF7EBFD2A4B0C22EAE72A48B4
:10C5EC002A4EFDF766FED5F1110504461CD0D8B9CC
:10C5FC00012D13D0C820454321464FF400474FF47A
:10C60C007A704FF4FA620023C5FB070100F062FE5A
:10C61C00224601461C48FDF734FE04460220FEF774
:10C62C00A5FD0123337056E70220FEF7ABFD002376
:10C63C00F8E7FFF71BFF134B1222BBE7FFF716FFC0
:10C64C000020FEF793FD0F4B1322B3E7FFF70EFF0D
:10C65C000120FEF78BFD0B4B1422ABE7FFF706FF17
:10C66C000020FEF783FD0120FEF780FD054B15220F
:10C67C00A0E7FEF79CFD034B1D709CE7D81900202A
:10C68C00A8190020E0190020681900206119002069
:10C69C00044B1B68DB0703D5034B1878FFF7F8BE78
:10C6AC00704700BFD4190020E0190020044B1B6810
:10C6BC0013F0010301D0FFF7EBBE1846704700BF23
:10C6CC00D419002038B51C4B18601C4B10F0020418
:10C6DC00054619601AD01A4B1A480E221A700F22EE
:10C6EC00DA7010229A7111225A72042140F23332FC
:10C6FC00FDF75EFC044648B9FDF7B2FC044628B9C8
:10C70C000146114A1148FDF7B1FD0446EB0711D55E
:10C71C000120FEF779FD6CB921460D4A0D48FDF755
:10C72C00A5FD044630B9BDE838400B4A0B48012141
:10C73C00FDF79CBD204638BDD4190020DC19002023
:10C74C00C819002038E5010071C401005CE5010046
:10C75C009DC6010060E50100CDC3010058E5010054
:10C76C0072DF704773DF704777DF704710B5044690
:10C77C000E3C054800F070F9032C04D8BDE81040BD
:10C78C00014800F069B910BD64E5010000B54FF433
:10C79C00804193B00020FCF7EDFF08B1FDF776FC6B
:10C7AC00FCF71CFFFDF730FD08B1FDF76FFC3A49B3
:10C7BC000320FFF787FF08B1FDF768FCFEF768FB65
:10C7CC0008B1FDF763FC00F0F3FB08B1FDF75EFC6C
:10C7DC00002303A90120039300F076FC08B1FDF7B8
:10C7EC0055FC03A800F00AFD08B1FDF74FFC5923D6
:10C7FC00ADF80030294B02933C221723002103A8EB
:10C80C00ADF8043000F0A9FE04238DF80F30244B52
:10C81C00CDF830D018220021184600F09EFE0522DB
:10C82C000270102282601F4A03A852F8041B00F009
:10C83C00AAF908B1FDF72AFC194A1A491A48FFF758
:10C84C008FFF08B1FDF722FC184B1948164C1949FB
:10C85C00C01AC008000440F00300FDF725F9207849
:10C86C000121FFF77FFF08B1FDF710FC0220FFF755
:10C87C001DFF08B1FDF70AFC217804220120FFF707
:10C88C0073FF08B1FDF702FCFCF7C4FF0028FBD1D5
:10C89C00FEF714FBF8E700BF79C70100591100201F
:10C8AC00E81900204811002058110020E0DC01009C
:10C8BC0008DD01006AE501000369C26893429CBF70
:10C8CC0080681B18013B981A70472DE9F843D0E992
:10C8DC0002940546A9EB04084068904520440F4695
:10C8EC00144404D900F010FEEC60BDE8F883424615
:10C8FC00A4EB090400F008FE6868224607EB080167
:10C90C00F0E72DE9F843C5680646894617464FF00F
:10C91C0000083469B3687068A54228BFE418013C6C
:10C92C00621B5C1BBC4228BF3C46944228BF144689
:10C93C0049462844224600F0E7FDB3682544AB4243
:10C94C0008BF00253F1BA044A144F560E1D140463F
:10C95C00BDE8F88310B5114C114AA2610223C4E959
:10C96C000433104BE361A2644FF400730E4A0F4979
:10C97C002362E26400231022E01DA3626362E3627F
:10C98C00A3656365E365226500F01AFE084920463D
:10C99C0000F016FE2023A37110BD00BF201A00204A
:10C9AC0082E50100A81A0020981A00208BE50100EE
:10C9BC008FE5010070B5164B182400FB04451D448F
:10C9CC0004FB00331646DC6A012C0ED0022C18D066
:10C9DC00E4B92846FFF770FF864204D83246284651
:10C9EC00FFF773FF3446204670BD2846FFF764FFFF
:10C9FC008642344628BF044622462846FFF765FF88
:10CA0C00F1E72846BDE87040FFF77BBF0024EAE75A
:10CA1C00201A002073B50E4B1B7804460D461646A3
:10CA2C000BB9FFF797FF00230DF107008DF80730C6
:10CA3C00FDF714FD324629462046FFF7BBFF04469E
:10CA4C009DF80700FDF72EFD204602B070BD00BF1B
:10CA5C00201A0020FFF77EBF0FB410B5A2B024AB94
:10CA6C00802153F8042B019302A800F03FFD80288D
:10CA7C0004460ADD802202A90020FFF7CBFF2046E6
:10CA8C0022B0BDE8104004B070470028F7DD024624
:10CA9C00F1E76DDF704779DF70477DDF704764DF4A
:10CAAC0070472DE9F04F85B000250E9CBDF83CB0C9
:10CABC00B4F800A00191074690461E46A9463A8854
:10CACC004A450DDC45B12388013BA3EB0A039BB21D
:10CADC00FF2B3AD806F80A30002005B0BDE8F08FDD
:10CAEC007A6852F82900039000220DF10B0103A87B
:10CAFC00FFF7D5FF0028F0D19DF80B20424521D13E
:10CB0C002288002D14BF0020022002EB08010144F2
:10CB1C0059451ADC3DB9013292B2019B2280B354C3
:10CB2C0022880132228022880DF10B01324403A8A5
:10CB3C00FFF7B5FF0028D0D121889DF80B200A44BF
:10CB4C002280012509F10109B9E70C20C5E72DE97F
:10CB5C00F341089FBDF824801546CDE900780222E8
:10CB6C0004461E46FFF79DFF50B933461022294656
:10CB7C002046CDE9087802B0BDE8F041FFF791BF3F
:10CB8C0002B0BDE8F0812DE9F04F00231788138027
:10CB9C0090F82D3085B006460D4614465BB3082F31
:10CBAC0001D80C2028E102A8FFF773FF002840F001
:10CBBC0023812388DDF809100822EA5423880133E5
:10CBCC009BB21B222380EA54238801339BB2EA18C0
:10CBDC002380E950BDF80D30938023889DF8082000
:10CBEC0006339BB212F0FE0218BF01222380EA54D6
:10CBFC00238801332380B378FBB123880433BB42F1
:10CC0C00CFD802A8FFF747FF002840F0F580238813
:10CC1C000322EA54238801339BB219222380EA545D
:10CC2C002388BDF8082001339BB2E9182380EA540D
:10CC3C00120A4A70238802332380F2789AB123882F
:10CC4C00D91CB942ADD80221E954238801339BB2D7
:10CC5C0001212380E95423880B449BB22380EA549E
:10CC6C0023880B4423807268AAB12388D91CB9424B
:10CC7C0097D8022192F90020E954238801339BB202
:10CC8C000A212380E954238801339BB22380EA5480
:10CC9C002388013323803389002B40F0A180338A11
:10CCAC005BB1CDE900472B460722032106F11000AA
:10CCBC00FFF74DFF002840F09F80338B5BB1CDE92F
:10CCCC0000472B461522142106F11800FFF73FFFF1
:10CCDC00002840F09180326A002A40F09080D6F80B
:10CCEC002480B8F1000F30D0B8F804302188981C9B
:10CCFC008A1C0244BA423FF654AFFE283FF651AFAD
:10CD0C0003336B54238801339BB2FF222380EA54F4
:10CD1C00238801339BB22380B8F80020EA54E91829
:10CD2C00120A4A702088023080B22080B8F80420A1
:10CD3C005AB1D8F8081000296BD0284400F0E4FB55
:10CD4C002388B8F804201344238096F82C30002B49
:10CD5C0040F09880307800284ED03388012B58D082
:10CD6C00228802F1020CBC453FF61BAF012805D10D
:10CD7C007378023313449F42FFF413AF023FBF1A80
:10CD8C00BFB202A905EB0C00ADF80870FFF785FEE9
:10CD9C0090BB3178BDF80830022900F0B980727868
:10CDAC009A4202D39F4280F0B180012940F0B280B8
:10CDBC00974293B2C0F0AE80ADF808300821BDF8B0
:10CDCC000830FE2B3FF6EDAE22880133AB5422889F
:10CDDC00013292B22280A9542288134423800BE0A2
:10CDEC00CDE900472B460622022106F10800FFF789
:10CDFC00AEFE00283FF453AF05B0BDE8F08FB4F899
:10CE0C0000C00CF10603BB423FF6CBAE11880529DE
:10CE1C0001D80720F0E76FF4486E01EB0E039BB2CC
:10CE2C004FF27D3E7345F4D95388052BF1D96FF43D
:10CE3C004860181880B27045EBD94FF6FF708142EC
:10CE4C0001D09942E5D8052305F80C30238801332D
:10CE5C009BB212212380E954238801339BB2238097
:10CE6C001188E954E818090A4170238802339BB2EF
:10CE7C0023805288EA54E918120A4A702388023334
:10CE8C0023802CE7B36A002BC3D04FF000084FF07F
:10CE9C000C0A4FF0160BB16A5FFA88F20AFB02F229
:10CEAC0001EB0209B9F80430981CFE283FF679AE64
:10CEBC00208803332B54238801339BB2238005F83D
:10CECC0003B0238801339BB223808A5AEA54E918B1
:10CEDC00120A4A702088023080B22080B9F80420EF
:10CEEC005AB1D9F80810002993D0284400F00CFB53
:10CEFC002388B9F804201344238096F82C2008F1D9
:10CF0C0001085FFA88F39A42C5D823E7092156E74E
:10CF1C009F42FBD2ADF8087050E710DF704700005D
:10CF2C0013B5044609496846FDF7DDFF019808B9B9
:10CF3C0002B010BDD0E900312046984718B16846C0
:10CF4C00FDF7DBFFF2E71120F2E700BFA4E50100DB
:10CF5C0013B5044607496846FDF7C5FF019B0BB99D
:10CF6C0002B010BD2046D3E9002190476846FDF77A
:10CF7C00C4FFF3E7BCE501000B4991F816335A09DD
:10CF8C00EC231341DB0706D5084B9A683AB94FF4EA
:10CF9C0080030B60704742F20200FDF777B81A6805
:10CFAC0042F480021A60704700E100E05C18002037
:10CFBC00F7B5194F3C7864BB184E012520463570E7
:10CFCC00FFF7AEFF112821D02046FFF7C1FF144B0D
:10CFDC008DF80340186801900DF10300FDF73EFA3F
:10CFEC00104901A8FFF799FF0446B0FA80F04009F8
:10CFFC0038709DF80300FDF755FA3CB90A4B3470B4
:10D00C001C70FFF7B9FF2846FFF7A2FF204603B0BC
:10D01C00F0BD0824FAE700BFA91C0020A81C0020C2
:10D02C009EE50100B5A00100AA1C0020014B187858
:10D03C00704700BFA91C002007B508496846FDF7DA
:10D04C0052FF019B13B903B05DF804FBD3E9002038
:10D05C0090476846FDF751FFF3E700BFB0E50100CC
:10D06C00FFF7EABF60DF704769DF704761DF704729
:10D07C0030B5134B1B7891B0FBB1124D34240DF12C
:10D08C00020103A8ADF80240FFF7F0FF70B9294682
:10D09C0001A8FDF728FF029B002BF0D003A8D3E9D1
:10D0AC000021904701A8FDF728FFF4E7052804D0DC
:10D0BC0011B0BDE83040FCF7E9BF11B030BD00BF86
:10D0CC00AB1C002000E8010030B50C4685B00029EF
:10D0DC0000F082800023CDE90133404A0393012301
:10D0EC000A608DF804008DF8063001A90623202073
:10D0FC00ADF80830FFF7B8FF60B1FDF74FFF384BC4
:10D10C003849024638481B1ADB081B0443F001005F
:10D11C00FCF7CEFC00232268039301A94020CDE943
:10D12C000133FFF7A1FF60B1FDF738FF2C4B2F49FE
:10D13C0002462D481B1ADB081B0443F00100FCF7C8
:10D14C00B7FC00232268039301A90120CDE9013328
:10D15C00FFF78AFF60B1FDF721FF214B24490246FE
:10D16C0021481B1ADB081B0443F00100FCF7A0FC50
:10D17C000023CDE902332268F82301A9A1200193F1
:10D18C00FFF772FF60B1FDF709FF154B1949024615
:10D19C0015481B1ADB081B0443F00100FCF788FC44
:10D1AC0000252268039501A9A020CDE90155FFF7C0
:10D1BC005BFF034668B1FDF7F1FE094B0E490246D1
:10D1CC0009481B1ADB081B0443F00100FCF770FC38
:10D1DC002B46184605B030BD0E23FAE71811002077
:10D1EC0030DD0100C8E50100E0DC01000EE60100C5
:10D1FC005AE60100A6E60100F7E60100F8B506467E
:10D20C000768FFF72FFF3368BB4205461DD9194845
:10D21C00194C1A49241AE408240444F00204204648
:10D22C00FCF742FC336816493A462046FCF749FCA9
:10D23C004FF080533268D3F80C3112499B0203F142
:10D24C0000539A1A2046FCF733FC25B90E4B0122E9
:10D25C001A702846F8BD2846FDF7A0FE064B0B4970
:10D26C00024604481B1ADB081B0443F00100FCF7C0
:10D27C001FFCEEE7E0DC010030DD01004AE70100B5
:10D28C0079E70100AAE70100AB1C0020D4E70100FC
:10D29C004BDF70471FB50E4C01A8FFF7F9FF70B9B3
:10D2AC00214602A8FDF71FFE039B002BF4D001982A
:10D2BC00D3E90021904702A8FDF71FFEF4E70528EB
:10D2CC0004D004B0BDE81040FCF7E0BE04B010BDC3
:10D2DC0018E8010053EA020C61D02DE9F04BB3FAC7
:10D2EC0083F51E0007BFB2FA82F502FA05F403FAC1
:10D2FC0005F41646C5F120051EBF22FA05F73C437E
:10D30C00203556EA044C4FEA144418BF0134A346A6
:10D31C004FF00009C846904271EB030C39D3094217
:10D32C0007BFB0FA80F700FA07F6B1FA81F701FAF5
:10D33C0007F6C7F120071EBF20FA07FC46EA0C06C9
:10D34C002037B6FBFBFC7F1B103F07F01F04C4F11A
:10D35C0020060CFA04F42CFA06F644BF34460026D8
:10D36C00202FA4BF2646002454EA060C08BF012433
:10D37C0018EB040849EB0609A4FB027CC01B06FB56
:10D38C0002CC04FB03CC71EB0C01904271EB030C4F
:10D39C00C5D20B46024649464046BDE8F08BB2FB6F
:10D3AC00F3F200007F2805D8034B185C034B5B5C41
:10D3BC00184070470020704730E80100B0E80100C9
:10D3CC00A0F16103192B98BF20387047A0F14103DD
:10D3DC00192B98BF203070477F2805D8034B185C59
:10D3EC00034B5B5C184070470020704730E801002D
:10D3FC00B0E80100A0F16103192B98BF20387047E9
:10D40C00A0F14103192B98BF203070477F299ABF98
:10D41C00017001206FF02E0070475AB10A787F2AF4
:10D42C000AD800B10260002119605960501A18BF67
:10D43C0001207047002070476FF02E00704710B528
:10D44C0004460846A2684AB12368616803F1010CDE
:10D45C008C4508BF00208B4208D2D054E3682BB116
:10D46C0021686268914201D22146984723680133B2
:10D47C00236010BD70B54C1E09D41646C5B22946A2
:10D48C003046FFF7DCFF013CB4F1FF3FF7D170BD34
:10D49C0010F0100F08D108B510F4007F14BF302025
:10D4AC002020FFF7E7FF08BD7047000008B5034BCD
:10D4BC005B689B681B68984708BD00BF7011002013
:10D4CC0008B50921FFF7F2FF08BD037853B159B134
:10D4DC000144034613F8012F12B18B42FAD10B46CB
:10D4EC00181A70470346FBE70346F9E710B584B0FA
:10D4FC000C46114602900022039201941A4668468B
:10D50C0000F0B0F804B010BD844640EA010313F0FB
:10D51C00030F18D18446202A0BD32DE9F007B1E86C
:10D52C00F807A0E8F807A2F12002202AF7D2BDE8FC
:10D53C00F007042A07D351F8043B40F8043BA2F14E
:10D54C000402042AF7D2002A05D011F8013B00F896
:10D55C00013B013AF9D1604670478446002A2DD030
:10D56C0010F0030F04D000F8011B013A26D0F7E7A6
:10D57C00C9B241EA012141EA0141202A12D3A2F1A8
:10D58C0020022DE9F0030B460C460D460E460F46C5
:10D59C0088468946A0E8FA03203AFBD2BDE8F0039E
:10D5AC0020320BD0042A05D340F8041B043A05D0D2
:10D5BC00042AF9D200F8011B013AFBD160467047EE
:10D5CC00024610F0030F16D111F0030F13D12DE901
:10D5DC00F0004FF001374FF0803351F8044BA4EBBF
:10D5EC00070525EA04051D4002D142F8044BF4E777
:10D5FC00A1F10401F0BC11F8013B02F8013B002B36
:10D60C00F9D1704700F1010110F0030F11D010F89F
:10D61C00012B002A23D010F0030F0AD010F8012B95
:10D62C00002A1CD010F0030F03D010F8012B002A95
:10D63C0015D02DE970004FF001324FF0803350F8C7
:10D64C00044BA4EB020525EA04051D4000D1F6E7C6
:10D65C00A0F1040070BC10F8012B002AFBD1A0EB48
:10D66C00010070472DE9F04F89B007460392002363
:10D67C0003600C4614F8011B002900F0FF82DFF850
:10D68C006CB2E8E2002507E05E2868D145F48055CD
:10D69C0001E045F040051C46234613F8010B3028E9
:10D6AC00F2D81F2837D9A0F12002102A33D801A1B3
:10D6BC0051F822F09FD6010023D7010023D7010097
:10D6CC0005D7010023D7010023D7010023D7010080
:10D6DC000BD7010023D7010023D7010023D701006A
:10D6EC0011D7010023D7010017D7010023D7010060
:10D6FC0023D701001DD7010045F08005CBE745F489
:10D70C000045C8E745F02005C5E745F01005C2E720
:10D71C0045F40075BFE72A2821D1039A111D039106
:10D72C00D2F800A0BAF1000FBCBFCAF1000A45F054
:10D73C0010051878A31C2AEAEA7A2E2826D0002194
:10D74C00742847D07A2845D06C2800F0A8804C2843
:10D75C0000F0AB80682800F0B8801C463DE0A0F1DA
:10D76C003002D2B2092A88BF4FF0000AE3D84FF03A
:10D77C00000A0AEB8A0A303800EB4A0A13F8010B4C
:10D78C00A0F13002D2B2092AF3D9D4E718782A28AA
:10D79C000AD1039A111D039111685878023300299C
:10D7AC00CEDB45F48075CBE70133A0F13002D2B269
:10D7BC00092A88BF0021F4D8002101EB81013038FF
:10D7CC0000EB410113F8010BA0F13002D2B2092A8F
:10D7DC00F3D9E4E71C4614F8010B002800F05A8238
:10D7EC00A0F12503DBB2532B62D8A0F12503532BF8
:10D7FC005ED8DFE813F076005D005D005D005D0033
:10D80C005D005D005D005D005D005D005D005D0024
:10D81C005D005D005D005D005D005D005D005D0014
:10D82C005D005D005D005D005D005D005D005D0004
:10D83C005D005D005D005D005D005D005D005D00F4
:10D84C005D005D005D005D005D005D005D005D00E4
:10D85C005D005D005D005D005D005D00EF005D0042
:10D86C005D005D005D005D005D005D005D005D00C4
:10D87C005D007F0024015D005D005D005D00240102
:10D88C005D005D005D005D0099001201D6005D0039
:10D89C005D00AA005D001D015D005D00F1001C46ED
:10D8AC0014F8010B45F0010597E745F001051C46FE
:10D8BC000F4B1E68002E00F0CB8103AB019300913F
:10D8CC0053462A463946B047C2E11878682803D037
:10D8DC005C1C45F0040580E745F008059C1C587855
:10D8EC007BE725213846FFF7AAFDB1E1CDCCCCCCA6
:10D8FC00AC1C0020039B1A1D03921E780AF1FF3A00
:10D90C003A4651462846FFF7C3FD31463846FFF7E5
:10D91C0096FDA94619F0100F00F09A813A4651462F
:10D92C002020FFF7A7FD93E115F0080F06D03A6809
:10D93C00039B191D03911B681A7089E1039B1A1D27
:10D94C0003921B683A681A6082E1039B1A1D0392CA
:10D95C00D3F80080C34BB8F1000F08BF9846464679
:10D96C0025F4007915F4807F16D04046FFF7ADFD05
:10D97C000546AAEB050A3A4651464846FFF788FD8C
:10D98C00002DC7D016F8011B3846FFF758FDA8EB41
:10D99C000603EB42F6D1BDE74046FFF733FE0546E2
:10D9AC00E7E7039B1A1D03921B6815F0800F0CBF51
:10D9BC000026232645F4807508211A46002B00F01A
:10D9CC00238105AB4FF0000805F4005C60468C46E3
:10D9DC000146D3E045F4005515F0800F1BD043F2FF
:10D9EC00780643F25803782818BF1E4615F4807F3A
:10D9FC0001D025F4007515F4804F32D0039B1A1D0D
:10DA0C0003921B6815F0040F1FD01BB2002B20DAF9
:10DA1C005B422D262DE00026E8E715F0800F0CBFA9
:10DA2C000026302615F4807FE5D025F40075E2E75A
:10DA3C0015F4807F07D025F400750026DBE745F44C
:10DA4C0080450026D7E70026D5E715F0080FDDD076
:10DA5C00DBB215F0200F60D115F0400F18BF202657
:10DA6C0007E0039B1A1D03921B6815F0040F4FD09F
:10DA7C009BB215F4807F14BF25F400750121583832
:10DA8C00202800F2A98001A252F820F0C7D9010089
:10DA9C00E5DB0100E5DB0100E5DB0100E5DB010076
:10DAAC00E5DB0100E5DB0100E5DB0100E5DB010066
:10DABC00E5DB0100E5DB0100E5DB010053DB0100E8
:10DACC00E5DB0100E5DB0100E5DB0100E5DB010046
:10DADC0053DB0100E5DB0100E5DB0100E5DB0100C8
:10DAEC00E5DB0100E5DB01002BDB0100C7D9010000
:10DAFC00E5DB0100E5DB0100E5DB0100E5DB010016
:10DB0C0053DB0100E5DB0100E5DB0100C7D90100B7
:10DB1C0015F0080FADD0DBB2ABE72B26A9E71A4600
:10DB2C004FF00008002B59D005A84FF0000803F067
:10DB3C000703303300F8013B08F10108D208134603
:10DB4C00002AF4D14AE018464FF00008002B45D0CB
:10DB5C004FF0000805F4004E4FF02C0973468E462A
:10DB6C00194629E002F00F00DFF8FCE01EF8000077
:10DB7C0003F8010B08F10108120908D00029F1D0B3
:10DB8C0002F00F00DFF8E4E01EF80000F0E7614659
:10DB9C0024E008F120030DEB030CABFB0032D208A0
:10DBAC0002EB8203A0EB430330330CF80C3C08F17E
:10DBBC00010809280ED910460029EAD008F0030301
:10DBCC00032BE6D108F120036B4403F80C9C08F1FD
:10DBDC000108DEE7714601E04FF00008A1EB0801F7
:10DBEC0021EAE179AAEB090AAAEB080AFF2E0ED961
:10DBFC00AAF1020AC6F307213846FFF720FCF1B25E
:10DC0C003846FFF71CFC04E04FF00008E6E7002E56
:10DC1C0043D13A4651462846FFF73AFC3A46494624
:10DC2C003020FFF727FCB8F1000F0EDD0DF11409C1
:10DC3C0008F1FF38C84498F8001046463846FFF7FC
:10DC4C00FEFBC14508F1FF38F5D115F0100F0FD1CF
:10DC5C0014F8011B91B125293FF414AD3846FFF798
:10DC6C00EEFBF5E784EA010064EA010074EA0100C6
:10DC7C003A4651462020FFF7FDFBE9E7BB682BB184
:10DC8C003A6879688A423CBF00219954386809B0D7
:10DC9C00BDE8F08F4FF0FF30F9E70AF1FF3AAEE73D
:08DCAC008DB201000000000030
:08DCB40055B30100000000005F
:10DCBC007DD0010000000000A1D201000000000096
:10DCCC0008120020D0120020D812002010120020C0
:04DCDC00180000002C
:10DCE000D5E4010000000303EBE40100000004049C
:10DCF00017E50100000003032CE50100000000000F
:10DD000031E5010000000000E2DD01000000030336
:10DD1000DBDE01000003040405DF01000000000059
:10DD2000ACE401000000030396E5010000000303DA
:10DD3000F1E70100000003030CE801000000030309
:10DD400076DF0100000000008CDF01000000000011
:10DD500078DD010000000000C1DD01002C11002071
:10DD6000A4DD010000000000B0DD0100341100203E
:10DD70000338FDD870470000C19301002D940100C5
:10DD8000BD930100FFFFFFFFFFFFFFFFFFFFFFFF4E
:10DD9000FFFFFFFF00000000000000000000D601B0
:10DDA0000601000051950100B595010001950100A3
:10DDB000756172745F6C6F675F6261636B656E64DF
:10DDC000007274745F6C6F675F6261636B656E6431
:10DDD000004261636B656E647320666C7573686581
:10DDE0006400617070000000F81600207F000000E1
:10DDF000781700201B5B313B33316D0025734C6F6E
:10DE000067732064726F707065642028256429250B
:10DE1000730D0A001B5B306D002573003C25733EBB
:10DE20002025733A20002025303278002020200061
:10DE30007C002563001B5B313B33306D001B5B3185
:10DE40003B33326D001B5B313B33336D001B5B3169
:10DE50003B33346D001B5B313B33356D001B5B3155
:10DE60003B33366D001B5B313B33376D007761729E
:10DE70006E696E6700696E666F0064656275670043
:10DE800014DE010035DE0100F4DD01003DDE01009D
:10DE900045DE01004DDE010055DE01005DDE0100C2
:10DEA00065DE010000000000F2DE01006DDE010011
:10DEB00075DE01007ADE01004661696C65642074DC
:10DEC0006F207374617274206170705F74696D6526
:10DED0007220286572723A256429006170705F6251
:10DEE0007574746F6E0000009817002046617461AD
:10DEF0006C206572726F720053797374656D207255
:10DF000065736574006170705F74696D657200009F
:10DF10000100060000000000D417002021A101002C
:10DF200052544320696E7374616E636520616C7234
:10DF30006561647920696E697469616C697A656488
:10DF40002E005254433A20696E697469616C697A93
:10DF500065642E00000000000000000000000000CA
:10DF60000338FDD8704730313233343536373839DD
:10DF70004142434445467077725F6D676D7400009F
:10DF8000B4DC0100B4DC010004000000736F7274A3
:10DF90006C697374004E52465F5355434345535367
:10DFA000004E52465F4552524F525F5356435F48B0
:10DFB000414E444C45525F4D495353494E47004EE4
:10DFC00052465F4552524F525F534F465444455656
:10DFD0004943455F4E4F545F454E41424C454400D6
:10DFE0004E52465F4552524F525F494E5445524E33
:10DFF000414C004E52465F4552524F525F4E4F5F6A
:10E000004D454D004E52465F4552524F525F4E4F66
:10E01000545F464F554E44004E52465F4552524F54
:10E02000525F4E4F545F535550504F525445440029
:10E030004E52465F4552524F525F494E56414C49EF
:10E04000445F504152414D004E52465F4552524F3F
:10E05000525F494E56414C49445F53544154450028
:10E060004E52465F4552524F525F494E56414C49BF
:10E07000445F4C454E475448004E52465F4552520D
:10E080004F525F494E56414C49445F464C414753BD
:10E09000004E52465F4552524F525F494E56414CD8
:10E0A00049445F44415441004E52465F4552524FED
:10E0B000525F444154415F53495A45004E52465FB6
:10E0C0004552524F525F54494D454F5554004E52A0
:10E0D000465F4552524F525F4E554C4C004E524691
:10E0E0005F4552524F525F464F5242494444454E5B
:10E0F000004E52465F4552524F525F494E56414C78
:10E1000049445F41444452004E52465F4552524F8B
:10E11000525F42555359004E52465F4552524F523C
:10E120005F434F4E4E5F434F554E54004E52465F35
:10E130004552524F525F5245534F5552434553003B
:10E140004E52465F4552524F525F4D4F44554C45DB
:10E150005F4E4F545F494E495449414C495A4544DA
:10E16000004E52465F4552524F525F4D55544558EE
:10E170005F494E49545F4641494C4544004E524622
:10E180005F4552524F525F4D555445585F4C4F4377
:10E190004B5F4641494C4544004E52465F45525202
:10E1A0004F525F4D555445585F554E4C4F434B5F52
:10E1B0004641494C4544004E52465F4552524F52EB
:10E1C0005F4D555445585F434F4E445F494E495447
:10E1D0005F4641494C4544004E52465F4552524FBE
:10E1E000525F4D4F44554C455F414C524541445957
:10E1F0005F494E495449414C495A4544004E5246A4
:10E200005F4552524F525F53544F524147455F460C
:10E21000554C4C004E52465F4552524F525F415052
:10E22000495F4E4F545F494D504C454D454E544506
:10E2300044004E52465F4552524F525F464541544C
:10E240005552455F4E4F545F454E41424C45440048
:10E250004E52465F4552524F525F494F5F50454EB6
:10E2600044494E47004E52465F4552524F525F441A
:10E2700052565F5457495F4552525F4F564552526E
:10E28000554E004E52465F4552524F525F445256D1
:10E290005F5457495F4552525F414E41434B004ED8
:10E2A00052465F4552524F525F4452565F5457494F
:10E2B0005F4552525F444E41434B004E52465F45CC
:10E2C00052524F525F424C455F495053505F525833
:10E2D0005F504B545F5452554E4341544544004E99
:10E2E00052465F4552524F525F424C455F49505330
:10E2F000505F4348414E4E454C5F414C524541446E
:10E30000595F455849535453004E52465F45525247
:10E310004F525F424C455F495053505F4C494E4B02
:10E320005F444953434F4E4E4543544544004E527B
:10E33000465F4552524F525F424C455F49505350E1
:10E340005F504545525F52454A4543544544005548
:10E350006E6B6E6F776E206572726F7220636F6482
:10E36000650000000000000095DF010001000000D2
:10E37000A1DF010002000000BFDF01000300000078
:10E38000E0DF010004000000F3DF010005000000F1
:10E3900004E001000600000018E001000700000092
:10E3A00030E001000800000048E001000900000022
:10E3B00060E001000A00000079E001000B000000AD
:10E3C00091E001000C000000A8E001000D00000039
:10E3D000BCE001000E000000CEE001000F000000D4
:10E3E000DDE0010010000000F1E00100110000007C
:10E3F00008E101001200000017E101001300000015
:10E400002CE101008000000040E1010081000000DB
:10E4100061E10100820000007DE101008300000055
:10E4200099E1010084000000B7E1010085000000CF
:10E43000D8E1010086000000FDE10100900000002D
:10E4400014E201009100000032E20100920000009D
:10E4500050E201000082000065E20100018200003C
:10E4600083E20100028200009FE2010000840000BC
:10E47000BBE2010001840000DFE201000284000031
:10E4800009E30100038400002EE301000304467544
:10E490006E6374696F6E3A2025732C206572726FFB
:10E4A0007220636F64653A2025732E00636C6F637E
:10E4B0006B006E72665F6472765F636C6F636B5F36
:10E4C000696E6974004D6F64756C6520656E61627C
:10E4D0006C65642E00434C4F434B006E7266785F50
:10E4E000636C6F636B5F696E6974004750494F548A
:10E4F00045006E7266785F6770696F74655F696EFC
:10E500005F696E6974006E7266785F6770696F74B8
:10E51000655F696E697400505253006E7266785F71
:10E520007072735F61637175697265005541525411
:10E5300000554152544500000C000300D5C30100B2
:10E540000B000300D5C3010009000300D5C301007F
:10E550000D000300D5C301006819002088190020B0
:10E56000A81900204576656E7400426561636F6E80
:10E57000206578616D706C65207374617274656478
:10E580002E005465726D696E616C005254540053D4
:10E590004547474552006E72665F7364680000101D
:10E5A00002000000B4DC0100B4DC0100080000003F
:10E5B000BCDC0100CCDC010008000000B4DC010080
:10E5C000BCDC01000800000073645F626C655F637F
:10E5D00066675F73657428292072657475726E654D
:10E5E00064202573207768656E20617474656D7092
:10E5F00074696E6720746F2073657420424C455FA8
:10E60000434F4E4E5F4346475F4741502E00736471
:10E610005F626C655F6366675F736574282920724B
:10E62000657475726E6564202573207768656E2049
:10E63000617474656D7074696E6720746F207365A2
:10E640007420424C455F4741505F4346475F524FFD
:10E650004C455F434F554E542E0073645F626C65AA
:10E660005F6366675F7365742829207265747572CD
:10E670006E6564202573207768656E20617474650B
:10E680006D7074696E6720746F2073657420424CDE
:10E69000455F434F4D4D4F4E5F4346475F56535F77
:10E6A000555549442E0073645F626C655F6366670D
:10E6B0005F73657428292072657475726E656420B5
:10E6C0002573207768656E20617474656D70746958
:10E6D0006E6720746F2073657420424C455F47411C
:10E6E0005454535F4346475F415454525F54414230
:10E6F0005F53495A452E0073645F626C655F6366C1
:10E70000675F73657428292072657475726E65641D
:10E71000202573207768656E20617474656D707450
:10E72000696E6720746F2073657420424C455F47A3
:10E73000415454535F4346475F53455256494345FE
:10E740005F4348414E4745442E00496E73756666E7
:10E75000696369656E742052414D20616C6C6F6312
:10E760006174656420666F722074686520536F66FB
:10E77000744465766963652E004368616E67652041
:10E780007468652052414D207374617274206C6FFF
:10E79000636174696F6E2066726F6D2030782578C2
:10E7A00020746F20307825782E004D6178696D7562
:10E7B0006D2052414D2073697A6520666F72206129
:10E7C00070706C69636174696F6E20697320307852
:10E7D00025782E0073645F626C655F656E61626CA4
:10E7E0006528292072657475726E65642025732E04
:10E7F000006E72665F7364685F626C6500000000A3
:10E80000B4DC0100B4DC0100080000006E72665F39
:10E810007364685F736F6300ACDC0100B4DC0100FB
:10E820000800000043000000504F5349580000000A
:10E830002020202020202020206828282828202070
:10E8400020202020202020202020202020202020C8
:10E850004810101010101010101010101010101080
:10E860008484848484848484848410101010101020
:10E870001081818181818101010101010101010179
:10E88000010101010101010101010110101010102D
:10E89000108282828282820202020202020202024A
:10E8A00002020202020202020202021010101020F2
:10E8B00000070320041702010857104080000000E1
:10E8C00024E8010028E901003CEA010053756E00CC
:10E8D0004D6F6E005475650057656400546875008F
:10E8E0004672690053617400000000004A616E00C6
:10E8F000466562004D617200417072004D617900A1
:10E900004A756E004A756C0041756700536570006A
:10E910004F6374004E6F7600446563000000000092
:10E92000414D00504D00000060EA01005CEA01002A
:10E930005CEA01005CEA01005CEA01005CEA0100BB
:10E940005CEA01005CEA01005CEA01005CEA0100AB
:10E95000FFFFFFFFFFFFFFFFFFFFFFFFFFFF0000C5
:10E960009CE90100CCE80100D8E90100ECE80100D5
:10E9700020E9010080E9010030EA01008CE9010092
:10E98000256D2F25642F25790000000025612025A5
:10E9900062202565202554202559000053756E649A
:10E9A0006179004D6F6E64617900547565736461BF
:10E9B00079005765646E6573646179005468757297
:10E9C000736461790046726964617900536174759A
:10E9D00072646179000000004A616E7561727900AD
:10E9E0004665627275617279004D617263680041BB
:10E9F0007072696C004D6179004A756E65004A75E8
:10EA00006C79004175677573740053657074656D3A
:10EA1000626572004F63746F626572004E6F766557
:10EA20006D62657200446563656D62657200000029
:10EA300025483A254D3A255300000000B1D3010086
:10EA4000CDD30100D9D30100E5D3010001D40100E9
:10EA50000DD4010019D4010027D4010000000000EA
:10EA60002E000000303132333435363738396162A8
:10EA70006364656630313233343536373839414274
:0CEA800043444546286E756C6C2900006C
:10EA8C0000000000002000400000000000200040BA
:10EA9C000000000000000000FF000000000000006B
:10EAAC00FF00000000100140110004000090D00392
:10EABC00001A00201F0000000000000000000000F1
