:020000022000DC
:1060000000600020756302005D6302005F630200B0
:106010006163020063630200656302000000000028
:1060200000000000000000000000000067630200A4
:1060300069630200000000006B6302006D630200F0
:10604000DD8402006F630200198902006F630200A1
:106050006F6302006F630200958702006F630200A6
:106060006F6302006F6302006F6302006F630200E0
:106070006F6302006F6302006F6302006F630200D0
:106080006F6302005D7602006F6302006F630200BF
:106090006F6302006F6302006F6302006F630200B0
:1060A0006F6302006F6302006F6302006F630200A0
:1060B0006F6302006F630200000000000000000038
:1060C0006F6302006F6302006F6302006F63020080
:1060D0006F6302006F6302006F6302000000000044
:1060E00000000000000000000000000000000000B0
:1060F00000000000000000000000000000000000A0
:10610000000000000000000000000000000000008F
:10611000000000000000000000000000000000007F
:10612000000000000000000000000000000000006F
:10613000000000000000000000000000000000005F
:10614000000000000000000000000000000000004F
:10615000000000000000000000000000000000003F
:10616000000000000000000000000000000000002F
:10617000000000000000000000000000000000001F
:10618000000000000000000000000000000000000F
:1061900000000000000000000000000000000000FF
:1061A00000000000000000000000000000000000EF
:1061B00000000000000000000000000000000000DF
:1061C00000000000000000000000000000000000CF
:1061D00000000000000000000000000000000000BF
:1061E00000000000000000000000000000000000AF
:1061F000000000000000000000000000000000009F
:10620000354936480A1A02D0072291438D4634494F
:1062100034480A1A06D00722914381F309880222E2
:1062200082F3148830483149314A00F044F831484B
:106230003149324A00F03FF831483249324A00F0E1
:106240003AF832483249334A00F035F83248334997
:10625000334A00F030F833483349344A00F02BF821
:1062600033483449344A00F026F83448344900228F
:1062700000F02CF833483449002200F027F8334866
:106280003349091A082902DB002202604160314AC1
:1062900090471F481F49884205D00268043003B464
:1062A000904703BCF7E700208646EC46002000211B
:1062B000294A9047FEE7884207D0521A05D0037852
:1062C00001300B700131013AF9D17047884202D098
:1062D00002700130FAE770470060002000400020A3
:1062E0000060002000600020C0AC0200C818002040
:1062F00024190020BC630200BC630200E09F02007E
:10630000C0AC0200C8180020C81800208CA00200F1
:106310008CA002008CA002008CA002008CA00200C5
:106320008CA002008CA002008CA00200C0AC020075
:106330001CAD02002419002024190020241900207B
:10634000F4230020F4230020F4230020F423002071
:10635000F42700208B63020015920200FEE7FEE79F
:10636000FEE7FEE7FEE7FEE7FEE7FEE7FEE7FEE705
:1063700000F002B8FFF7FCBF0B484FF0070188435D
:1063800085460A488047FFF73BBF094809490A4A42
:10639000884207D0521A05D0037801300B700131C2
:1063A000013AF9D17047000000600020457F0200EB
:0C63B0008CA00200C8180020C8180020B3
:1063BC00F0B595B01D46164608460C4601F0CEFCCD
:1063CC001A9B0D93CDE9086500252B46082205A9DB
:1063DC0020460A958DF82C500C9501F0DBFC079BA0
:1063EC000293069B03939DF814308DF8115003F023
:1063FC000302012A1DD1BDF81420059DC3F3C2036D
:10640C00C2F383168DF81030B20008230EA9204673
:10641C0001F0C0FCC5F3952508AB0093324602ABE6
:10642C000EA9284600F08CFB204601F09BFC15B011
:10643C00F0BD022AF8D1BDF81650C3F3C203C5F360
:10644C0089158DF810300827082D2E4628BF0826F0
:10645C003B4632460EA9204601F09CFCAD1B08AB16
:10646C0002AA31460EA8374400F0CEFB002DEBD12A
:10647C00DAE70000014B01221A7070476519002001
:10648C007047000070B50E4D06460FCD88B06C46B7
:10649C000FC495E80F00002E84E80F00094A0A4843
:1064AC004FF0060308BF00226946009301F0AEFFCF
:1064BC0008B100F079FD054B1E7008B070BD00BF2F
:1064CC008CA0020081640200C8180020241900204E
:1064DC0008B5044802F068FBBDE808400020FFF74F
:1064EC00D1BF00BFCC18002007B5044B0093044A61
:1064FC004023FFF75DFF03B05DF804FB116502005C
:10650C002519002010B5084C08480023D2B223707E
:10651C0002F0E6FB08B100F047FD054B1A7812B10A
:10652C002378002BFBD010BD65190020CC1800205F
:10653C00241900200120FFF7A5BF000008B5FFF7C4
:10654C00F9FF0448042100F06BFA034B01225A7145
:10655C0008BD00BF7CA00200D418002003780246BE
:10656C0013F0040006D003F00300012803D0022826
:10657C0009D0012070470B6812880233C2F38312D2
:10658C0013440B6070470B685288023303EB921371
:10659C000B60EEE72DE9F04FDFF81CA187B00F463A
:1065AC0000230446861C0DF1070015468DF80730B4
:1065BC0000F0E2FEDAF804203A60DAF8083003F56D
:1065CC0080739B1A0AF21C470AF583690AF2144875
:1065DC00B3421AD30020002D69D004F00F039B01A5
:1065EC0043F0050363F30F00DAF80430DAB2033238
:1065FC0033444AF822009DF80700CAF8043000F032
:10660C00DFFE012007B0BDE8F08F0121384601F014
:10661C00D4F8484601F0E9F8404601F0E6F8DAF81B
:10662C0008000290C0B203300AEB800002A9FFF709
:10663C0095FF029B30BBDAB20AEB8202D168039160
:10664C009A1C0133DBB20AEB83030292D3F80CB031
:10665C0001F00303012B22D0022B15D083464046B8
:10666C0001F0C6F810B1029BCAF8083059463846FA
:10667C0001F0A3F8DAF80830DAF8042003F5807397
:10668C009B1AA5E7D8B2CEE7BDF80E30C3F3891339
:10669C0003334FEA1B4B02EB93030293DFE7BDF886
:1066AC000C30C3F383134FEA1B4B1344F5E7A405DB
:1066BC0044F0060098E700BF381A0020064B074844
:1066CC0010B500221A7001F002FB044610B9044800
:1066DC0001F08EFB204610BD381A002000A00200ED
:1066EC00E0A0020030B50A4C71B10A4A0A49121BEB
:1066FC00D20800239A4201D1002030BD31F823503A
:10670C00854202D00133F5E7034654F83300F4E731
:10671C0014A002007CA00200C8180020094B01390B
:10672C0003EBC000032909D8DFE801F00A020406D4
:10673C0004207047007970474079704700207047FB
:10674C000220704714A00200034BD3E90130C31A96
:10675C0058425841704700BF381A00202DE9F041CB
:10676C0086B0FFF7F1FF0546002840F0ED80774C2E
:10677C00C4F81804BFF34F8FA3680293DBB2033342
:10678C0004EB830002A9FFF7E9FE029B18B1D4F8D1
:10679C001824002A5AD0DAB2991C013304EB820275
:1067AC00DBB204EB8303D268DB68049302F00303CF
:1067BC00022B0392029154D1BDF80E306448C3F3FE
:1067CC008917502F3E4628BF502606F1080166F364
:1067DC008F13C1F30901ADF80E3001F090FA0546A4
:1067EC00002800F09C8001F0B9FA0023082203A9CC
:1067FC00284601F0C5FA0299CB43DBB20133C9B28A
:10680C000331B6EB830F4FEA830204EB810125D9E8
:10681C005FFA82F80823A6EB0806284601F0B0FAC6
:10682C00F6B208F108034B4903F0FC033246284644
:10683C0001F0A6FA029B033703EB97070297D4F8F3
:10684C001834002B43D1D4F8106453E062689A4298
:10685C0094D8A260284606B0BDE8F08108233246E1
:10686C00E5E7012B5BD1BDF80C303948C3F383113C
:10687C00062928BF062161F38913023101F00F01AB
:10688C008900ADF80C3001F03AFA0546002846D0E4
:10689C0001F064FA0023082203A9284601F070FADB
:1068AC000026BDF80C20C2F38312B300964203F10C
:1068BC000803C4D202994A1CC9B20331029204EBF8
:1068CC0081010422284601F05BFA0136E9E72846EB
:1068DC0001F048FAFFF738FF80F00105EDB2B9E797
:1068EC00F3685B7923B1336829461B6830469847B7
:1068FC00F3681E68002EF3D1284601F033FA0DF12F
:10690C0007008DF8076000F037FDD4F818340BB988
:10691C00029BA3609DF8070000F052FDDAE7D4F863
:10692C00104454B90C4B0D480D49C01AC008000452
:10693C0040F0020000F05CF8CCE7236820469B682E
:10694C009847E3681C68ECE7002583E7381A0020B9
:10695C0000A00200441A002014A0020034A002007F
:10696C00C9A002002DE9F34704460E46924601A940
:10697C00012218469946FFF70DFE1B4F10B3019DDF
:10698C004FF00008AA1CC84508EB020123D1174898
:10699C00002100F0EFFE80F31000000440EA1440E8
:1069AC00E4006B1C04F03804DBB2EDB244F00104DB
:1069BC0007EB8303033544EA881444EA8624D86041
:1069CC0047F825403B781BB1FFF7C8FE0028FBD1E8
:1069DC0002B0BDE8F087C9B207EB81015AF8283044
:1069EC00CB6008F10108CEE7381A0020541E0020B5
:1069FC0000231A46FFF7B6BF07B50123019201AA7F
:106A0C00FFF7B0FF03B05DF804FB07B5CDE9002339
:106A1C0002236A46FFF7A6FF03B05DF804FB0000F3
:106A2C0030B50F4CD4F8102403460020114631B970
:106A3C00D96808714AB9C4F810340A6030BDC96805
:106A4C000D79854206D00968F1E7D26814680C60AC
:106A5C001360F3E701300A28E8D14FF0FF30EDE77F
:106A6C00381A002038B5084B0125D3F810441D7096
:106A7C0004B938BDE3685D71236820465B689847AC
:106A8C00E3681C68F4E700BF381A0020C38873B5AC
:106A9C0004460D4633B1144A00921449144A284650
:106AAC0000F009FF217A05291CD0637A4BB1A0882C
:106ABC00FFF734FE0F4B104953F82020284600F006
:106ACC00FAFE227A0D4BA08853F822600021FFF7C2
:106ADC0009FE0B4903463246284602B0BDE8704019
:106AEC0000F0E9BE02B070BD0CA10200F4A00200DF
:106AFC00ECA0020078A1020011A102009CA10200EE
:106B0C0014A1020010B5037A052B0C460FD0437A62
:106B1C0023B1084A0849204600F0CDFE074920461B
:106B2C0000F0C9FE2046BDE8104000F0B9BE002AB6
:106B3C00F8D0F3E70CA1020011A1020009A1020098
:106B4C002DE9F04385B01F460C9D002395F80C9061
:106B5C002B7306460C46904629463846FFF796FF9F
:106B6C00B8F1060F09D8DFE808F00412181F283313
:106B7C0040003146284600F09EFE00222946384649
:106B8C00FFF7C0FF85F80C9005B0BDE8F0832268D4
:106B9C003146284600F08FFEEFE7D4E9002331465A
:106BAC00284600F088FEE8E7A36800933146D4E954
:106BBC000023284600F07FFEDFE7E3680193A3681B
:106BCC0000933146D4E90023284600F074FED4E744
:106BDC0023690293E3680193A36800933146D4E9D7
:106BEC000023284600F067FEC7E763690393236917
:106BFC000293E3680193A36800933146D4E9002320
:106C0C00284600F058FEB8E708292DE9F74F8046D2
:106C1C000E4617461C463DD800251B7B2573214686
:106C2C0010460193FFF732FFDFF888A0DFF888B039
:106C3C00AE4232D918F805205946204600F03BFEEA
:106C4C000135082DF4D11D49DFF874A0DFF874B0BC
:106C5C00204600F030FE4FF000094E4524D918F8BC
:106C6C0009507E2D1ED8284603F000F9002814BFC9
:106C7C002A462E225946204600F01DFE09F1010934
:106C8C00B9F1080FE9D1012221463846FFF73AFF46
:106C9C00019B237303B0BDE8F08F5146204600F0F2
:106CAC000AFECDE72E22E5E75146204600F003FE12
:106CBC00E4E700BF24A102001EA1020028A10200EB
:106CCC0026A102002AA10200C30710B507D4F023A5
:106CDC00054A4008145C23401943115410BD0901A6
:106CEC00C9B20F23F4E700BF201F002030B5094BB9
:106CFC001C78094B0246196800239C4201DC0020D9
:106D0C0030BD11F83350954201EBC300F8D001337C
:106D1C00F3E700BFF01E0020301F002070B50446C2
:106D2C000D46FFF7E3FF30B1436823B129462046F7
:106D3C00BDE87040184770BD034B04481968002229
:106D4C00490800F02CBA00BFF41E0020F81E0020E9
:106D5C0010B5C0B2FFF7CAFF0446007801F00AFD77
:106D6C0063785A1E53425341834208D1044BD3E9F2
:106D7C000023134303D1BDE81040FFF7DDBF10BD66
:106D8C00181F002037B54308374AD35CC2074CBFE5
:106D9C001B0903F00F0304460D46042B25D8DFE82E
:106DAC0003F003262F3C4000F9B10121FFF78CFFC3
:106DBC0000230DF107008DF8073000F0DDFA0120FB
:106DCC00A4F12003C4F12001284A20FA01F100FAB1
:106DDC0003F30B43A040D2E9004120430B43C2E92B
:106DEC0000039DF8070000F0EBFA03B030BD00295A
:106DFC0018BF0221204603B0BDE83040FFF764BF46
:106E0C0049B10321FFF760FF0121204603B0BDE823
:106E1C003040FFF783BF0121ECE70029E5D10421C5
:106E2C00E8E709B10321E5E7FFF74EFF29462046C5
:106E3C00FFF774FF0DF107008DF8075000F09CFA76
:106E4C000120A4F12003C4F12001084A20FA01F129
:106E5C0000FA03F30B43A040D2E9004124EA0000FE
:106E6C0021EA0303BBE700BF201F0020181F0020EE
:106E7C002DE9F041124E134F00243378A34208DC65
:106E8C00114BD3E90023134318D0BDE8F041FFF7B1
:106E9C0053BF3D6805EBC40815F8340001F06AFCDB
:106EAC0098F801305A1E53425341181A414241413D
:106EBC0015F83400FFF766FF0134DEE7BDE8F0811A
:106ECC00F01E0020301F0020181F0020092AF7B5E3
:106EDC0005460C4616463ED901F084FBE8B11F4B23
:106EEC001F481D601F4B204F1C70204B002110228F
:106EFC001E6002F0E9FF1E4B00200021C3E90001D7
:106F0C00013CE4B20326FF2C0DD11A4A1A48002189
:106F1C0003B0BDE8F04000F037B901F02BFB0028BE
:106F2C00DDD003B0F0BD9DF8063015F834008DF8B7
:106F3C00046005EBC40223F007038DF8063001A9A9
:106F4C0093788DF805303A4601F056FB013CE4B2DB
:106F5C000028D8D0E5E70720E3E700BF301F00206A
:106F6C00201F0020F01E00205D6D0200F41E00208A
:106F7C00181F00207D6E0200BCA1020070B5084DE8
:106F8C00084E00242B789C4201D3002070BD33683E
:106F9C00012113F8340001F0A7FB0134F2E700BF24
:106FAC00F01E0020301F00201FB50021039001AA05
:106FBC0044F20100CDE9011100F004F805B05DF8D0
:106FCC0004FB000038B572B6FFF74CFDFFF7C6FBAB
:106FDC000028FBD1104B114C114D1249E41AE40856
:106FEC00240444F00100FFF703FDD5F8F030DB0773
:106FFC0000D500BE0C4944F00200FFF7F9FCBFF3CA
:10700C004F8FEA68094B02F4E0621343EB60BFF365
:10701C004F8F00BFFDE700BF14A0020034A0020098
:10702C0000ED00E0C0A10200CCA102000400FA05B2
:10703C0010B5D0E90243D1E90202A04272EB03037E
:10704C002CBF0120002010BD08B50A4800F0E9FA59
:10705C00094AD2E90031C018084BD3E9002341F1A9
:10706C000001904271EB030303D210F1807041F1E7
:10707C00000108BDDC180020381F0020B01F0020C4
:10708C0037B505460C460A4801A900F0FEFA60B176
:10709C000570446001A9064800F021FB18B10548B1
:1070AC0000F0C4FA002003B030BD0420FBE700BFA1
:1070BC009C1F0020DC18002038B5184B1B780446A8
:1070CC0013B90025284638BD0028FAD0037F03F0F9
:1070DC00FF05002BF5D0FFF7B7FFD4E90223904250
:1070EC0071EB030314D3236903B92377D4E9053077
:1070FC00984721690029E4D0237F03F0FF05002B7A
:10710C00DFD0D4E902325B1842F10002C4E902324A
:10711C000348214600F08BFED4E700BF401F00203F
:10712C00E8A1020013B5114B11491868019008230E
:10713C001048582200F096FA044698B90E4A0F48A7
:10714C0001A900F05FF9044660B90C48012100F078
:10715C004BFA01230A4A0948194600F0ADF9094BCC
:10716C0001221A70204602B010BD00BFE4A102003B
:10717C00441F00209C1F0020F5710200DC18002029
:10718C00FFFF7F00401F00203AB103685A614A1E7E
:10719C00514251411961002070470720704738B5A2
:1071AC00037F04460D4683B98261FFF74DFF2369C7
:1071BC00281841F10001C4E9020103B125612146FF
:1071CC000020BDE83840FFF75BBF002038BD00232E
:1071DC00014603770120FFF753BF0000014800F080
:1071EC0020BA00BFDC1800202DE9F347064600F05A
:1071FC0003FA40B1584AD2E9003113F1807341F1DE
:10720C000001C2E900310021304600F004FA38B127
:10721C00524C236823B12068FFF74EFF00232360F4
:10722C000121304600F0F7F920B1FFF70DFF4C4B70
:10723C00C3E900014B48494D4B4C4C4F01A900F0A0
:10724C005EFA002842D1DFF82081444CDFF820910F
:10725C00404600F002FE2368002872D07BB1236800
:10726C00D0E90252D3E902138D4272EB03032AD206
:10727C0023681B7F1BB12168404600F0D8FD4046B7
:10728C0000F0E5FDD0E9027A0546FFF7DDFE3F1A76
:10729C006AEB010A012F7AF1000345DBB7F5350FD4
:1072AC0040D3FFF79BFF334A02444FF4960300216F
:1072BC00484600F021F900283ED1236813B9304626
:1072CC0000F0F2F8256002B0BDE8F0870378012BDE
:1072DC001DD0022B09D14FF00008204600F0B7FD5D
:1072EC00002836D080F81C80F7E73BB941680B7F4B
:1072FC0023B901230B77204600F099FD01A9194809
:10730C0000F028FA01A9174800F0F9F999E741684B
:10731C002B68994202D100232B60EFE7204600F046
:10732C009FFDEBE7AA68C0E70021484600F069F929
:10733C002846FFF7C1FE01E00D28F9D00023236099
:10734C0086E7002BBFD1304602B0BDE8F04700F015
:10735C00AFB801233B70D1E7381F0020B81F0020C5
:10736C00B01F00209C1F0020E8A10200401F00203D
:10737C00DC180020FFFFB40070B5EFF3108672B676
:10738C000C4A946801239CB993600B4B0B4DD3F8BA
:10739C00801029401160C3F88050D3F884105160DC
:1073AC004FF0FF32C3F88420047006B962B670BD8A
:1073BC000370FAE7BC1F002000E100E0FC06FFBDF3
:1073CC00084B9A6810B55AB150B9EFF3108172B6E8
:1073DC00054A1C6814605C685460986001B962B618
:1073EC0010BD00BFBC1F002000E100E00346405868
:1073FC0082B028B100225A505B580193019B0120A6
:10740C0002B07047F8B5204B4479204E43F8242045
:10741C001F4A204B06EBC4049B1A2279DB081B0481
:10742C0032B143F002001C49FFF7E2FA0820F8BD24
:10743C0002680C88C2F8084590F904508A780479DF
:10744C005201002DD2B219DB14494F1987F80023D1
:10745C0001226D0904F01F0402FA04F441F82540DE
:10746C00427906EBC201012446F832000C7143F05C
:10747C0003000B49FFF7BCFA0020D8E7094904F0D8
:10748C000F040A55ECE700BFD01F0020C81F0020D6
:10749C0014A0020044A00200F4A1020000E100E0EC
:1074AC0016A2020014ED00E0036801221A60704776
:1074BC00036801225A60704773B501F15005AD00A5
:1074CC000068ADB24FF480348C400026C0F80843FD
:1074DC00C0F84843465101F5A8714559019522F071
:1074EC007F42019D40F82120C0F844430BB1C0F805
:1074FC00044302B070BD00002DE9F74F0D4622F099
:10750C007F4402684FF4803705F150068F40804667
:10751C00B60002EB8500C2F84873B6B2C2F8087325
:10752C00D2F8041599464FF0000BD0F84035C0F84E
:10753C00401542F806B05B1A9259009223F07F4333
:10754C00012B009A4FEA850A0CD1264B4FF4806030
:10755C0043F001039847D8F8003043F806B09B5924
:10756C000193019BD8F80010D1F80465C1F844735D
:10757C00A31B23F07F43012B1CD11A4B05F5A875D7
:10758C00013443F0010341F825404FF480609847E3
:10759C00D8F80030D3F804359E4209D1D8F8003021
:1075AC000020C3F84473C3F8047303B0BDE8F08F34
:1075BC000D20FAE78A44C9F1FF13CAF84045D1F807
:1075CC000405221A013A22F07F4203F57F439342CD
:1075DC00EED3002AE2D10134CAF84045D1F8043583
:1075EC009842DAE730A2020003680222C3F844236F
:1075FC0009B1C3F80423704700684FF48271FFF798
:10760C00F5BE4FF4803303FA01F10368C3F8481355
:10761C00C3F80813704750318900006889B2FFF72E
:10762C00E5BE0368D3F804057047000090F90430F8
:10763C00002B09DB5A09012103F01F0301FA03F3A4
:10764C004032024941F82230704700BF00E100E0AF
:10765C00024B034A1B681068184700BFD01F00205C
:10766C00C81F002030B5054659B1B2FBF3F403FB3B
:10767C001424A0B238B9C5E90010A860AA81EB8126
:10768C0030BD0E20FCE70920FAE737B550E8013F82
:10769C009DB2C48925448489A54228BF2D1B048929
:1076AC00A54202BFBFF32F8F002207E0C5EA0305F6
:1076BC0040E80154002CE9D14FF001028DF8032071
:1076CC000193019A0A609DF8031001F0FF0321B1A8
:1076DC00006810FA82F003B030BD1846FBE70A8848
:1076EC004B889A4209D150E8012FC2EA024240E885
:1076FC000123002BF7D1012070470020704737B5CC
:10770C0050E8023F1FFAA3F5C488A54202BFBFF39D
:10771C002F8F00220DE0C48925448489A54228BFFF
:10772C002D1BC3EA054540E80254002CE8D14FF06C
:10773C0001028DF803200193019A0A609DF8031051
:10774C0001F0FF0321B1006800EB124003B030BD23
:10775C001846FBE70A884B889A4209D150E8022F59
:10776C00C2EA224240E80223002BF7D101207047E5
:10777C000020704710B5034653E8000F0A4643E853
:10778C00002494F0000FF7D110BD10B5034653E858
:10779C00002F42EA010043E8000494F0000FF6D1F8
:1077AC0010BD10B5034653E8000F00EA010243E890
:1077BC00002494F0000FF6D110BD10B5034653E829
:1077CC00002F02EB010043E8000494F0000FF6D107
:1077DC0010BD10B5034653E8002FA2EB010043E89F
:1077EC00000494F0000FF6D110BD0121FFF7CDBFBE
:1077FC000021FFF7D6BF10B590B1D0E90123016885
:10780C009B1ADBB20A60013BDBB2FF2B026802D190
:10781C000020107110BD11684C1C14600B70F2E745
:10782C000E20F7E737B5054600240DF107008DF85B
:10783C000740FFF7A1FD2A686B68116899420ED9C1
:10784C00481E106011F8013CEC68298A01FB0344C6
:10785C00AB6811791B1ADBB2994238BF13719DF8D2
:10786C000700FFF7ADFD204603B030BD37B5054628
:10787C0000230DF107000C468DF80730FFF77CFD57
:10788C002A681368591C1160E968641A298AB4FBC8
:10789C00F1F41C709DF80700FFF792FD03B030BDAA
:1078AC00826810B504462AB143690168006998479B
:1078BC000023A36010BD0EB403B5039921B104AB32
:1078CC0001AA019300F076F802B05DF804EB03B066
:1078DC0070470A2938B504460D4602D10D21FFF731
:1078EC00F8FFA3682268591CA160D554D4E9013271
:1078FC009A4204D32046BDE83840FFF7D1BF38BDCB
:10790C002DE9F84F9846DDE90A43154682460F46A5
:10791C000A464FF00109AA420FD2C14538BFC146F1
:10792C0013F0010B01D16CB900240126B8F1010F41
:10793C001BD908F1FF386E43F8E709F10109B2FBD6
:10794C00F5F2E8E79B070ED5B8F1000F0CBF302617
:10795C002026A145E9D2013C31465046FFF7B9FF3C
:10796C00002CF6D1E0E72026F3E7B7FBF6F39D42B7
:10797C00E1D9DFF83C80B7FBF6F3504618F803105A
:10798C0006FB1377FFF7A5FF3346AB42B6FBF5F6C4
:10799C00F1D2BBF1000F02D00CB1A14501D3BDE86F
:1079AC00F88F20215046013CFFF793FFF4E700BF0E
:1079BC0036A202002DE9F74F0546174688460029E6
:1079CC0000F03E8118F8011B49B92B7B002B00F00D
:1079DC003781284603B0BDE8F04FFFF761BF25297A
:1079EC0040F0B780002698F800302D2B424608F165
:1079FC00010823D0302B24D02B2B25D000242A2B6C
:107A0C0002F1010123D13B681A1D1B683A601C442A
:107A1C000A4613782E2B26D101324FF0000A10465D
:107A2C0010F8011BA1F1300CBCF1090F1DD80A2371
:107A3C0003FB0A13A3F1300A0246F0E746F00106F5
:107A4C00D1E746F00206CEE746F00406CBE711F884
:107A5C00013CA3F130000928DBD80A2202FB0434D4
:107A6C00303C0A46CBE74FF0000A12F8011B01F03C
:107A7C00FB0068289046F8D0782909D86F290CD8D3
:107A8C00632962D022D8252963D0582900F0888038
:107A9C0098F80030002B95D197E770390829F7D862
:107AAC0001A353F821F000BF277C02009D7A02004D
:107ABC009D7A0200BD7B02009D7A02009B7B020036
:107ACC009D7A02009D7A0200AD7B0200642901D0F0
:107ADC006929DDD13A68D2F80090111D89EAE97262
:107AEC003960A2EBE9724FF0010B092A35DCD34562
:107AFC0038BFD3462CB1B9F1000F01DB720700D5AA
:107B0C00013CB30702D5BAF1000F03D0F00701D442
:107B1C004CBB0024B9F1000F2DDAC9F100092D215D
:107B2C002846FFF7D6FE06F00302022A04D1BAF16A
:107B3C00000F01D11CBB0024CDE9004653460A229C
:107B4C0049462846FFF7DCFEA2E73B681A1D197868
:107B5C003A602846FFF7BDFE9AE70A230BF1010BAA
:107B6C00B2FBF3F2C1E7A345D4D220212846013C55
:107B7C00FFF7AFFECCE77107D5D52B21D0E7A34596
:107B8C00DAD230212846013CFFF7A3FED2E7396850
:107B9C00CDE900460A1D3A6053460A220968D0E72F
:107BAC0039680A1D3A60CDE9004653461022F5E7C4
:107BBC003B681A1D3A6016F00106D3F8009024D1E8
:107BCC00B9F1000F03D0484602F0D3F90646B4428F
:107BDC001DD809F1FF3919F8011F00293FF458AFDE
:107BEC002846FFF776FEF6E728460136FFF771FECA
:107BFC0019F806100029F7D1A642BFF449AF20218D
:107C0C002846013CFFF765FEF6E70026F0E7202149
:107C1C002846013CFFF75DFED9E73B681A1D3A6028
:107C2C00302128461C68FFF754FE78212846FFF7C0
:107C3C0050FE00220823CDE900322146102280E7B5
:107C4C0003B0BDE8F08F00BF2DE9F84FB0F806A0E7
:107C5C004579D2F800B09DF828900AFB05F5043D53
:107C6C0088460BEB0301A94203F1040488BFA5EB82
:107C7C00030BB4FBFAF607460AFB1644C2F800B035
:107C8C004EB9AAEB04055D4528BF5D46BBF1000F5C
:107C9C0004D1BDE8F88F3F68013EF1E7043408EBEE
:107CAC0006003C442A46B9F1000F0DD02146ABEB3F
:107CBC00050B02F0E0F8DA452E443F6855464FF0CC
:107CCC00000428BF5D46E1E701462046EFE7FFF7D9
:107CDC0092BDF8B546790146721E054600239342C3
:107CEC002D6803D30024A64202D8F8BD0133F6E771
:107CFC000F682846FFF7BAFD01343946F3E72DE942
:107D0C00F843068ACD1C0746FFF78CFD043E35442C
:107D1C000446B5FBF6F5F0B14FF48073EDB28380F9
:107D2C00C680013D076081464FF00008A84512D27D
:107D3C003846FFF777FD064648B163790133637126
:107D4C0008F10108C9F8000007608146EEE72046FB
:107D5C00FFF7BFFF34462046BDE8F883012104300D
:107D6C00FFF72BBD10B5012104460430FFF731FDA0
:107D7C00C0B220B92046BDE81040FFF7AABF10BD25
:107D8C001FB503920022009203AAFFF75DFF05B016
:107D9C005DF804FB1FB503920122009203AAFFF7C2
:107DAC0053FF05B05DF804FB41DF7047064B10B57F
:107DBC0000241C70054B1C60BFF35F8F0449054801
:107DCC0000F01FF8204610BDDC1F0020E01F002033
:107DDC0050A20200D41F002008B501F049FE18B1D2
:107DEC00BDE80840FFF7E0BF20BF40BF20BF08BD83
:107DFC00836800225A60C3E904229A60DA601A6030
:107E0C0070470B684A684360934208BF00230160C7
:107E1C0008BF43607047436843B102689168526879
:107E2C000B449342436004BF00234360704770B51A
:107E3C00446806460D46206818B1B3682946984731
:107E4C0018B923682B60256070BD2468F3E743687C
:107E5C00186808B102681A60704743681868704760
:107E6C004368186800B97047884203D102681A60E9
:107E7C000120704703460068F4E7000010B50D4977
:107E8C00A1F59472914201D800200FE08C1AE30FF7
:107E9C0003EBE4035B1002EBC30452F83330834270
:107EAC0005D802D204F10802ECE7606810BD214647
:107EBC00E8E700BF5CA7020008B5FFF7DFFF024B45
:107ECC00002808BF184608BD1FA602004FF08053BB
:107EDC00D3F83001421C04BF4FF0704393F8E00F0D
:107EEC00831F5842584170474FF0704393F8E02F6E
:107EFC00062A09D1D3F8E83FC3F30313033B032B42
:107F0C0002D8024AD05C70470020704764A7020078
:107F1C004FF08053D3F83001421C04BF4FF0704334
:107F2C0093F8E00F062804D0A0F10F0358425841F3
:107F3C00704701207047000008B5FFF7C7FF40B13C
:107F4C004FF080538B4AD3F82433C3F30423C2F885
:107F5C004035FFF7C9FF10B1874B884A5A67FFF7C6
:107F6C00D7FF48B14FF080534FF08042D3F84432E2
:107F7C00C3F34233C2F83C35FFF7B6FF30B1804A49
:107F8C00D2F8FC3023F08073C2F8FC30FFF7C0FF4E
:107F9C0040B14FF080430022C3F80C21C3F81021EC
:107FAC00C3F83825FFF7A0FF20B14FF08043032220
:107FBC00C3F8A025FFF798FF60B1724B0522C3F8F8
:107FCC0010260122C3F888260022C3F818263F2267
:107FDC00C3F814264FF08053D3F83021511C09BF3D
:107FEC004FF07043D3F8343193F8E02FD3F8E83FD7
:107FFC0008BFC3F30313062A4ED1033B032B03D84C
:10800C00614AD35C002B49D04FF080525F4BD2F8C1
:10801C000414C3F82015D2F80814C3F82415D2F8A8
:10802C000C14C3F82815D2F81014C3F82C15D2F878
:10803C001414C3F83015D2F81814C3F83415D2F848
:10804C001C14C3F84015D2F82014C3F84415D2F808
:10805C002414C3F84815D2F82814C3F84C15D2F8D8
:10806C002C14C3F85015D2F83014C3F85415D2F8A8
:10807C003414C3F86015D2F83814C3F86415D2F868
:10808C003C14C3F86815D2F84014C3F86C15D2F838
:10809C004424C3F8702501E00F2AB5D0FFF716FF72
:1080AC0048B14FF080534FF08042D3F8583203F070
:1080BC004F03C2F8E43EFFF72BFF48B14FF080436B
:1080CC00D3F80024D20744BF6FF00102C3F8002498
:1080DC004FF08053D3F83021062A0ED1D3F8343127
:1080EC00033B032B02D82A4AD35C33B1294AD2F87A
:1080FC003C3743F48063C2F83C374FF01023D3F87D
:10810C000022002A03DBD3F80432002B2EDA224B98
:10811C000122C3F80425D3F80024002AFBD04FF029
:10812C0010221521C2F80012D3F80024002AFBD02B
:10813C004FF010231522C3F80422174BD3F8002458
:10814C00002AFBD00022C3F80425D3F80024002A0F
:10815C00FBD0BFF34F8F0A49104BCA6802F4E062A0
:10816C001343CB60BFF34F8F00BFFDE70C4B0D4AA1
:10817C001A6008BD0030014000C007400DF0ADBAD8
:10818C0000ED00E0005000405CA7020000C0004081
:10819C0060A702000010004000E001400400FA0556
:1081AC00E41800200090D003054A4FF0A043105C67
:1081BC00D3F8043523FA00F0C04300F001007047F7
:1081CC0068A70200044B1A5C012393404FF0A042B5
:1081DC00C2F80C35704700BF68A70200044B1A5C4C
:1081EC00012393404FF0A042C2F80835704700BFFE
:1081FC0068A7020008B50020FFF7F0FFBDE80840B3
:10820C000120FFF7EBBF08B50020FFF7DBFFBDE84F
:10821C0008400120FFF7D6BF074A4FF0A041105C81
:10822C00D1F804350122824022EA03001340C1F840
:10823C000805C1F80C35704768A702000C2809D056
:10824C000B2809D0092809D00D280CBF03204FF0AA
:10825C00FF307047002070470120704702207047A4
:10826C00C20708B5014608D54FF0A0430322C3F856
:10827C000C27C3F81027FFF7BDFF8B070AD54FF06B
:10828C00A0430C22C3F83027C3F82C27C3F82427AB
:10829C00C3F8342708BD000038B5074C051E04F19F
:1082AC00080318BF1C4623682BB11A6822605B6850
:1082BC0028469847F7E738BDEC1F002020B9054B3E
:1082CC0001225A70FFF7E8BF012802D1014A9070D1
:1082DC00F8E77047E41F002020B9034B01225A70C5
:1082EC00FFF7DABF704700BFE41F002038B50E4C13
:1082FC002378B3B90D486360A3602361E36000F099
:10830C00B7F8054601F0B4FB08B900F0BDF801233D
:10831C002370074BD3F800340BB10123A37028460C
:10832C0038BD8525F5E700BFE41F0020C982020097
:10833C000000014037B50D4C00230DF107008DF8FE
:10834C000730FFF719F8E368013BE360E36833B9E2
:10835C00074BD3F8005415B900F0A8F8A5709DF898
:10836C000700FFF72DF803B030BD00BFE41F00205D
:10837C0000000140012813B50CD0032820D038B9D7
:10838C00134B0122C3F88020BFF34F8FBFF36F8FC5
:10839C0002B010BD0F4C00230DF107008DF8073013
:1083AC00FEF7EAFF23780BB9FFF7A0FFE3689DF80F
:1083BC0007000133E3600123A370FFF701F8E7E73F
:1083CC0000F062F802B0BDE81040FFF7B3BF00BF89
:1083DC0000E100E0E41F00201FB503788DF80030A9
:1083EC004368019383688DF80830C368054A03938A
:1083FC00054B684653F8213052F82110984705B0C8
:10840C005DF804FBF81F0020FC1F0020F0B50646A9
:10841C000F4B16F804CB43F82C200E4B17460C468A
:10842C000A6943F82C200FCC89B06D460FC594E82F
:10843C000F00002F85E80F00074ACDF810C008BFC9
:10844C003A466946304600F0EDFA09B0F0BD00BF7F
:10845C00FC1F0020F81F0020E583020000F1804083
:10846C00002382B0036003680193019B02B0704744
:10847C00044B0246187918B91A6001229A80704789
:10848C008520704700200020074B1A68D20704D4BF
:10849C00C02283F8002301221A604FF0804301228E
:1084AC00C3F81825704700BF00E100E04FF0804290
:1084BC0008B50223C2F808334FF48270FFF7CEFFE1
:1084CC000123D360D2F81834DB03FBD408BD0000C1
:1084DC004FF0804110B5D1F8003163B14FF480708A
:1084EC00FFF7BCFF0D4B58790122C1F8082310B9D6
:1084FC005A711B6898474FF08042D2F8043163B12F
:10850C004FF48270FFF7AAFF0223C2F80833034B23
:10851C00BDE810401B680120184710BD002000204A
:10852C0000F1804000F5C040002382B00360036876
:10853C000193019B02B07047800000F1A040D0F87D
:10854C00002722F44032C0F80027D0F8003743EA65
:10855C000143C0F800377047054B4FF0FF32072836
:10856C0043F8202084BFC01880F84820704700BF13
:10857C000820002010B5184991F8583053BB4FF023
:10858C00FF3222FA03F0C00748BFC81803F10103F9
:10859C0048BF80F83020202BF3D10024E0B2013406
:1085AC00FFF7DAFF0C2CF9D10C4B0022C0204A65E6
:1085BC0083F80603402018604FF4BE70FFF7B0FF3D
:1085CC00074B4FF00040C3F80403012381F85830E7
:1085DC00104610BD0820FCE70820002000E100E058
:1085EC0000600040034B93F85800003818BF01207E
:1085FC00704700BF08200020F0B5394E331893F9AE
:10860C003030002B69DA8D78C5F34005002D0BBF97
:10861C00082300230C240824A34201D10420F0BD1C
:10862C0056F82370013743D137185CB246F8232033
:10863C0087F8304015B9F21882F848008A78550747
:10864C0016D4D70736D5820002F1A042D2F80057D3
:10865C0025F00205C2F80057224FC50800F0070CA0
:10866C00012202FA0CF217F805C042EA0C027A5504
:10867C008A780D7812F0020225D09B0003F180431A
:10868C0003F5C0430002D3F8102522F4473222F43C
:10869C004072C3F810252D04D3F8102500F4F850BF
:1086AC0005F4403528431043C3F810050020B6E705
:1086BC000133B1E74D7800F5E0724FF0A047AD0003
:1086CC0047F82250C8E7083C46FA84F494F8500066
:1086DC0040EA851584F85050E8E708209FE700BF72
:1086EC00082000205C20002038B5204C251895F976
:1086FC003020072A18DD083A44FA82F494F85030F6
:10870C009B09032B0BD14FF0A043D3F81015C1409C
:10871C0001F001010231BDE83840FFF70DBF012B1C
:10872C000CBF02210321F6E7D3B2072B1DD893000F
:10873C0003F1804303F5C043D3F8100540F001006A
:10874C00C3F8100502F1400040B2800080B2FFF780
:10875C00E7FE51B195F9303054F823302BB1012399
:10876C0003FA02F2024BC3F8042338BD08200020A0
:10877C00006000404FF0A043D3F8103523FA00F00E
:10878C0000F00100704700002DE9F74F00244E4D1A
:10879C0001944FF48072012102F1804303F5C04330
:1087AC0090B21B68012B06D1D5F804330B4202D0D2
:1087BC00FFF7B6FE0C430432B2F5907F4FEA41014D
:1087CC00EAD1414BD3F87C31012B0CD14FF4BE7064
:1087DC00FFF7A6FE4FF0A04344F00044D3F8202549
:1087EC000192C3F82025E3B2D3B1384F00250126FE
:1087FC00344210D0AB0003F1804303F5C043D3F8EF
:10880C001005D3F8101557F8253023B1C1F30141E9
:10881C00C0F3042098470135082D4FEA4606E7D1EE
:10882C00002C48DA294D4FF0A048294E4FF0000992
:10883C00012716F9013B5A1C31D0C3F3C20208328E
:10884C006A44DCB212F8042C03F03F0A03F007036D
:10885C0007FA03F31A4222D00AF5E073504658F88F
:10886C002330C3F3014BBBF1020F0CBF03210221D8
:10887C00FFF762FE07FA0AF3C8F8203505EB0A0386
:10888C0093F9303055F823304BB1A109032904D0AA
:10889C00BBF1020F12D1012901D15046984709F1C1
:1088AC000109B9F1040FC4D1D8F820350193C8F8E7
:1088BC002035002BB9D103B0BDE8F08FBBF1030F0D
:1088CC00EDD10229E8E700BF00600040082000203D
:1088DC00582000200020704770470023435082B07E
:1088EC0043580193019B02B0704700001FB5012350
:1088FC008DF80030044BCDE90110D3E90012684625
:10890C00904705B05DF804FB642000207FB5434A16
:10891C00D2F82461002E60D010464FF49271FFF70C
:10892C00DCFF02238DF80030D2F88034C2F880349A
:10893C000393D2F83C350293394BDA68019200224A
:10894C00C3E906226846D3E9001290473348D0F8B1
:10895C00443173B14FF4A271FFF7BFFF304B9A69EA
:10896C003AB10022C3E90622D968D0F83C05FFF7DA
:10897C00BDFF2A48D0F82031ABB14FF49071FFF70E
:10898C00ACFF0123C360264B5A6962B1D0F84C1579
:10899C000291002299688DF8002001915A61684675
:1089AC00D3E9001290471D48D0F858319BB14FF4D1
:1089BC00AC71FFF792FF1A4B5A6962B1D0F84C15A3
:1089CC000291002299688DF8002001915A61684645
:1089DC00D3E90012904704B070BDD2F81031002BCF
:1089EC00B4D04FF488711046FFF777FF0C4BD2F8D8
:1089FC003C0599698842A9D1DC69D96864B1D2F87F
:108A0C00005225F02005C2F800521A699C61DA6008
:108A1C00DE61FFF76BFF99E79C61FAE700200040ED
:108A2C00642000202DE9F8435A4E90F8048024234A
:108A3C0003FB0863044693F820300D469146002B47
:108A4C0040F0A38054490068FFF744FF0746002814
:108A5C0040F09D802A682068511C0BD04FF0A0413B
:108A6C0001239340C1F8083502F5E0734FF0030C75
:108A7C0041F823C069684B1C1FBF01F5E0734FF030
:108A8C00A04C4FF0000E4CF823E0AB69C0F8243535
:108A9C0095F814C06B7DBCF1010F4CEA0303C0F8D0
:108AAC006C35C0F80C25C0F814151DD1AA68531CE0
:108ABC001FBF02F5E0734FF0A0414FF0000C41F8DE
:108ACC0023C0EB68591C0BD04FF0A04C01219940EE
:108ADC00CCF8081503F5E0714FF0030E4CF821E0CB
:108AEC00C0F80835C0F81025242202FB08F2B31890
:108AFC00C3F804902B69B350B9F1000F2FD04FF489
:108B0C0088712A7FFFF7E9FE20684FF49071FFF718
:108B1C00E4FE20684FF49271FFF7DFFE20684FF4FB
:108B2C00A271FFF7DAFE4FF4AC712068FFF7D5FEA7
:108B3C0023681A49C3F80413190B43F30733520182
:108B4C00002BD2B21CDB1648C51885F80023012275
:108B5C005B0901F01F0102FA01F140F823102368B0
:108B6C000822C3F80025242303FB08660023C6E96A
:108B7C0006337361012386F820303846BDE8F8834C
:108B8C00084B01F00F015A54E9E70827F5E71127C4
:108B9C00F3E700BF64200020198902001003420093
:108BAC0000E100E014ED00E0F8B5444C0579242315
:108BBC0003FB054302465B680068ABB1404BC0F851
:108BCC00083340F30733002B4FEA10310CDB01F074
:108BDC001F065B090121B14020333A4E46F82310A1
:108BEC00BFF34F8FBFF36F8FD0F8003223F0200309
:108BFC00C0F80032242303FB05439B692BB14FF4CF
:108C0C00A271FFF76AFE012343604FF4AC71FFF7CA
:108C1C0064FE0123C360242303FB0543D0F85811E1
:108C2C000029FBD0996919B1D0F844110029F5D06D
:108C3C000023C0F800351368D3F80C75D3F814650D
:108C4C00D3F80825D3F810154FF0FF3C6745C3F84F
:108C5C000CC518BF07F5E077C3F814C5C3F808C5F1
:108C6C00C3F810C51EBF4FF0A0434FF0020C43F8E1
:108C7C0027C0771C1FBF4FF0A04306F5E0760227F4
:108C8C0043F826704E1C1FBF01F5E0714FF0A04356
:108C9C00022643F82160531C1FBF4FF0A04302F57E
:108CAC00E072022143F82210FFF716FE242303FB87
:108CBC000544002384F820306360F8BD6420002054
:108CCC001003420000E100E00279044B242101FB77
:108CDC0002335869003818BF012070476420002007
:108CEC0001F06043B3F1005F2DE9F047064688467A
:108CFC0092463BD190F80490FFF7E6FF044600281B
:108D0C0036D11D4F3068242505FB09754FF4907141
:108D1C00C5F814A0C5F80880FFF7DFFD4FF4AC715F
:108D2C003068FFF7DAFD33686A69A968C3F844153F
:108D3C00C3F8482501229A606A68DAB9D3F8202171
:108D4C00D3F858011AB90028F8D00F2007E00028F2
:108D5C00FBD10122DA60D3F85821002AFBD024235E
:108D6C0003FB097700237B61BDE8F0871020FBE74C
:108D7C001120F9E72046F7E7642000200220FFF7D6
:108D8C004BBA00002DE9F04780460D46FFF756FA26
:108D9C000328044610D8012D10D0022D30D05DB917
:108DAC001A48FEF714FA1A4B04EB440213449D784C
:108DBC00184B1B5DAB4219D0BDE8F087144E00EB8D
:108DCC004003F218F55C5378470053B1DFF8489034
:108DDC000E484A464FF48041FEF7E1F908B989F88C
:108DEC00008027443E440B4BB2781A55002DE3D03B
:108DFC000A4B1B68002BDFD02846BDE8F04718470C
:108E0C0000EB4004024804446578EFE7B0200020F2
:108E1C00F0200020092100208820002004210020BF
:108E2C0000780221FFF7AEBF08B5074B1B783BB1AA
:108E3C000020FFF7D3F9BDE808400120FFF7CEB9B9
:108E4C00BDE80840FFF7D6B989200020F8B57A4C68
:108E5C00237805461BB100232370FFF7E5FF172D80
:108E6C0000F28780DFE805F00C1717425364757F1A
:108E7C00878C878C949999999999C3C8D0D8E3E336
:108E8C00FFF7D2FF6D48FEF7A2F96D4B00220446A6
:108E9C001A702046F8BD0020FFF786F9F0B10020CB
:108EAC00FFF79CF9022D0CBF4FF4E1644FF47A6488
:108EBC00634B1D7000254FF400464FF47A70294621
:108ECC004FF4FA620023E4FB060100F00FFF2A4680
:108EDC000146BDE8F8405948FEF761B9FFF772F951
:108EEC00022D0CBFC8244FF4C874E1E70020FFF733
:108EFC005BF940B10020FFF771F94FF44874504B07
:108F0C0003221A70D6E7FFF75DF9C824F7E70020B3
:108F1C00FFF74AF938B10020FFF760F94FF47A6493
:108F2C00474B0422EDE7FFF74DF94FF4C874F7E710
:108F3C000020FFF739F948B10020FFF74FF9404BFB
:108F4C0005221A7040F6CD410022C2E7FFF73AF92C
:108F5C00F5E70020FFF760F9394B06221A70002262
:108F6C0040F26661B5E70020FFF72CF9344B07227D
:108F7C001A7000248DE701202070FFF74DF9EEE701
:108F8C0001202070FFF748F900224FF40051A0E7B0
:108F9C00FFF739F92A4B0C22EAE72A482A4EFEF74A
:108FAC0016F9D5F1110504461CD0D8B9012D13D0F2
:108FBC00C820454321464FF400474FF47A704FF4D4
:108FCC00FA620023C5FB070100F090FE2246014621
:108FDC001C48FEF7E4F804460220FFF7F3F80123DF
:108FEC00337056E70220FFF7F9F80023F8E7FFF794
:108FFC001BFF134B1222BBE7FFF716FF0020FFF7F6
:10900C00E1F80F4B1322B3E7FFF70EFF0120FFF738
:10901C00D9F80B4B1422ABE7FFF706FF0020FFF744
:10902C00D1F80120FFF7CEF8054B1522A0E7FFF78A
:10903C00EAF8034B1D709CE700210020D020002093
:10904C00082100209020002089200020044B1B6860
:10905C00DB0703D5034B1878FFF7F8BE704700BF4A
:10906C00FC20002008210020044B1B6813F0010396
:10907C0001D0FFF7EBBE1846704700BFFC20002064
:10908C0038B51C4B18601C4B10F0020405461960D7
:10909C001AD01A4B1A480E221A700F22DA701022AC
:1090AC009A7111225A72042140F23332FDF70EFFED
:1090BC00044648B9FDF762FF044628B90146114A37
:1090CC001148FEF761F80446EB0711D50120FFF7B4
:1090DC00C7F86CB921460D4A0D48FEF755F8044601
:1090EC0030B9BDE838400B4A0B480121FEF74CB8AB
:1090FC00204638BDFC20002004210020F020002058
:10910C0088A702002D8E0200ACA702005990020025
:10911C00B0A70200898D0200A8A7020072DF704779
:10912C0073DF704774DF704777DF704708B50F4BFC
:10913C001878FFF7F7FF08B1FDF736FF0020FFF7AF
:10914C0093FF08B1FDF730FF094B0A480A49C01AD2
:10915C00C008000440F00300FDF74AFC064800F08C
:10916C00B6F9064B00221A7008BD00BFF818002093
:10917C0014A0020034A00200B4A702000D210020AC
:10918C000E38032838B532D8194B1A7822BB012572
:10919C001D701848184B1949194CC01AC008000406
:1091AC0040F00300FDF724FC144800F090F92178FE
:1091BC0004222846FFF7B8FF08B1FDF7F5FE20782A
:1091CC000121FFF7ADFF08B1FDF7EEFE0220FFF71E
:1091DC004BFF08B1FDF7E8FE0A4800224FF470215E
:1091EC00FDF7DDFF18B1BDE83840FDF7DDBE38BD39
:1091FC000D21002034A0020014A00200C4A702001C
:10920C00F81800204821002000B54FF4804193B09D
:10921C000020FDF753FA08B1FDF7C6FEFDF78EF9F5
:10922C00FDF780FF08B1FDF7BFFE0021304A314841
:10923C00FDF7AAFF30490320FFF722FF08B1FDF725
:10924C00B3FEFEF7B3FD08B1FDF7AEFE00F0D2FBA6
:10925C0008B1FDF7A9FE002303A90120039300F038
:10926C003FFC08B1FDF7A0FE03A800F0D3FC08B149
:10927C00FDF79AFE5923ADF80030204B02933C22A7
:10928C001723002103A8ADF8043000F01DFE0423C1
:10929C008DF80F301A4BCDF830D01822002118461B
:1092AC0000F012FE05220270C8228260154A03A843
:1092BC0052F8041B00F089F908B1FDF775FE104A4D
:1092CC0010491148FFF72AFF08B1FDF76DFE0F4852
:1092DC000F4B1049C01AC008000440F00300FDF702
:1092EC0087FBFDF73BFA0028FBD1FEF775FDF8E78D
:1092FC0039910200E8A702008D910200F9180020B4
:10930C0010210020E8180020F818002034A00200DA
:10931C0014A00200D4A702000369C26893429CBF48
:10932C0080681B18013B981A70472DE9F843D0E967
:10933C0002940546A9EB04084068904520440F466A
:10934C00144404D900F097FDEC60BDE8F883424664
:10935C00A4EB090400F08FFD6868224607EB0801B6
:10936C00F0E72DE9F843C5680646894617464FF0E5
:10937C0000083469B3687068A54228BFE418013C42
:10938C00621B5C1BBC4228BF3C46944228BF14465F
:10939C0049462844224600F06EFDB3682544AB4292
:1093AC0008BF00253F1BA044A144F560E1D1404615
:1093BC00BDE8F88310B5114C114AA2610223C4E92F
:1093CC000433104BE361A2644FF400730E4A0F494F
:1093DC002362E26400231022E01DA3626362E36255
:1093EC00A3656365E365226500F0A1FD084920468D
:1093FC0000F09DFD2023A37110BD00BF682100204B
:10940C00ECA70200F0210020E0210020F5A70200CB
:10941C00F9A7020070B5164B182400FB04451D4437
:10942C0004FB00331646DC6A012C0ED0022C18D03B
:10943C00E4B92846FFF770FF864204D83246284626
:10944C00FFF773FF3446204670BD2846FFF764FFD4
:10945C008642344628BF044622462846FFF765FF5D
:10946C00F1E72846BDE87040FFF77BBF0024EAE730
:10947C006821002073B50E4B1B7804460D4616462A
:10948C000BB9FFF797FF00230DF107008DF807309C
:10949C00FDF772FF324629462046FFF7BBFF044614
:1094AC009DF80700FDF78CFF204602B070BD00BF91
:1094BC006821002038B5054608460C4600F059FDD9
:1094CC00214602462846BDE83840FFF7D3BF014687
:1094DC000020FFF7EFBF6DDF704779DF70477DDF4E
:1094EC00704764DF70472DE9F04F85B000250E9C66
:1094FC00BDF83CB0B4F800A00191074690461E465A
:10950C00A9463A884A450DDC45B12388013BA3EBBB
:10951C000A039BB2FF2B3AD806F80A30002005B09C
:10952C00BDE8F08F7A6852F82900039000220DF103
:10953C000B0103A8FFF7D5FF0028F0D19DF80B20F5
:10954C00424521D12288002D14BF0020022002EBBD
:10955C000801014459451ADC3DB9013292B2019B14
:10956C002280B35422880132228022880DF10B0113
:10957C00324403A8FFF7B5FF0028D0D121889DF80D
:10958C000B200A442280012509F10109B9E70C20BE
:10959C00C5E72DE9F341089FBDF824801546CDE9B8
:1095AC000078022204461E46FFF79DFF50B9334651
:1095BC00102229462046CDE9087802B0BDE8F041DA
:1095CC00FFF791BF02B0BDE8F0812DE9F04F002309
:1095DC001788138090F82D3085B006460D4614463A
:1095EC005BB3082F01D80C2028E102A8FFF773FF0A
:1095FC00002840F023812388DDF809100822EA5462
:10960C00238801339BB21B222380EA542388013325
:10961C009BB2EA182380E950BDF80D309380238863
:10962C009DF8082006339BB212F0FE0218BF0122EF
:10963C002380EA54238801332380B378FBB1238839
:10964C000433BB42CFD802A8FFF747FF002840F0F5
:10965C00F58023880322EA54238801339BB2192214
:10966C002380EA542388BDF8082001339BB2E91803
:10967C002380EA54120A4A70238802332380F2783A
:10968C009AB12388D91CB942ADD80221E954238858
:10969C0001339BB201212380E95423880B449BB2F4
:1096AC002380EA5423880B4423807268AAB1238850
:1096BC00D91CB94297D8022192F90020E954238889
:1096CC0001339BB20A212380E954238801339BB2D6
:1096DC002380EA542388013323803389002B40F004
:1096EC00A180338A5BB1CDE900472B4607220321C9
:1096FC0006F11000FFF74DFF002840F09F80338BE0
:10970C005BB1CDE900472B461522142106F1180058
:10971C00FFF73FFF002840F09180326A002A40F0AA
:10972C009080D6F82480B8F1000F30D0B8F804300F
:10973C002188981C8A1C0244BA423FF654AFFE287A
:10974C003FF651AF03336B54238801339BB2FF2296
:10975C002380EA54238801339BB22380B8F800207D
:10976C00EA54E918120A4A702088023080B220802C
:10977C00B8F804205AB1D8F8081000296BD0284446
:10978C0000F079FB2388B8F804201344238096F862
:10979C002C30002B40F09880307800284ED0338845
:1097AC00012B58D0228802F1020CBC453FF61BAFAE
:1097BC00012805D17378023313449F42FFF413AF91
:1097CC00023FBF1ABFB202A905EB0C00ADF808703E
:1097DC00FFF785FE90BB3178BDF80830022900F008
:1097EC00B98072789A4202D39F4280F0B1800129ED
:1097FC0040F0B280974293B2C0F0AE80ADF8083022
:10980C000821BDF80830FE2B3FF6EDAE228801335F
:10981C00AB542288013292B22280A954228813447C
:10982C0023800BE0CDE900472B460622022106F1EE
:10983C000800FFF7AEFE00283FF453AF05B0BDE8BB
:10984C00F08FB4F800C00CF10603BB423FF6CBAE70
:10985C001188052901D80720F0E76FF4486E01EB59
:10986C000E039BB24FF27D3E7345F4D95388052B02
:10987C00F1D96FF44860181880B27045EBD94FF6E7
:10988C00FF70814201D09942E5D8052305F80C30D0
:10989C00238801339BB212212380E954238801339E
:1098AC009BB223801188E954E818090A4170238877
:1098BC0002339BB223805288EA54E918120A4A7088
:1098CC002388023323802CE7B36A002BC3D04FF0DC
:1098DC0000084FF00C0A4FF0160BB16A5FFA88F2D1
:1098EC000AFB02F201EB0209B9F80430981CFE28BD
:1098FC003FF679AE208803332B54238801339BB277
:10990C00238005F803B0238801339BB223808A5A45
:10991C00EA54E918120A4A702088023080B220807A
:10992C00B9F804205AB1D9F80810002993D028446A
:10993C0000F0A1FA2388B9F804201344238096F888
:10994C002C2008F101085FFA88F39A42C5D823E766
:10995C00092156E79F42FBD2ADF8087050E710DFA3
:10996C007047000013B5044609496846FEF749FAEA
:10997C00019808B902B010BDD0E9003120469847D3
:10998C0018B16846FEF747FAF2E71120F2E700BF7C
:10999C000CA8020013B5044607496846FEF731FAD5
:1099AC00019B0BB902B010BD2046D3E900219047B2
:1099BC006846FEF730FAF3E718A802000B4991F855
:1099CC0016335A09EC231341DB0706D5084B9A686A
:1099DC003AB94FF480030B60704742F20200FDF776
:1099EC00E3BA1A6842F480021A60704700E100E0A2
:1099FC00BC1F0020F7B5194F3C7864BB184E0125ED
:109A0C0020463570FFF7AEFF112821D02046FFF716
:109A1C00C1FF144B8DF80340186801900DF1030041
:109A2C00FDF7AAFC104901A8FFF799FF0446B0FA0C
:109A3C0080F0400938709DF80300FDF7C1FC3CB97B
:109A4C000A4B34701C70FFF7B9FF2846FFF7A2FFD2
:109A5C00204603B0F0BD0824FAE700BFF123002034
:109A6C00F023002008A80200D16F0200F22300208E
:109A7C00014B1878704700BFF123002060DF70475E
:109A8C0069DF704761DF704730B5134B1B7891B0BD
:109A9C00FBB1124D34240DF1020103A8ADF80240C4
:109AAC00FFF7F0FF70B9294601A8FEF7AAF9029B4F
:109ABC00002BF0D003A8D3E90021904701A8FEF7B2
:109ACC00AAF9F4E7052804D011B0BDE83040FDF741
:109ADC006BBA11B030BD00BFF32300205CAA0200AA
:109AEC0030B50C4685B0002900F082800023CDE90A
:109AFC000133404A039301230A608DF804008DF86A
:109B0C00063001A906232020ADF80830FFF7B8FF76
:109B1C0060B1FEF7D1F9384B3849024638481B1A68
:109B2C00DB081B0443F00100FCF766FF00232268EE
:109B3C00039301A94020CDE90133FFF7A1FF60B1E8
:109B4C00FEF7BAF92C4B2F4902462D481B1ADB089D
:109B5C001B0443F00100FCF74FFF00232268039322
:109B6C0001A90120CDE90133FFF78AFF60B1FEF7AF
:109B7C00A3F9214B2449024621481B1ADB081B047C
:109B8C0043F00100FCF738FF0023CDE902332268D3
:109B9C00F82301A9A1200193FFF772FF60B1FEF732
:109BAC008BF9154B1949024615481B1ADB081B0487
:109BBC0043F00100FCF720FF00252268039501A962
:109BCC00A020CDE90155FFF75BFF034668B1FEF716
:109BDC0073F9094B0E49024609481B1ADB081B0492
:109BEC0043F00100FCF708FF2B46184605B030BDCA
:109BFC000E23FAE7C81800205CA0020024A802007B
:109C0C0014A002006AA80200B6A8020002A9020071
:109C1C0053A90200F8B506460768FFF72FFF336813
:109C2C00BB4205461DD91948194C1A49241AE40897
:109C3C00240444F002042046FCF7DAFE336816498B
:109C4C003A462046FCF7E1FE4FF080533268D3F8D9
:109C5C000C3112499B0203F100539A1A2046FCF76F
:109C6C00CBFE25B90E4B01221A702846F8BD2846AA
:109C7C00FEF722F9064B0B49024604481B1ADB0877
:109C8C001B0443F00100FCF7B7FEEEE714A0020042
:109C9C005CA00200A6A90200D5A9020006AA020037
:109CAC00F323002030AA02004BDF70471FB50E4C87
:109CBC0001A8FFF7F9FF70B9214602A8FEF7A1F839
:109CCC00039B002BF4D00198D3E90021904702A804
:109CDC00FEF7A1F8F4E7052804D004B0BDE8104065
:109CEC00FDF762B904B010BD74AA020053EA020C6D
:109CFC0061D02DE9F04BB3FA83F51E0007BFB2FA21
:109D0C0082F502FA05F403FA05F41646C5F12005AE
:109D1C001EBF22FA05F73C43203556EA044C4FEAA5
:109D2C00144418BF0134A3464FF00009C8469042B2
:109D3C0071EB030C39D3094207BFB0FA80F700FA74
:109D4C0007F6B1FA81F701FA07F6C7F120071EBF33
:109D5C0020FA07FC46EA0C062037B6FBFBFC7F1BFF
:109D6C00103F07F01F04C4F120060CFA04F42CFA7F
:109D7C0006F644BF34460026202FA4BF26460024F6
:109D8C0054EA060C08BF012418EB040849EB060939
:109D9C00A4FB027CC01B06FB02CC04FB03CC71EBC6
:109DAC000C01904271EB030CC5D20B46024649469E
:109DBC004046BDE8F08BB2FBF3F200007F2805D8DB
:109DCC00034B185C034B5B5C1840704700207047DA
:109DDC008CAA02000CAB0200A0F16103192B98BFF6
:109DEC0020387047A0F14103192B98BF20307047E1
:109DFC007F2805D8034B185C034B5B5C18407047FD
:109E0C00002070478CAA02000CAB0200A0F1610389
:109E1C00192B98BF20387047A0F14103192B98BF1C
:109E2C00203070477F299ABF017001206FF02E00FF
:109E3C0070475AB10A787F2A0AD800B10260002113
:109E4C0019605960501A18BF0120704700207047E4
:109E5C006FF02E007047000008B5034B5B689B68E1
:109E6C001B68984708BD00BF1019002008B50921D0
:109E7C00FFF7F2FF08BD844640EA010313F0030F1D
:109E8C0018D18446202A0BD32DE9F007B1E8F80746
:109E9C00A0E8F807A2F12002202AF7D2BDE8F007CB
:109EAC00042A07D351F8043B40F8043BA2F1040206
:109EBC00042AF7D2002A05D011F8013B00F8013B27
:109ECC00013AF9D1604670478446002A2DD010F033
:109EDC00030F04D000F8011B013A26D0F7E7C9B2F2
:109EEC0041EA012141EA0141202A12D3A2F12002C8
:109EFC002DE9F0030B460C460D460E460F468846E0
:109F0C008946A0E8FA03203AFBD2BDE8F0032032E0
:109F1C000BD0042A05D340F8041B043A05D0042ABC
:109F2C00F9D200F8011B013AFBD16046704702469A
:109F3C0010F0030F16D111F0030F13D12DE9F0001F
:109F4C004FF001374FF0803351F8044BA4EB070569
:109F5C0025EA04051D4002D142F8044BF4E7A1F1B7
:109F6C000401F0BC11F8013B02F8013B002BF9D1C4
:109F7C00704700F1010110F0030F11D010F8012B04
:109F8C00002A23D010F0030F0AD010F8012B002A5E
:109F9C001CD010F0030F03D010F8012B002A15D0A1
:109FAC002DE970004FF001324FF0803350F8044B24
:109FBC00A4EB020525EA04051D4000D1F6E7A0F14B
:109FCC00040070BC10F8012B002AFBD1A0EB01009F
:049FDC0070470000CA
:089FE000E58202000000000010
:089FE80081830200000000006B
:109FF000959A020000000000B99C020000000000D9
:10A0000068190020301A0020381A0020701900202A
:04A010001800000034
:10A0140070A702000000000076A702000000000004
:10A024007DA702000000000081A7020000000000DC
:10A03400DAA0020000000303B0A102000000000047
:10A04400D9A10200000000006AA70200000000007D
:10A0540000A80200000003034DAA0200000003034D
:10A0640068AA02000000030346A2020000000000E8
:08A074005CA2020000000000E4
:10A07C00ACA0020000000000B8A00200D418002020
:10A08C00FFFFFFFFFFFFFFFFFFFFFFFFFFFFFFFFD4
:10A09C0000000000000000000000D60106000000D7
:10A0AC00F5640200DD6402008D6402007561727457
:10A0BC005F6C6F675F6261636B656E6400426163C6
:10A0CC006B656E647320666C757368656400617093
:10A0DC0070000000581E00207F000000D81E0020D9
:10A0EC001B5B313B33316D0025734C6F6773206400
:10A0FC00726F70706564202825642925730D0A0021
:10A10C001B5B306D002573003C25733E2025733A94
:10A11C002000202530327800202020007C00256390
:10A12C00001B5B313B33306D001B5B313B33326DBD
:10A13C00001B5B313B33336D001B5B313B33346DA8
:10A14C00001B5B313B33356D001B5B313B33366D94
:10A15C00001B5B313B33376D007761726E696E6744
:10A16C0000696E666F006465627567000CA1020081
:10A17C002DA10200ECA0020035A102003DA10200BD
:10A18C0045A102004DA1020055A102005DA10200F3
:10A19C0000000000C6A1020065A102006DA1020032
:10A1AC0072A102006170705F627574746F6E000052
:10A1BC00F81E0020466174616C206572726F72002B
:10A1CC0053797374656D207265736574006170707A
:10A1DC005F74696D657200000100060000000000EC
:10A1EC00341F00203D70020052544320696E73747A
:10A1FC00616E636520616C726561647920696E695A
:10A20C007469616C697A65642E005254433A206912
:10A21C006E697469616C697A65642E0000000000D7
:10A22C00000000000738FDD8704730313233343528
:10A23C00363738394142434445467077725F6D6713
:10A24C006D740000E89F0200E89F0200040000000B
:10A25C00736F72746C697374004E52465F5355433E
:10A26C0043455353004E52465F4552524F525F5333
:10A27C0056435F48414E444C45525F4D49535349F8
:10A28C004E47004E52465F4552524F525F534F4617
:10A29C00544445564943455F4E4F545F454E4142E9
:10A2AC004C4544004E52465F4552524F525F494E08
:10A2BC005445524E414C004E52465F4552524F52FD
:10A2CC005F4E4F5F4D454D004E52465F4552524FCB
:10A2DC00525F4E4F545F464F554E44004E52465FB0
:10A2EC004552524F525F4E4F545F535550504F5240
:10A2FC00544544004E52465F4552524F525F494EB0
:10A30C0056414C49445F504152414D004E52465FBC
:10A31C004552524F525F494E56414C49445F53543B
:10A32C00415445004E52465F4552524F525F494E82
:10A33C0056414C49445F4C454E475448004E52469A
:10A34C005F4552524F525F494E56414C49445F460D
:10A35C004C414753004E52465F4552524F525F4953
:10A36C004E56414C49445F44415441004E52465F65
:10A37C004552524F525F444154415F53495A450034
:10A38C004E52465F4552524F525F54494D454F55C0
:10A39C0054004E52465F4552524F525F4E554C4CF4
:10A3AC00004E52465F4552524F525F464F52424901
:10A3BC004444454E004E52465F4552524F525F49FF
:10A3CC004E56414C49445F41444452004E52465F04
:10A3DC004552524F525F42555359004E52465F45BB
:10A3EC0052524F525F434F4E4E5F434F554E5400A7
:10A3FC004E52465F4552524F525F5245534F555243
:10A40C00434553004E52465F4552524F525F4D4F9B
:10A41C0044554C455F4E4F545F494E495449414C4D
:10A42C00495A4544004E52465F4552524F525F4D79
:10A43C00555445585F494E49545F4641494C454433
:10A44C00004E52465F4552524F525F4D555445583F
:10A45C005F4C4F434B5F4641494C4544004E52467E
:10A46C005F4552524F525F4D555445585F554E4CB7
:10A47C004F434B5F4641494C4544004E52465F4565
:10A48C0052524F525F4D555445585F434F4E445FA7
:10A49C00494E49545F4641494C4544004E52465F33
:10A4AC004552524F525F4D4F44554C455F414C52B3
:10A4BC00454144595F494E495449414C495A4544D8
:10A4CC00004E52465F4552524F525F53544F5241C9
:10A4DC0047455F46554C4C004E52465F4552524FD5
:10A4EC00525F4150495F4E4F545F494D504C454D62
:10A4FC00454E544544004E52465F4552524F525FB2
:10A50C00464541545552455F4E4F545F454E41426E
:10A51C004C4544004E52465F4552524F525F494F94
:10A52C005F50454E44494E47004E52465F4552528D
:10A53C004F525F4452565F5457495F4552525F4FDA
:10A54C0056455252554E004E52465F4552524F524E
:10A55C005F4452565F5457495F4552525F414E41DA
:10A56C00434B004E52465F4552524F525F44525637
:10A57C005F5457495F4552525F444E41434B004E26
:10A58C0052465F4552524F525F424C455F495053C1
:10A59C00505F52585F504B545F5452554E43415488
:10A5AC004544004E52465F4552524F525F424C4515
:10A5BC005F495053505F4348414E4E454C5F414CB0
:10A5CC0052454144595F455849535453004E5246E5
:10A5DC005F4552524F525F424C455F495053505F5A
:10A5EC004C494E4B5F444953434F4E4E45435445A3
:10A5FC0044004E52465F4552524F525F424C455FAB
:10A60C00495053505F504545525F52454A4543545B
:10A61C00454400556E6B6E6F776E206572726F726B
:10A62C0020636F64650000000000000065A202005A
:10A63C000100000071A20200020000008FA20200C3
:10A64C0003000000B0A2020004000000C3A202003C
:10A65C0005000000D4A2020006000000E8A20200DF
:10A66C000700000000A302000800000018A302006D
:10A67C000900000030A302000A00000049A30200F8
:10A68C000B00000061A302000C00000078A3020084
:10A69C000D0000008CA302000E0000009EA302001F
:10A6AC000F000000ADA3020010000000C1A30200C7
:10A6BC0011000000D8A3020012000000E7A3020062
:10A6CC0013000000FCA302008000000010A4020094
:10A6DC008100000031A40200820000004DA40200A1
:10A6EC008300000069A402008400000087A402001B
:10A6FC0085000000A8A4020086000000CDA4020082
:10A70C0090000000E4A402009100000002A50200E9
:10A71C009200000020A502000082000035A5020076
:10A72C000182000053A50200028200006FA5020006
:10A73C00008400008BA5020001840000AFA502007C
:10A74C0002840000D9A5020003840000FEA50200CB
:10A75C000000010100000001010000000304636C13
:10A76C006F636B00434C4F434B004750494F54456C
:10A77C000050525300554152544500000C00030048
:10A78C00918D02000B000300918D02000900030063
:10A79C00918D02000D000300918D0200902000208D
:10A7AC00B0200020D0200020426561636F6E2073C2
:10A7BC00746F707065642E00426561636F6E2073F8
:10A7CC007461727465642E00456E746572206D61DF
:10A7DC00696E206C6F6F702E000000004821002005
:10A7EC005465726D696E616C005254540053454748
:10A7FC00474552006E72665F736468000100000783
:10A80C00E89F0200E89F020008000000E89F020099
:10A81C00F09F02000800000073645F626C655F6368
:10A82C0066675F73657428292072657475726E652E
:10A83C0064202573207768656E20617474656D7073
:10A84C0074696E6720746F2073657420424C455F89
:10A85C00434F4E4E5F4346475F4741502E00736453
:10A86C005F626C655F6366675F736574282920722D
:10A87C00657475726E6564202573207768656E202B
:10A88C00617474656D7074696E6720746F20736584
:10A89C007420424C455F4741505F4346475F524FDF
:10A8AC004C455F434F554E542E0073645F626C658C
:10A8BC005F6366675F7365742829207265747572AF
:10A8CC006E6564202573207768656E2061747465ED
:10A8DC006D7074696E6720746F2073657420424CC0
:10A8EC00455F434F4D4D4F4E5F4346475F56535F59
:10A8FC00555549442E0073645F626C655F636667EF
:10A90C005F73657428292072657475726E65642096
:10A91C002573207768656E20617474656D70746939
:10A92C006E6720746F2073657420424C455F4741FD
:10A93C005454535F4346475F415454525F54414211
:10A94C005F53495A452E0073645F626C655F6366A2
:10A95C00675F73657428292072657475726E6564FF
:10A96C00202573207768656E20617474656D707432
:10A97C00696E6720746F2073657420424C455F4785
:10A98C00415454535F4346475F53455256494345E0
:10A99C005F4348414E4745442E00496E73756666C9
:10A9AC00696369656E742052414D20616C6C6F63F4
:10A9BC006174656420666F722074686520536F66DD
:10A9CC00744465766963652E004368616E67652023
:10A9DC007468652052414D207374617274206C6FE1
:10A9EC00636174696F6E2066726F6D2030782578A4
:10A9FC0020746F20307825782E004D6178696D7544
:10AA0C006D2052414D2073697A6520666F7220610A
:10AA1C0070706C69636174696F6E20697320307833
:10AA2C0025782E0073645F626C655F656E61626C85
:10AA3C006528292072657475726E65642025732EE5
:10AA4C00006E72665F7364685F626C650000000084
:10AA5C00E89F0200E89F0200080000006E72665F2B
:10AA6C007364685F736F6300E09F0200E89F0200ED
:10AA7C000800000043000000504F534958000000EC
:10AA8C002020202020202020206828282828202052
:10AA9C0020202020202020202020202020202020AA
:10AAAC004810101010101010101010101010101062
:10AABC008484848484848484848410101010101002
:10AACC00108181818181810101010101010101015B
:10AADC00010101010101010101010110101010100F
:10AAEC00108282828282820202020202020202022C
:10AAFC0002020202020202020202021010101020D4
:10AB0C0000070320041702010857104080000000C2
:10AB1C0080AA020084AB020098AC020053756E0050
:10AB2C004D6F6E0054756500576564005468750070
:10AB3C004672690053617400000000004A616E00A7
:10AB4C00466562004D617200417072004D61790082
:10AB5C004A756E004A756C0041756700536570004C
:10AB6C004F6374004E6F7600446563000000000074
:10AB7C00414D00504D000000BCAC0200B8AC0200CE
:10AB8C00B8AC0200B8AC0200B8AC0200B8AC020021
:10AB9C00B8AC0200B8AC0200B8AC0200B8AC020011
:10ABAC00FFFFFFFFFFFFFFFFFFFFFFFFFFFF0000A7
:10ABBC00F8AB020028AB020034AC020048AB020038
:10ABCC007CAB0200DCAB02008CAC0200E8AB0200F8
:10ABDC00256D2F25642F2579000000002561202587
:10ABEC0062202565202554202559000053756E647C
:10ABFC006179004D6F6E64617900547565736461A1
:10AC0C0079005765646E6573646179005468757278
:10AC1C00736461790046726964617900536174757B
:10AC2C0072646179000000004A616E75617279008E
:10AC3C004665627275617279004D6172636800419C
:10AC4C007072696C004D6179004A756E65004A75C9
:10AC5C006C79004175677573740053657074656D1C
:10AC6C00626572004F63746F626572004E6F766539
:10AC7C006D62657200446563656D6265720000000B
:10AC8C0025483A254D3A255300000000C99D020085
:10AC9C00E59D0200F19D0200FD9D0200199E02003F
:10ACAC00259E0200319E02003F9E02000000000023
:04ACBC002E00000066
:10ACC0000000000000200040000000000000000024
:10ACD000FF00000000100140110004000090D003AC
:10ACE000282100201F0000000000000000000000DC
:10ACF000FF0215DEADBEEF00000000000000000006
:10AD000000000001020304C31CAB02001CAB0200E4
:0CAD10001CAB02001CAB02001CAB0200DC
:040000032000637501
:00000001FF
