:020000022000DC
:1060000000600020756302005D6302005F630200B0
:106010006163020063630200656302000000000028
:1060200000000000000000000000000067630200A4
:1060300069630200000000006B6302006D630200F0
:10604000198602006F630200558A02006F63020026
:106050006F6302006F630200D18802006F63020069
:106060006F6302006F6302006F6302006F630200E0
:106070006F6302006F6302006F6302006F630200D0
:106080006F630200517702006F6302006F630200CA
:106090006F6302006F6302006F6302006F630200B0
:1060A0006F6302006F6302006F6302006F630200A0
:1060B0006F6302006F630200000000000000000038
:1060C0006F6302006F6302006F6302006F63020080
:1060D0006F6302006F6302006F6302000000000044
:1060E00000000000000000000000000000000000B0
:1060F00000000000000000000000000000000000A0
:10610000000000000000000000000000000000008F
:10611000000000000000000000000000000000007F
:10612000000000000000000000000000000000006F
:10613000000000000000000000000000000000005F
:10614000000000000000000000000000000000004F
:10615000000000000000000000000000000000003F
:10616000000000000000000000000000000000002F
:10617000000000000000000000000000000000001F
:10618000000000000000000000000000000000000F
:1061900000000000000000000000000000000000FF
:1061A00000000000000000000000000000000000EF
:1061B00000000000000000000000000000000000DF
:1061C00000000000000000000000000000000000CF
:1061D00000000000000000000000000000000000BF
:1061E00000000000000000000000000000000000AF
:1061F000000000000000000000000000000000009F
:10620000354936480A1A02D0072291438D4634494F
:1062100034480A1A06D00722914381F309880222E2
:1062200082F3148830483149314A00F044F831484B
:106230003149324A00F03FF831483249324A00F0E1
:106240003AF832483249334A00F035F83248334997
:10625000334A00F030F833483349344A00F02BF821
:1062600033483449344A00F026F83448344900228F
:1062700000F02CF833483449002200F027F8334866
:106280003349091A082902DB002202604160314AC1
:1062900090471F481F49884205D00268043003B464
:1062A000904703BCF7E700208646EC46002000211B
:1062B000294A9047FEE7884207D0521A05D0037852
:1062C00001300B700131013AF9D17047884202D098
:1062D00002700130FAE770470060002000400020A3
:1062E0000060002000600020ACB40200C81800204C
:1062F000AC190020BC630200BC630200B4A702001A
:10630000ACB40200C8180020C818002060A8020021
:1063100060A8020060A8020060A8020060A8020055
:1063200060A8020060A8020060A80200ACB40200ED
:1063300090B50200AC190020AC190020AC19002067
:10634000DC230020DC230020DC230020DC230020D1
:10635000DC2700208B63020091920200FEE7FEE73B
:10636000FEE7FEE7FEE7FEE7FEE7FEE7FEE7FEE705
:1063700000F002B8FFF7FCBF0B484FF0070188435D
:1063800085460A488047FFF73BBF094809490A4A42
:10639000884207D0521A05D0037801300B700131C2
:1063A000013AF9D1704700000060002049800200E6
:0C63B00060A80200C8180020C8180020D7
:1063BC00F0B595B01D46164608460C4601F048FD52
:1063CC001A9B0D93CDE9086500252B46082205A9DB
:1063DC0020460A958DF82C500C9501F055FD079B25
:1063EC000293069B03939DF814308DF8115003F023
:1063FC000302012A1DD1BDF81420059DC3F3C2036D
:10640C00C2F383168DF81030B20008230EA9204673
:10641C0001F03AFDC5F3952508AB0093324602AB6B
:10642C000EA9284600F090FB204601F015FD15B092
:10643C00F0BD022AF8D1BDF81650C3F3C203C5F360
:10644C0089158DF810300827082D2E4628BF0826F0
:10645C003B4632460EA9204601F016FDAD1B08AB9B
:10646C0002AA31460EA8374400F0D2FB002DEBD126
:10647C00DAE70000014B01221A707047ED19002079
:10648C007047000070B50E4D06460FCD88B06C46B7
:10649C000FC495E80F00002E84E80F00094A0A4843
:1064AC004FF0060308BF00226946009302F04CF837
:1064BC0008B100F07DFD054B1E7008B070BD00BF2B
:1064CC0060A8020081640200C8180020AC190020EA
:1064DC0008B5044802F006FCBDE808400020FFF7B0
:1064EC00D1BF00BFCC18002007B5044B0093044A61
:1064FC004023FFF75DFF03B05DF804FB116502005C
:10650C00AD19002010B5084C08480023D2B22370F6
:10651C0002F084FC08B100F04BFD054B1A7812B167
:10652C002378002BFBD010BDED190020CC180020D7
:10653C00AC1900200120FFF7A5BF000008B5FFF73C
:10654C00F9FF0448042100F06FFA034B01225A7141
:10655C0008BD00BF50A80200D418002003780246E2
:10656C0013F0040006D003F00300012803D0022826
:10657C0009D0012070470B6812880233C2F38312D2
:10658C0013440B6070470B685288023303EB921371
:10659C000B60EEE72DE9F04FDFF81CA187B00F463A
:1065AC0000230446861C0DF1070015468DF80730B4
:1065BC0000F05CFFDAF804203A60DAF8083003F5F2
:1065CC0080739B1A0AF21C470AF583690AF2144875
:1065DC00B3421AD30020002D69D004F00F039B01A5
:1065EC0043F0050363F30F00DAF80430DAB2033238
:1065FC0033444AF822009DF80700CAF8043000F032
:10660C0059FF012007B0BDE8F08F0121384601F099
:10661C004EF9484601F063F9404601F060F9DAF8AA
:10662C0008000290C0B203300AEB800002A9FFF709
:10663C0095FF029B30BBDAB20AEB8202D168039160
:10664C009A1C0133DBB20AEB83030292D3F80CB031
:10665C0001F00303012B22D0022B15D083464046B8
:10666C0001F040F910B1029BCAF80830594638467F
:10667C0001F01DF9DAF80830DAF8042003F580731C
:10668C009B1AA5E7D8B2CEE7BDF80E30C3F3891339
:10669C0003334FEA1B4B02EB93030293DFE7BDF886
:1066AC000C30C3F383134FEA1B4B1344F5E7A405DB
:1066BC0044F0060098E700BFC01A0020064B0748BC
:1066CC0010B500221A7001F07CFB044610B9044886
:1066DC0001F008FC204610BDC01A0020D4A702000F
:1066EC00B4A8020030B50A4C71B10A4A0A49121B0F
:1066FC00D20800239A4201D1002030BD31F823503A
:10670C00854202D00133F5E7034654F83300F4E731
:10671C00E8A7020050A80200C8180020094B013954
:10672C0003EBC000032909D8DFE801F00A020406D4
:10673C0004207047007970474079704700207047FB
:10674C0002207047E8A7020070470000034BD3E912
:10675C000130C31A58425841704700BFC01A00207C
:10676C002DE9F04186B0FFF7F1FF0546002840F017
:10677C00ED80774CC4F81804BFF34F8FA3680293D5
:10678C00DBB2033304EB830002A9FFF7E7FE029BA5
:10679C0018B1D4F81824002A5AD0DAB2991C013353
:1067AC0004EB8202DBB204EB8303D268DB68049354
:1067BC0002F00303022B0392029154D1BDF80E3068
:1067CC006448C3F38917502F3E4628BF502606F164
:1067DC00080166F38F13C1F30901ADF80E3001F017
:1067EC0008FB0546002800F09C8001F031FB0023DB
:1067FC00082203A9284601F03DFB0299CB43DBB2EA
:10680C000133C9B20331B6EB830F4FEA830204EBB9
:10681C00810125D95FFA82F80823A6EB08062846E1
:10682C0001F028FBF6B208F108034B4903F0FC0316
:10683C003246284601F01EFB029B033703EB9707F9
:10684C000297D4F81834002B43D1D4F8106453E0D9
:10685C0062689A4294D8A260284606B0BDE8F081DE
:10686C0008233246E5E7012B5BD1BDF80C303948E3
:10687C00C3F38311062928BF062161F38913023162
:10688C0001F00F018900ADF80C3001F0B2FA0546A9
:10689C00002846D001F0DCFA0023082203A9284680
:1068AC0001F0E8FA0026BDF80C20C2F38312B30005
:1068BC00964203F10803C4D202994A1CC9B20331AF
:1068CC00029204EB81010422284601F0D3FA01362E
:1068DC00E9E7284601F0C0FAFFF738FF80F0010520
:1068EC00EDB2B9E7F3685B7923B1336829461B68CD
:1068FC0030469847F3681E68002EF3D1284601F005
:10690C00ABFA0DF107008DF8076000F0AFFDD4F87D
:10691C0018340BB9029BA3609DF8070000F0CAFD68
:10692C00DAE7D4F8104454B90C4B0D480D49C01A91
:10693C00C008000440F0020000F05EF8CCE72368C9
:10694C0020469B689847E3681C68ECE7002583E7C2
:10695C00C01A0020D4A70200CC1A0020E8A702001D
:10696C0008A802009DA802002DE9F34704460E4634
:10697C00924601A9012218469946FFF70BFE1C4FBF
:10698C0010B3019D4FF00008AA1CC84508EB02018A
:10699C0025D11848002100F067FF80F31000000497
:1069AC0040EA1440E4006B1C04F03804DBB2EDB296
:1069BC0044F0010407EB8303033544EA881444EAEA
:1069CC008624D86047F825403B781BB1FFF7C8FEFA
:1069DC000028FBD1FFF7B8FE02B0BDE8F087C9B2C2
:1069EC0007EB81015AF82830CB6008F10108CCE79D
:1069FC00C01A0020DC1E002000231A46FFF7B4BF8B
:106A0C0007B50123019201AAFFF7AEFF03B05DF8B1
:106A1C0004FB07B5CDE9002302236A46FFF7A4FF68
:106A2C0003B05DF804FB000030B50F4CD4F8102413
:106A3C0003460020114631B9D96808714AB9C4F827
:106A4C0010340A6030BDC9680D79854206D00968DA
:106A5C00F1E7D26814680C601360F3E701300A2880
:106A6C00E8D14FF0FF30EDE7C01A002038B5084BE5
:106A7C000125D3F810441D7004B938BDE3685D716D
:106A8C00236820465B689847E3681C68F4E700BFFE
:106A9C00C01A0020C38873B504460D4633B1144A9E
:106AAC0000921449144A284600F07FFF217A0529E8
:106ABC001CD0637A4BB1A088FFF730FE0F4B104906
:106ACC0053F82020284600F070FF227A0D4BA08846
:106ADC0053F822600021FFF705FE0B4903463246AE
:106AEC00284602B0BDE8704000F05FBF02B070BD38
:106AFC00E0A80200C8A80200C0A802004CA902002D
:106B0C00E5A8020070A90200E8A8020010B5037AFB
:106B1C00052B0C460FD0437A23B1084A084920466E
:106B2C0000F043FF0749204600F03FFF2046BDE838
:106B3C00104000F02FBF002AF8D0F3E7E0A80200C5
:106B4C00E5A80200DDA802002DE9F04385B01F4640
:106B5C000C9D002395F80C902B7306460C46904622
:106B6C0029463846FFF796FFB8F1060F09D8DFE83B
:106B7C0008F00412181F283340003146284600F054
:106B8C0014FF002229463846FFF7C0FF85F80C9009
:106B9C0005B0BDE8F08322683146284600F005FFB9
:106BAC00EFE7D4E900233146284600F0FEFEE8E783
:106BBC00A36800933146D4E90023284600F0F5FE83
:106BCC00DFE7E3680193A36800933146D4E900231F
:106BDC00284600F0EAFED4E723690293E3680193A8
:106BEC00A36800933146D4E90023284600F0DDFE6B
:106BFC00C7E76369039323690293E3680193A3686E
:106C0C0000933146D4E90023284600F0CEFEB8E7C5
:106C1C0008292DE9F74F80460E4617461C463DD8ED
:106C2C0000251B7B2573214610460193FFF732FF8D
:106C3C00DFF888A0DFF888B0AE4232D918F805200A
:106C4C005946204600F0B1FE0135082DF4D11D49FE
:106C5C00DFF874A0DFF874B0204600F0A6FE4FF009
:106C6C0000094E4524D918F809507E2D1ED8284607
:106C7C0003F0C4F9002814BF2A462E225946204698
:106C8C0000F093FE09F10109B9F1080FE9D10122D5
:106C9C0021463846FFF73AFF019B237303B0BDE84A
:106CAC00F08F5146204600F080FECDE72E22E5E71E
:106CBC005146204600F079FEE4E700BFF8A8020038
:106CCC00F2A80200FCA80200FAA80200FEA802002A
:106CDC00C30710B507D4F023054A4008145C2340C1
:106CEC001943115410BD0901C9B20F23F4E700BFB9
:106CFC00881F002030B5094B1C78094B02461968D7
:106D0C0000239C4201DC002030BD11F83350954229
:106D1C0001EBC300F8D00133F3E700BF781F00206C
:106D2C00981F002070B504460D46FFF7E3FF30B105
:106D3C00436823B129462046BDE87040184770BD12
:106D4C00034B044819680022490800F055BA00BFEB
:106D5C007C1F0020E018002010B5C0B2FFF7CAFF5E
:106D6C000446007801F0A4FD63785A1E5342534147
:106D7C00834208D1044BD3E90023134303D1BDE86C
:106D8C001040FFF7DDBF10BD801F002037B5430852
:106D9C00374AD35CC2074CBF1B0903F00F030446F0
:106DAC000D46042B25D8DFE803F003262F3C4000CA
:106DBC00F9B10121FFF78CFF00230DF107008DF8CD
:106DCC00073000F053FB0120A4F12003C4F1200193
:106DDC00284A20FA01F100FA03F30B43A040D2E950
:106DEC00004120430B43C2E900039DF8070000F06B
:106DFC0061FB03B030BD002918BF0221204603B04F
:106E0C00BDE83040FFF764BF49B10321FFF760FFD5
:106E1C000121204603B0BDE83040FFF783BF0121BC
:106E2C00ECE70029E5D10421E8E709B10321E5E706
:106E3C00FFF74EFF29462046FFF774FF0DF10700C0
:106E4C008DF8075000F012FB0120A4F12003C4F1CF
:106E5C002001084A20FA01F100FA03F30B43A04089
:106E6C00D2E9004124EA000021EA0303BBE700BF9A
:106E7C00881F0020801F00202DE9F041124E134F77
:106E8C0000243378A34208DC114BD3E900231343CD
:106E9C0018D0BDE8F041FFF753BF3D6805EBC408BF
:106EAC0015F8340001F004FD98F801305A1E5342D5
:106EBC005341181A4142414115F83400FFF766FF5F
:106ECC000134DEE7BDE8F081781F0020981F002018
:106EDC00801F0020092AF7B505460C4616463ED9F8
:106EEC0001F01EFCE8B11F4B1F481D601F4B204FCB
:106EFC001C70204B002110221E6003F0D4F81E4B96
:106F0C0000200021C3E90001013CE4B20326FF2C60
:106F1C000DD11A4A1A48002103B0BDE8F04000F028
:106F2C0059B901F0C5FB0028DDD003B0F0BD9DF8C8
:106F3C00063015F834008DF8046005EBC40223F01C
:106F4C0007038DF8063001A993788DF805303A4681
:106F5C0001F0F0FB013CE4B20028D8D0E5E70720B3
:106F6C00E3E700BF981F0020881F0020781F002037
:106F7C00656D02007C1F0020801F0020856E0200C2
:106F8C0090A9020070B5084D084E00242B789C4245
:106F9C0001D3002070BD3368012113F8340001F0D7
:106FAC0041FC0134F2E700BF781F0020981F00203D
:106FBC001FB50021039001AA44F20100CDE9011193
:106FCC0000F004F805B05DF804FB000038B572B6AB
:106FDC00FFF74CFDFFF7C4FB0028FBD1104B114C05
:106FEC00114D1249E41AE408240444F00100FFF79F
:106FFC0003FDD5F8F030DB0700D500BE0C4944F09A
:10700C000200FFF7F9FCBFF34F8FEA68094B02F45B
:10701C00E0621343EB60BFF34F8F00BFFDE700BF8F
:10702C00E8A7020008A8020000ED00E094A9020005
:10703C00A0A902000400FA0510B5D0E90243D1E979
:10704C000202A04272EB03032CBF0120002010BDF2
:10705C0008B50A4800F05FFB094AD2E90031C018B4
:10706C00084BD3E9002341F10001904271EB03037B
:10707C0003D210F1807041F1000108BD001900200D
:10708C00A01F00201820002037B505460C460A48E2
:10709C0001A900F074FB60B10570446001A90648B9
:1070AC0000F097FB18B1054800F03AFB002003B044
:1070BC0030BD0420FBE700BF042000200019002095
:1070CC00294B73B51E7804461EB90026304602B013
:1070DC0070BD0028F9D0FFF7BBFFD4E90223904222
:1070EC00994139D300230DF107008DF8073000F0DA
:1070FC00BDF923692BB94FF0FF324FF0FF33C4E9D0
:10710C0002239DF8070000F0D5F9D4E90530984723
:10711C0000250DF107008DF8075000F0A7F9236941
:10712C00C3B1D4E90212B2F1FF3F08BFB1F1FF3F86
:10713C0005D05B1842F10002C4E9023235469DF8D5
:10714C00070000F0B7F9002DBFD00848214600F029
:10715C00E8FEBBE71D46F2E7B3F1FF3F08BFB2F113
:10716C00FF3FB2D0F1E700BFA81F0020BCA902006E
:10717C0013B5114B11491868019008231048582277
:10718C0000F0EAFA044698B90E4A0F4801A900F03B
:10719C00B3F9044660B90C48012100F09FFA0123B1
:1071AC000A4A0948194600F001FA094B01221A70E3
:1071BC00204602B010BD00BFB8A90200AC1F0020D1
:1071CC0004200020BD72020000190020FFFF7F0088
:1071DC00A81F002030B56AB103684FF0FF344FF0A0
:1071EC00FF355A614A1E5142C3E9024551411961AA
:1071FC00002030BD0720FCE7F7B5044600250DF153
:10720C00070017460E468DF8075000F02FF9D4E909
:10721C000223B3F1FF3F08BFB2F1FF3F07D1FFF7E5
:10722C0017FF301841F10001C4E9020101259DF856
:10723C00070000F03FF955B12369A76103B126613E
:10724C002146002003B0BDE8F040FFF71DBF2846E3
:10725C0003B0F0BD37B5054600240DF107008DF8DD
:10726C00074000F003F9D5E90223B3F1FF3F08BF53
:10727C00B2F1FF3F06D04FF0FF324FF0FF33C5E9BC
:10728C00022301249DF8070000F014F934B12946BB
:10729C00012003B0BDE83040FFF7F6BE204603B036
:1072AC0030BD0000014800F036BA00BF00190020C4
:1072BC002DE9F743064600F019FA40B1634AD2E9CA
:1072CC00003113F1807341F10001C2E9003100215A
:1072DC00304600F01AFA38B15D4C236823B12068AF
:1072EC00FFF7EEFE002323600121304600F00DFA7B
:1072FC0020B1FFF7ADFE574BC3E900015648544F80
:10730C0001A900F076FA4FF0FF344FF0FF35A0B929
:10731C00DFF848814E4D404600F019FE002800F081
:10732C008680D0E90223B3F1FF3F08BFB2F1FF3FE3
:10733C0033D1404600F005FEEDE70378012B21D058
:10734C00022B09D1DFF81481404600F0FAFD002829
:10735C0077D0C0E90245F7E75BB94168D1E9022370
:10736C00B3F1FF3F08BFB2F1FF3F02D03B4800F042
:10737C00D8FD01A9384800F067FA01A9364800F099
:10738C0038FAC4E741683B68994202D100233B605C
:10739C00EFE7324800F0DEFDEBE7296891B1296890
:1073AC00D1E9020182428B412FD22B68D3E902230F
:1073BC00B3F1FF3F08BFB2F1FF3F03D0296840464D
:1073CC0000F0AFFD404600F0BCFDD0E90249074695
:1073DC00FFF73EFE201A69EB0109012879F1000341
:1073EC0018DBB0F5350F13D3FFF75CFF1C4A0244D2
:1073FC001C484FF49603002100F0F8F890B92B6864
:10740C0013B9304600F0CAF82F6003B0BDE8F08322
:10741C002246EDE71348002100F06DF93846FFF7DE
:10742C004FFE01E00D28F9D000232B6073E7084BC9
:10743C001B68002BE9D1304603B0BDE8F04300F0E7
:10744C00B1B8094B01221A7093E700BFA01F0020AE
:10745C00202000201820002004200020BCA90200BD
:10746C00FFFFB40000190020A81F002070B5EFF337
:10747C00108672B60C4A946801239CB993600B4B2E
:10748C000B4DD3F8801029401160C3F88050D3F80D
:10749C00841051604FF0FF32C3F88420047006B999
:1074AC0062B670BD0370FAE72420002000E100E012
:1074BC00FC06FFBD084B9A6810B55AB150B9EFF3F2
:1074CC00108172B6054A1C6814605C685460986040
:1074DC0001B962B610BD00BF2420002000E100E01D
:1074EC000346405882B028B100225A505B58019391
:1074FC00019B012002B07047F8B5204B4479204E17
:10750C0043F824201F4A204B06EBC4049B1A227913
:10751C00DB081B0432B143F002001C49FFF76CFA84
:10752C000820F8BD02680C88C2F8084590F9045090
:10753C008A7804795201002DD2B219DB14494F1903
:10754C0087F8002301226D0904F01F0402FA04F4E9
:10755C0041F82540427906EBC201012446F832007D
:10756C000C7143F003000B49FFF746FA0020D8E7F3
:10757C00094904F00F040A55ECE700BF382000203D
:10758C0030200020E8A7020018A80200C8A90200B9
:10759C0000E100E0EAA9020014ED00E0036801221A
:1075AC001A607047036801225A60704773B501F185
:1075BC005005AD000068ADB24FF480348C4000260D
:1075CC00C0F80843C0F84843465101F5A871455925
:1075DC00019522F07F42019D40F82120C0F84443E0
:1075EC000BB1C0F8044302B070BD00002DE9F74F99
:1075FC000D4622F07F4402684FF4803705F15006A7
:10760C008F408046B60002EB8500C2F84873B6B2D4
:10761C00C2F80873D2F8041599464FF0000BD0F855
:10762C004035C0F8401542F806B05B1A92590092EA
:10763C0023F07F43012B009A4FEA850A0CD1264B8D
:10764C004FF4806043F001039847D8F8003043F8BA
:10765C0006B09B590193019BD8F80010D1F8046532
:10766C00C1F84473A31B23F07F43012B1CD11A4B8D
:10767C0005F5A875013443F0010341F825404FF49A
:10768C0080609847D8F80030D3F804359E4209D171
:10769C00D8F800300020C3F84473C3F8047303B067
:1076AC00BDE8F08F0D20FAE78A44C9F1FF13CAF840
:1076BC004045D1F80405221A013A22F07F4203F525
:1076CC007F439342EED3002AE2D10134CAF84045FD
:1076DC00D1F804359842DAE700AA020003680222C6
:1076EC00C3F8442309B1C3F80423704700684FF46E
:1076FC008271FFF7F5BE4FF4803303FA01F1036892
:10770C00C3F84813C3F80813704750318900006858
:10771C0089B2FFF7E5BE0368D3F804057047000093
:10772C0090F90430002B09DB5A09012103F01F03E7
:10773C0001FA03F34032024941F82230704700BF8E
:10774C0000E100E0024B034A1B681068184700BFB9
:10775C00382000203020002030B5054659B1B2FB4E
:10776C00F3F403FB1424A0B238B9C5E90010A860E7
:10777C00AA81EB8130BD0E20FCE70920FAE737B572
:10778C0050E8013F9DB2C48925448489A54228BF95
:10779C002D1B0489A54202BFBFF32F8F002207E0E7
:1077AC00C5EA030540E80154002CE9D14FF0010271
:1077BC008DF803200193019A0A609DF8031001F0E3
:1077CC00FF0321B1006810FA82F003B030BD1846F7
:1077DC00FBE70A884B889A4209D150E8012FC2EA8C
:1077EC00024240E80123002BF7D101207047002012
:1077FC00704737B550E8023F1FFAA3F5C488A5427D
:10780C0002BFBFF32F8F00220DE0C4892544848969
:10781C00A54228BF2D1BC3EA054540E80254002CA5
:10782C00E8D14FF001028DF803200193019A0A6010
:10783C009DF8031001F0FF0321B1006800EB12402A
:10784C0003B030BD1846FBE70A884B889A4209D131
:10785C0050E8022FC2EA224240E80223002BF7D163
:10786C00012070470020704710B5034653E8000F05
:10787C000A4643E8002494F0000FF7D110BD10B570
:10788C00034653E8002F42EA010043E8000494F059
:10789C00000FF6D110BD10B5034653E8000F00EAF7
:1078AC00010243E8002494F0000FF6D110BD10B58E
:1078BC00034653E8002F02EB010043E8000494F068
:1078CC00000FF6D110BD10B5034653E8002FA2EB04
:1078DC00010043E8000494F0000FF6D110BD012123
:1078EC00FFF7CDBF0021FFF7D6BF10B590B1D0E99F
:1078FC00012301689B1ADBB20A60013BDBB2FF2B50
:10790C00026802D10020107110BD11684C1C14606B
:10791C000B70F2E70E20F7E737B5054600240DF1A2
:10792C0007008DF80740FFF7A1FD2A686B68116806
:10793C0099420ED9481E106011F8013CEC68298A56
:10794C0001FB0344AB6811791B1ADBB2994238BFB7
:10795C0013719DF80700FFF7ADFD204603B030BD55
:10796C0037B5054600230DF107000C468DF807309E
:10797C00FFF77CFD2A681368591C1160E968641ACA
:10798C00298AB4FBF1F41C709DF80700FFF792FDF7
:10799C0003B030BD826810B504462AB14369016852
:1079AC00006998470023A36010BD0EB403B503997A
:1079BC0021B104AB01AA019300F076F802B05DF896
:1079CC0004EB03B070470A2938B504460D4602D1C2
:1079DC000D21FFF7F8FFA3682268591CA160D5544C
:1079EC00D4E901329A4204D32046BDE83840FFF76F
:1079FC00D1BF38BD2DE9F84F9846DDE90A4315464D
:107A0C0082460F460A464FF00109AA420FD2C145E1
:107A1C0038BFC14613F0010B01D16CB9002401260B
:107A2C00B8F1010F1BD908F1FF386E43F8E709F1E3
:107A3C000109B2FBF5F2E8E79B070ED5B8F1000F90
:107A4C000CBF30262026A145E9D2013C31465046D8
:107A5C00FFF7B9FF002CF6D1E0E72026F3E7B7FBE0
:107A6C00F6F39D42E1D9DFF83C80B7FBF6F35046C4
:107A7C0018F8031006FB1377FFF7A5FF3346AB424C
:107A8C00B6FBF5F6F1D2BBF1000F02D00CB1A1455B
:107A9C0001D3BDE8F88F20215046013CFFF793FF3E
:107AAC00F4E700BF06AA02002DE9F74F054617467A
:107ABC008846002900F03E8118F8011B49B92B7B40
:107ACC00002B00F03781284603B0BDE8F04FFFF7DC
:107ADC0061BF252940F0B780002698F800302D2B87
:107AEC00424608F1010823D0302B24D02B2B25D073
:107AFC0000242A2B02F1010123D13B681A1D1B68BB
:107B0C003A601C440A4613782E2B26D101324FF0D2
:107B1C00000A104610F8011BA1F1300CBCF1090F42
:107B2C001DD80A2303FB0A13A3F1300A0246F0E71F
:107B3C0046F00106D1E746F00206CEE746F0040611
:107B4C00CBE711F8013CA3F130000928DBD80A225D
:107B5C0002FB0434303C0A46CBE74FF0000A12F823
:107B6C00011B01F0FB0068289046F8D0782909D851
:107B7C006F290CD8632962D022D8252963D05829C3
:107B8C0000F0888098F80030002B95D197E7703979
:107B9C000829F7D801A353F821F000BF1B7D020080
:107BAC00917B0200917B0200B17C0200917B020070
:107BBC008F7C0200917B0200917B0200A17C020071
:107BCC00642901D06929DDD13A68D2F80090111DE1
:107BDC0089EAE9723960A2EBE9724FF0010B092ACC
:107BEC0035DCD34538BFD3462CB1B9F1000F01DBDE
:107BFC00720700D5013CB30702D5BAF1000F03D0D0
:107C0C00F00701D44CBB0024B9F1000F2DDAC9F1F7
:107C1C0000092D212846FFF7D6FE06F00302022AA2
:107C2C0004D1BAF1000F01D11CBB0024CDE90046F0
:107C3C0053460A2249462846FFF7DCFEA2E73B687A
:107C4C001A1D19783A602846FFF7BDFE9AE70A23F9
:107C5C000BF1010BB2FBF3F2C1E7A345D4D2202107
:107C6C002846013CFFF7AFFECCE77107D5D52B2199
:107C7C00D0E7A345DAD230212846013CFFF7A3FE1A
:107C8C00D2E73968CDE900460A1D3A6053460A220C
:107C9C000968D0E739680A1D3A60CDE900465346B9
:107CAC001022F5E73B681A1D3A6016F00106D3F86E
:107CBC00009024D1B9F1000F03D0484602F048FAE5
:107CCC000646B4421DD809F1FF3919F8011F0029E5
:107CDC003FF458AF2846FFF776FEF6E72846013604
:107CEC00FFF771FE19F806100029F7D1A642BFF470
:107CFC0049AF20212846013CFFF765FEF6E7002638
:107D0C00F0E720212846013CFFF75DFED9E73B68F0
:107D1C001A1D3A60302128461C68FFF754FE782162
:107D2C002846FFF750FE00220823CDE900322146F9
:107D3C00102280E703B0BDE8F08F00BF2DE9F84FAB
:107D4C00B0F806A04579D2F800B09DF828900AFB4F
:107D5C0005F5043D88460BEB0301A94203F104042D
:107D6C0088BFA5EB030BB4FBFAF607460AFB1644D7
:107D7C00C2F800B04EB9AAEB04055D4528BF5D46BC
:107D8C00BBF1000F04D1BDE8F88F3F68013EF1E76D
:107D9C00043408EB06003C442A46B9F1000F0DD020
:107DAC002146ABEB050B02F055F9DA452E443F6842
:107DBC0055464FF0000428BF5D46E1E701462046DA
:107DCC00EFE7FFF792BDF8B546790146721E0546FE
:107DDC00002393422D6803D30024A64202D8F8BD99
:107DEC000133F6E70F682846FFF7BAFD0134394630
:107DFC00F3E72DE9F843068ACD1C0746FFF78CFD07
:107E0C00043E35440446B5FBF6F5F0B14FF48073EF
:107E1C00EDB28380C680013D076081464FF00008BB
:107E2C00A84512D23846FFF777FD064648B163796C
:107E3C000133637108F10108C9F80000076081463D
:107E4C00EEE72046FFF7BFFF34462046BDE8F88337
:107E5C0001210430FFF72BBD10B50121044604307D
:107E6C00FFF731FDC0B220B92046BDE81040FFF746
:107E7C00AABF10BD1FB503920022009203AAFFF700
:107E8C005DFF05B05DF804FB1FB503920122009263
:107E9C0003AAFFF753FF05B05DF804FB41DF704701
:107EAC00064B10B500241C70054B1C60BFF35F8F94
:107EBC000449054800F01FF8204610BD442000205E
:107ECC004820002020AA02003C20002008B501F028
:107EDC002BFE18B1BDE80840FFF7E0BF20BF40BF44
:107EEC0020BF08BD836800225A60C3E904229A604F
:107EFC00DA601A6070470B684A684360934208BFA7
:107F0C000023016008BF43607047436843B10268B7
:107F1C00916852680B449342436004BF0023436052
:107F2C00704770B5446806460D46206818B1B368B2
:107F3C002946984718B923682B60256070BD2468C2
:107F4C00F3E74368186808B102681A607047436821
:107F5C00186870474368186800B97047884203D1A5
:107F6C0002681A600120704703460068F4E70000BD
:107F7C0010B50D49A1F59472914201D800200FE083
:107F8C008C1AE30F03EBE4035B1002EBC30452F80F
:107F9C003330834205D802D204F10802ECE7606862
:107FAC0010BD2146E8E700BF2CAF020008B5FFF773
:107FBC00DFFF024B002808BF184608BDEFAD0200DA
:107FCC004FF08053D3F83001421C04BF4FF0704384
:107FDC0093F8E00F831F5842584170474FF070439D
:107FEC0093F8E02F062A09D1D3F8E83FC3F3031323
:107FFC00033B042B02D8024AD05C70470020704728
:10800C003BAF02004FF08053D3F83001421C04BF49
:10801C004FF0704393F8E00F062804D0A0F10F0343
:10802C00584258417047012070470000024AD2F86C
:10803C000034002BFBD0704700E0014010B5FFF777
:10804C00BFFF40B14FF08053984AD3F82433C3F3A9
:10805C000423C2F84035FFF7C1FF10B1944B954A89
:10806C005A67FFF7CFFF48B14FF080534FF0804273
:10807C00D3F84432C3F34233C2F83C35FFF7AEFFBA
:10808C0030B18D4AD2F8FC3023F08073C2F8FC304A
:10809C00FFF7B8FF40B14FF080430022C3F80C212A
:1080AC00C3F81021C3F83825FFF798FF20B14FF023
:1080BC0080430322C3F8A025FFF790FF60B17F4BEC
:1080CC000522C3F810260122C3F888260022C3F823
:1080DC0018263F22C3F814264FF08053D3F83021D2
:1080EC00511C09BF4FF07043D3F8343193F8E02F93
:1080FC00D3F8E83F08BFC3F30313062A4ED1033B62
:10810C00042B03D86E4AD35C002B49D04FF080521D
:10811C006C4BD2F80414C3F82015D2F80814C3F829
:10812C002415D2F80C14C3F82815D2F81014C3F87F
:10813C002C15D2F81414C3F83015D2F81814C3F84F
:10814C003415D2F81C14C3F84015D2F82014C3F817
:10815C004415D2F82414C3F84815D2F82814C3F8DF
:10816C004C15D2F82C14C3F85015D2F83014C3F8AF
:10817C005415D2F83414C3F86015D2F83814C3F877
:10818C006415D2F83C14C3F86815D2F84014C3F83F
:10819C006C15D2F84424C3F8702501E00F2AB5D031
:1081AC00FFF70EFF48B14FF080534FF08042D3F8E9
:1081BC00583203F04F03C2F8E43EFFF723FF48B1F7
:1081CC004FF08043D3F80024D20744BF6FF0010274
:1081DC00C3F800244FF08053D3F83021062A0ED177
:1081EC00D3F83431033B042B02D8374AD35CD3B1D8
:1081FC00364AD2F83C3743F48063C2F83C374FF030
:10820C008053D3F830310F2B01BF4FF08042D2F89E
:10821C00E43E43F00F03C2F8E43E4FF08053D3F832
:10822C003031062B11D14FF08053D3F83431033B4E
:10823C00042B02D8264AD35C3BB14FF01023D3F861
:10824C0008224FF08043C3F858254FF01023D3F881
:10825C000022002A03DBD3F80432002B22DA1D495A
:10826C0001234FF01020C1F804351524FFF7DEFE72
:10827C00C0F80042FFF7DAFEC0F80442FFF7D6FE62
:10828C000023C1F80435FFF7D1FEBFF34F8F0A4925
:10829C00114BCA6802F4E0621343CB60BFF34F8FFB
:1082AC0000BFFDE70D4B0E4A1A6010BD00300140B7
:1082BC0000C007400DF0ADBA00ED00E000500040EA
:1082CC002CAF020000C0004031AF02000010004093
:1082DC0036AF020000E001400400FA050819002046
:1082EC000090D003054A4FF0A043105CD3F804353E
:1082FC0023FA00F0C04300F00100704740AF0200C9
:10830C00044B1A5C012393404FF0A042C2F80C3589
:10831C00704700BF40AF0200044B1A5C012393402E
:10832C004FF0A042C2F80835704700BF40AF0200C2
:10833C0008B50020FFF7F0FFBDE808400120FFF76B
:10834C00EBBF08B50020FFF7DBFFBDE808400120BC
:10835C00FFF7D6BF074A4FF0A041105CD1F80435A7
:10836C000122824022EA03001340C1F80805C1F83B
:10837C000C35704740AF02000D2809D00C2809D0ED
:10838C000B2809D009280CBF03204FF0FF30704791
:10839C00002070470120704702207047C20708B5C3
:1083AC00014608D54FF0A0430322C3F80C27C3F8AD
:1083BC001027FFF7BDFF8B070AD54FF0A0430C2207
:1083CC00C3F83427C3F83027C3F82C27C3F8242765
:1083DC0008BD000038B5074C051E04F1080318BF92
:1083EC001C4623682BB11A6822605B6828469847A4
:1083FC00F7E738BD5420002020B9054B01225A70F4
:10840C00FFF7E8BF012802D1014A9070F8E77047E6
:10841C004C20002020B9034B01225A70FFF7DABF21
:10842C00704700BF4C20002038B50E4C2378B3B9F0
:10843C000D486360A3602361E36000F0B7F8054664
:10844C0001F072FB08B900F0BDF801232370074B53
:10845C00D3F800340BB10123A370284638BD852511
:10846C00F5E700BF4C20002005840200000001400D
:10847C0037B50D4C00230DF107008DF80730FEF7D2
:10848C00F5FFE368013BE360E36833B9074BD3F8CE
:10849C00005415B900F0A8F8A5709DF80700FFF777
:1084AC0009F803B030BD00BF4C2000200000014093
:1084BC00012813B50CD0032820D038B9134B012256
:1084CC00C3F88020BFF34F8FBFF36F8F02B010BD86
:1084DC000F4C00230DF107008DF80730FEF7C6FF97
:1084EC0023780BB9FFF7A0FFE3689DF80700013371
:1084FC00E3600123A370FEF7DDFFE7E700F062F80D
:10850C0002B0BDE81040FFF7B3BF00BF00E100E0D0
:10851C004C2000201FB503788DF800304368019380
:10852C0083688DF80830C368054A0393054B684689
:10853C0053F8213052F82110984705B05DF804FB30
:10854C006020002064200020F0B506460F4B16F882
:10855C0004CB43F82C200E4B17460C460A6943F803
:10856C002C200FCC89B06D460FC594E80F00002F5E
:10857C0085E80F00074ACDF810C008BF3A46694697
:10858C00304600F0EDFA09B0F0BD00BF64200020C9
:10859C00602000202185020000F18040002382B081
:1085AC00036003680193019B02B07047044B0246C1
:1085BC00187918B91A6001229A8070478520704783
:1085CC0068200020074B1A68D20704D4C02283F815
:1085DC00002301221A604FF080430122C3F81825B2
:1085EC00704700BF00E100E04FF0804208B5022365
:1085FC00C2F808334FF48270FFF7CEFF0123D3602B
:10860C00D2F81834DB03FBD408BD00004FF08041D6
:10861C0010B5D1F8003163B14FF48070FFF7BCFF97
:10862C000D4B58790122C1F8082310B95A711B68F7
:10863C0098474FF08042D2F8043163B14FF4827006
:10864C00FFF7AAFF0223C2F80833034BBDE8104022
:10865C001B680120184710BD6820002000F18040E5
:10866C0000F5C040002382B0036003680193019BB6
:10867C0002B07047800000F1A040D0F8002722F42F
:10868C004032C0F80027D0F8003743EA0143C0F865
:10869C0000377047054B4FF0FF32072843F8202076
:1086AC0084BFC01880F84820704700BF702000209D
:1086BC0010B5184991F8583053BB4FF0FF3222FADD
:1086CC0003F0C00748BFC81803F1010348BF80F886
:1086DC003020202BF3D10024E0B20134FFF7DAFF75
:1086EC000C2CF9D10C4B0022C0204A6583F80603F0
:1086FC00402018604FF4BE70FFF7B0FF074B4FF0EF
:10870C000040C3F80403012381F85830104610BD13
:10871C000820FCE77020002000E100E00060004031
:10872C00034B93F85800003818BF0120704700BF66
:10873C0070200020F0B5394E331893F93030002BEF
:10874C0069DA8D78C5F34005002D0BBF0823002393
:10875C000C240824A34201D10420F0BD56F8237048
:10876C00013743D137185CB246F8232087F83040E4
:10877C0015B9F21882F848008A78550716D4D7072D
:10878C0036D5820002F1A042D2F8005725F002053E
:10879C00C2F80057224FC50800F0070C012202FA5C
:1087AC000CF217F805C042EA0C027A558A780D785B
:1087BC0012F0020225D09B0003F1804303F5C04365
:1087CC000002D3F8102522F4473222F44072C3F889
:1087DC0010252D04D3F8102500F4F85005F440357D
:1087EC0028431043C3F810050020B6E70133B1E766
:1087FC004D7800F5E0724FF0A047AD0047F82250DD
:10880C00C8E7083C46FA84F494F8500040EA851511
:10881C0084F85050E8E708209FE700BF7020002044
:10882C00C420002038B5204C251895F93020072A93
:10883C0018DD083A44FA82F494F850309B09032B63
:10884C000BD14FF0A043D3F81015C14001F001013A
:10885C000231BDE83840FFF70DBF012B0CBF0221E0
:10886C000321F6E7D3B2072B1DD8930003F1804305
:10887C0003F5C043D3F8100540F00100C3F8100510
:10888C0002F1400040B2800080B2FFF7E7FE51B128
:10889C0095F9303054F823302BB1012303FA02F24E
:1088AC00024BC3F8042338BD702000200060004048
:1088BC004FF0A043D3F8103523FA00F000F001007C
:1088CC00704700002DE9F74F00244E4D01944FF4F2
:1088DC008072012102F1804303F5C04390B21B6802
:1088EC00012B06D1D5F804330B4202D0FFF7B6FEAC
:1088FC000C430432B2F5907F4FEA4101EAD1414B6F
:10890C00D3F87C31012B0CD14FF4BE70FFF7A6FECF
:10891C004FF0A04344F00044D3F820250192C3F853
:10892C002025E3B2D3B1384F00250126344210D0B4
:10893C00AB0003F1804303F5C043D3F81005D3F823
:10894C00101557F8253023B1C1F30141C0F30420B1
:10895C0098470135082D4FEA4606E7D1002C48DA36
:10896C00294D4FF0A048294E4FF00009012716F968
:10897C00013B5A1C31D0C3F3C20208326A44DCB248
:10898C0012F8042C03F03F0A03F0070307FA03F371
:10899C001A4222D00AF5E073504658F82330C3F33C
:1089AC00014BBBF1020F0CBF03210221FFF762FE4A
:1089BC0007FA0AF3C8F8203505EB0A0393F93030AF
:1089CC0055F823304BB1A109032904D0BBF1020F98
:1089DC0012D1012901D15046984709F10109B9F189
:1089EC00040FC4D1D8F820350193C8F82035002BDA
:1089FC00B9D103B0BDE8F08FBBF1030FEDD1022963
:108A0C00E8E700BF0060004070200020C02000207C
:108A1C000020704770470023435082B043580193A5
:108A2C00019B02B0704700001FB501238DF8003088
:108A3C00044BCDE90110D3E900126846904705B00C
:108A4C005DF804FBCC2000207FB5434AD2F82461AA
:108A5C00002E60D010464FF49271FFF7DCFF02231A
:108A6C008DF80030D2F88034C2F880340393D2F8F9
:108A7C003C350293394BDA6801920022C3E9062295
:108A8C006846D3E9001290473348D0F8443173B1AB
:108A9C004FF4A271FFF7BFFF304B9A693AB1002235
:108AAC00C3E90622D968D0F83C05FFF7BDFF2A4878
:108ABC00D0F82031ABB14FF49071FFF7ACFF01232C
:108ACC00C360264B5A6962B1D0F84C150291002252
:108ADC0099688DF8002001915A616846D3E900121B
:108AEC0090471D48D0F858319BB14FF4AC71FFF74B
:108AFC0092FF1A4B5A6962B1D0F84C1502910022C0
:108B0C0099688DF8002001915A616846D3E90012EA
:108B1C00904704B070BDD2F81031002BB4D04FF494
:108B2C0088711046FFF777FF0C4BD2F83C0599691A
:108B3C008842A9D1DC69D96864B1D2F8005225F019
:108B4C002005C2F800521A699C61DA60DE61FFF7F9
:108B5C006BFF99E79C61FAE700200040CC200020D5
:108B6C002DE9F8435A4E90F80480242303FB086344
:108B7C00044693F820300D469146002B40F0A3801C
:108B8C0054490068FFF744FF0746002840F09D80D9
:108B9C002A682068511C0BD04FF0A0410123934050
:108BAC00C1F8083502F5E0734FF0030C41F823C00F
:108BBC0069684B1C1FBF01F5E0734FF0A04C4FF0E0
:108BCC00000E4CF823E0AB69C0F8243595F814C0BE
:108BDC006B7DBCF1010F4CEA0303C0F86C35C0F897
:108BEC000C25C0F814151DD1AA68531C1FBF02F523
:108BFC00E0734FF0A0414FF0000C41F823C0EB683C
:108C0C00591C0BD04FF0A04C01219940CCF8081501
:108C1C0003F5E0714FF0030E4CF821E0C0F8083575
:108C2C00C0F81025242202FB08F2B318C3F80490F4
:108C3C002B69B350B9F1000F2FD04FF488712A7FF4
:108C4C00FFF7E9FE20684FF49071FFF7E4FE20680F
:108C5C004FF49271FFF7DFFE20684FF4A271FFF71B
:108C6C00DAFE4FF4AC712068FFF7D5FE23681A4981
:108C7C00C3F80413190B43F307335201002BD2B280
:108C8C001CDB1648C51885F8002301225B0901F08E
:108C9C001F0102FA01F140F8231023680822C3F8DF
:108CAC000025242303FB08660023C6E90633736101
:108CBC00012386F820303846BDE8F883084B01F0D4
:108CCC000F015A54E9E70827F5E71127F3E700BF2E
:108CDC00CC200020558A02001003420000E100E085
:108CEC0014ED00E0F8B5444C0579242303FB05434F
:108CFC0002465B680068ABB1404BC0F8083340F3E8
:108D0C000733002B4FEA10310CDB01F01F065B0917
:108D1C000121B14020333A4E46F82310BFF34F8F58
:108D2C00BFF36F8FD0F8003223F02003C0F800326D
:108D3C00242303FB05439B692BB14FF4A271FFF76E
:108D4C006AFE012343604FF4AC71FFF764FE01230C
:108D5C00C360242303FB0543D0F858110029FBD032
:108D6C00996919B1D0F844110029F5D00023C0F845
:108D7C0000351368D3F80C75D3F81465D3F80825AF
:108D8C00D3F810154FF0FF3C6745C3F80CC518BF5E
:108D9C0007F5E077C3F814C5C3F808C5C3F810C5C8
:108DAC001EBF4FF0A0434FF0020C43F827C0771CB6
:108DBC001FBF4FF0A04306F5E076022743F826705C
:108DCC004E1C1FBF01F5E0714FF0A043022643F883
:108DDC002160531C1FBF4FF0A04302F5E07202212B
:108DEC0043F82210FFF716FE242303FB054400234F
:108DFC0084F820306360F8BDCC20002010034200C2
:108E0C0000E100E00279044B242101FB0233586994
:108E1C00003818BF01207047CC20002001F06043BF
:108E2C00B3F1005F2DE9F0470646884692463BD1E8
:108E3C0090F80490FFF7E6FF0446002836D11D4F4A
:108E4C003068242505FB09754FF49071C5F814A002
:108E5C00C5F80880FFF7DFFD4FF4AC713068FFF701
:108E6C00DAFD33686A69A968C3F84415C3F8482564
:108E7C0001229A606A68DAB9D3F82021D3F8580134
:108E8C001AB90028F8D00F2007E00028FBD10122E6
:108E9C00DA60D3F85821002AFBD0242303FB09778E
:108EAC0000237B61BDE8F0871020FBE71120F9E778
:108EBC002046F7E7CC2000200220FFF74BBA000039
:108ECC002DE9F04780460D46FFF756FA0328044675
:108EDC0010D8012D10D0022D30D05DB91A48FEF7F4
:108EEC00B9F91A4B04EB440213449D78184B1B5DE3
:108EFC00AB4219D0BDE8F087144E00EB4003F218DA
:108F0C00F55C5378470053B1DFF848900E484A4659
:108F1C004FF48041FEF770F908B989F800802744B6
:108F2C003E440B4BB2781A55002DE3D00A4B1B680C
:108F3C00002BDFD02846BDE8F047184700EB400473
:108F4C00024804446578EFE730190020F220002035
:108F5C000D210020F02000200821002000780221A3
:108F6C00FFF7AEBF08B5074B1B783BB10020FFF7EE
:108F7C00D3F9BDE808400120FFF7CEB9BDE80840A1
:108F8C00FFF7D6B9F1200020F8B57A4C23780546C6
:108F9C001BB100232370FFF7E5FF172D00F287802C
:108FAC00DFE805F00C1717425364757F878C878CAC
:108FBC00949999999999C3C8D0D8E3E3FFF7D2FF54
:108FCC006D48FEF747F96D4B002204461A70204697
:108FDC00F8BD0020FFF786F9F0B10020FFF79CF9EF
:108FEC00022D0CBF4FF4E1644FF47A64634B1D7097
:108FFC0000254FF400464FF47A7029464FF4FA627C
:10900C000023E4FB060100F0CDFE2A460146BDE834
:10901C00F8405948FEF7F0B8FFF772F9022D0CBF73
:10902C00C8244FF4C874E1E70020FFF75BF940B1A6
:10903C000020FFF771F94FF44874504B03221A705B
:10904C00D6E7FFF75DF9C824F7E70020FFF74AF9E8
:10905C0038B10020FFF760F94FF47A64474B0422D3
:10906C00EDE7FFF74DF94FF4C874F7E70020FFF771
:10907C0039F948B10020FFF74FF9404B05221A701F
:10908C0040F6CD410022C2E7FFF73AF9F5E70020A0
:10909C00FFF760F9394B06221A70002240F2666124
:1090AC00B5E70020FFF72CF9344B07221A70002487
:1090BC008DE701202070FFF74DF9EEE701202070BD
:1090CC00FFF748F900224FF40051A0E7FFF739F9F8
:1090DC002A4B0C22EAE72A482A4EFEF7BBF8D5F1B8
:1090EC00110504461CD0D8B9012D13D0C820454316
:1090FC0021464FF400474FF47A704FF4FA62002384
:10910C00C5FB070100F04EFE224601461C48FEF747
:10911C0073F804460220FFF7F3F80123337056E787
:10912C000220FFF7F9F80023F8E7FFF71BFF134BBA
:10913C001222BBE7FFF716FF0020FFF7E1F80F4BF9
:10914C001322B3E7FFF70EFF0120FFF7D9F80B4B03
:10915C001422ABE7FFF706FF0020FFF7D1F8012040
:10916C00FFF7CEF8054B1522A0E7FFF7EAF8034B03
:10917C001D709CE704210020501900200C210020B8
:10918C0010190020F1200020044B1B68DB0703D5CD
:10919C00034B1878FFF7F8BE704700BF0021002082
:1091AC000C210020044B1B6813F0010301D0FFF7C6
:1091BC00EBBE1846704700BF0021002038B51C4B91
:1091CC0018601C4B10F00204054619601AD01A4B9B
:1091DC001A480E221A700F22DA7010229A7111227C
:1091EC005A72042140F23332FDF774FE044648B93A
:1091FC00FDF7C8FE044628B90146114A1148FDF78F
:10920C00E9FF0446EB0711D50120FFF7C7F86CB94D
:10921C0021460D4A0D48FDF7DDFF044630B9BDE887
:10922C0038400B4A0B480121FDF7D4BF204638BD0E
:10923C000021002008210020F220002060AF020055
:10924C00698F020084AF02009591020088AF020082
:10925C00C58E020080AF020072DF704773DF70476B
:10926C0077DF704710B504460E3C054800F072F9E4
:10927C00032C04D8BDE81040014800F06BB910BDB8
:10928C008CAF020000B5434893B000F063F94FF483
:10929C0080410020FDF712FA08B1FDF789FEFDF7B9
:1092AC004DF9FDF765FF08B1FDF782FE3A49032041
:1092BC00FFF784FF08B1FDF77BFEFEF7F1FD08B167
:1092CC00FDF776FE00F0F2FB08B1FDF771FE00230E
:1092DC0003A90120039300F05FFC08B1FDF768FEC1
:1092EC0003A800F0F3FC08B1FDF762FE5923ADF8BA
:1092FC0000302A4B02933C221723002103A8ADF81F
:10930C00043000F0D0FE04238DF80F30244BCDF840
:10931C0030D018220021184600F0C5FE052202703C
:10932C00F02282601F4A03A852F8041B00F0A9F92E
:10933C0008B1FDF73DFE1A4A1A491B48FFF78CFF8E
:10934C0008B1FDF735FE194B1948174C1949C01ACD
:10935C00C008000440F00300FDF74EFB207801210B
:10936C00FFF77CFF08B1FDF723FE0220FFF71AFF81
:10937C0008B1FDF71DFE217804220120FFF770FFD4
:10938C0008B1FDF715FEFDF7EBF90028FBD1FEF750
:10939C009DFDF8E792AF0200719202008119002046
:1093AC00142100207019002080190020E8A7020069
:1093BC0008A8020097AF02000369C26893429CBFE1
:1093CC0080681B18013B981A70472DE9F843D0E9C7
:1093DC0002940546A9EB04084068904520440F46CA
:1093EC00144404D900F036FEEC60BDE8F883424624
:1093FC00A4EB090400F02EFE6868224607EB080176
:10940C00F0E72DE9F843C5680646894617464FF044
:10941C0000083469B3687068A54228BFE418013CA1
:10942C00621B5C1BBC4228BF3C46944228BF1446BE
:10943C0049462844224600F00DFEB3682544AB4251
:10944C0008BF00253F1BA044A144F560E1D1404674
:10945C00BDE8F88310B5114C114AA2610223C4E98E
:10946C000433104BE361A2644FF400730E4A0F49AE
:10947C002362E26400231022E01DA3626362E362B4
:10948C00A3656365E365226500F040FE084920464C
:10949C0000F03CFE2023A37110BD00BF4C21002026
:1094AC00AFAF0200D4210020C4210020B8AF0200CD
:1094BC00BCAF020070B5164B182400FB04451D44CC
:1094CC0004FB00331646DC6A012C0ED0022C18D09B
:1094DC00E4B92846FFF770FF864204D83246284686
:1094EC00FFF773FF3446204670BD2846FFF764FF34
:1094FC008642344628BF044622462846FFF765FFBD
:10950C00F1E72846BDE87040FFF77BBF0024EAE78F
:10951C004C21002073B50E4B1B7804460D461646A5
:10952C000BB9FFF797FF00230DF107008DF80730FB
:10953C00FDF79CFF324629462046FFF7BBFF044649
:10954C009DF80700FDF7B6FF204602B070BD00BFC6
:10955C004C2100200FB410B5A2B024AB802153F8DD
:10956C00042B019302A800F065FD802804460ADD57
:10957C00802202A90020FFF7CDFF204622B0BDE8D3
:10958C00104004B070470028F7DD0246F1E76DDFAC
:10959C00704779DF70477DDF704764DF70472DE9D6
:1095AC00F04F85B000250E9CBDF83CB0B4F800A07F
:1095BC000191074690461E46A9463A884A450DDC5D
:1095CC0045B12388013BA3EB0A039BB2FF2B3AD88E
:1095DC0006F80A30002005B0BDE8F08F7A6852F822
:1095EC002900039000220DF10B0103A8FFF7D5FF12
:1095FC000028F0D19DF80B20424521D12288002D66
:10960C0014BF0020022002EB0801014459451ADC6A
:10961C003DB9013292B2019B2280B35422880132AF
:10962C00228022880DF10B01324403A8FFF7B5FF0D
:10963C000028D0D121889DF80B200A4422800125D6
:10964C0009F10109B9E70C20C5E72DE9F341089FA1
:10965C00BDF824801546CDE90078022204461E464A
:10966C00FFF79DFF50B93346102229462046CDE91D
:10967C00087802B0BDE8F041FFF791BF02B0BDE839
:10968C00F0812DE9F04F00231788138090F82D30CE
:10969C0085B006460D4614465BB3082F01D80C2046
:1096AC0028E102A8FFF773FF002840F023812388EC
:1096BC00DDF809100822EA54238801339BB21B22DF
:1096CC002380EA54238801339BB2EA182380E950A3
:1096DC00BDF80D30938023889DF8082006339BB28B
:1096EC0012F0FE0218BF01222380EA5423880133B2
:1096FC002380B378FBB123880433BB42CFD802A8B4
:10970C00FFF747FF002840F0F58023880322EA5436
:10971C00238801339BB219222380EA542388BDF895
:10972C00082001339BB2E9182380EA54120A4A70CC
:10973C00238802332380F2789AB12388D91CB9424A
:10974C00ADD80221E954238801339BB20121238037
:10975C00E95423880B449BB22380EA5423880B449E
:10976C0023807268AAB12388D91CB94297D80221E8
:10977C0092F90020E954238801339BB20A212380FB
:10978C00E954238801339BB22380EA5423880133A4
:10979C0023803389002B40F0A180338A5BB1CDE963
:1097AC0000472B460722032106F11000FFF74DFF5F
:1097BC00002840F09F80338B5BB1CDE900472B46EE
:1097CC001522142106F11800FFF73FFF002840F086
:1097DC009180326A002A40F09080D6F82480B8F14B
:1097EC00000F30D0B8F804302188981C8A1C024431
:1097FC00BA423FF654AFFE283FF651AF03336B54D9
:10980C00238801339BB2FF222380EA54238801333F
:10981C009BB22380B8F80020EA54E918120A4A7067
:10982C002088023080B22080B8F804205AB1D8F8D1
:10983C00081000296BD0284400F00CFC2388B8F8E1
:10984C0004201344238096F82C30002B40F0988091
:10985C00307800284ED03388012B58D0228802F162
:10986C00020CBC453FF61BAF012805D173780233BF
:10987C0013449F42FFF413AF023FBF1ABFB202A9B9
:10988C0005EB0C00ADF80870FFF785FE90BB317846
:10989C00BDF80830022900F0B98072789A4202D3E0
:1098AC009F4280F0B180012940F0B280974293B280
:1098BC00C0F0AE80ADF808300821BDF80830FE2BA2
:1098CC003FF6EDAE22880133AB542288013292B2BE
:1098DC002280A9542288134423800BE0CDE9004751
:1098EC002B460622022106F10800FFF7AEFE0028E7
:1098FC003FF453AF05B0BDE8F08FB4F800C00CF1E5
:10990C000603BB423FF6CBAE1188052901D80720D0
:10991C00F0E76FF4486E01EB0E039BB24FF27D3E05
:10992C007345F4D95388052BF1D96FF44860181896
:10993C0080B27045EBD94FF6FF70814201D099424D
:10994C00E5D8052305F80C30238801339BB212218E
:10995C002380E954238801339BB223801188E95476
:10996C00E818090A4170238802339BB2238052887D
:10997C00EA54E918120A4A702388023323802CE730
:10998C00B36A002BC3D04FF000084FF00C0A4FF015
:10999C00160BB16A5FFA88F20AFB02F201EB0209BC
:1099AC00B9F80430981CFE283FF679AE20880333B2
:1099BC002B54238801339BB2238005F803B02388F2
:1099CC0001339BB223808A5AEA54E918120A4A706E
:1099DC002088023080B22080B9F804205AB1D9F81E
:1099EC000810002993D0284400F034FB2388B9F8E0
:1099FC0004201344238096F82C2008F101085FFA08
:109A0C0088F39A42C5D823E7092156E79F42FBD237
:109A1C00ADF8087050E710DF7047000013B504462E
:109A2C0009496846FEF767FA019808B902B010BDFB
:109A3C00D0E900312046984718B16846FEF765FA20
:109A4C00F2E71120F2E700BFD0AF020013B50446D5
:109A5C0007496846FEF74FFA019B0BB902B010BDDF
:109A6C002046D3E9002190476846FEF74EFAF3E70B
:109A7C00DCAF02000B4991F816335A09EC23134161
:109A8C00DB0706D5084B9A683AB94FF480030B6094
:109A9C00704742F20200FDF78BBA1A6842F480025A
:109AAC001A60704700E100E024200020F7B5194F40
:109ABC003C7864BB184E012520463570FFF7AEFF8D
:109ACC00112821D02046FFF7C1FF144B8DF803401D
:109ADC00186801900DF10300FDF7C8FC104901A8AE
:109AEC00FFF799FF0446B0FA80F0400938709DF8F2
:109AFC000300FDF7DFFC3CB90A4B34701C70FFF718
:109B0C00B9FF2846FFF7A2FF204603B0F0BD08249A
:109B1C00FAE700BFD5230020D4230020CBAF0200EE
:109B2C00D96F0200D6230020014B1878704700BF74
:109B3C00D523002060DF704769DF704761DF704715
:109B4C0030B5134B1B7891B0FBB1124D34240DF191
:109B5C00020103A8ADF80240FFF7F0FF70B92946E7
:109B6C0001A8FEF7C8F9029B002BF0D003A8D3E99B
:109B7C000021904701A8FEF7C8F9F4E7052804D0A6
:109B8C0011B0BDE83040FDF713BA11B030BD00BFC5
:109B9C00D723002020B2020030B50C4685B0002936
:109BAC0000F082800023CDE90133404A0393012366
:109BBC000A608DF804008DF8063001A906232020D8
:109BCC00ADF80830FFF7B8FF60B1FEF7EFF9384B8E
:109BDC003849024638481B1ADB081B0443F00100C5
:109BEC00FCF70EFF00232268039301A94020CDE966
:109BFC000133FFF7A1FF60B1FEF7D8F92C4B2F49C9
:109C0C0002462D481B1ADB081B0443F00100FCF72D
:109C1C00F7FE00232268039301A90120CDE901334B
:109C2C00FFF78AFF60B1FEF7C1F9214B24490246C8
:109C3C0021481B1ADB081B0443F00100FCF7E0FE73
:109C4C000023CDE902332268F82301A9A120019356
:109C5C00FFF772FF60B1FEF7A9F9154B19490246DF
:109C6C0015481B1ADB081B0443F00100FCF7C8FE67
:109C7C0000252268039501A9A020CDE90155FFF725
:109C8C005BFF034668B1FEF791F9094B0E4902469A
:109C9C0009481B1ADB081B0443F00100FCF7B0FE5B
:109CAC002B46184605B030BD0E23FAE7C818002025
:109CBC0030A80200E8AF0200E8A702002EB00200B4
:109CCC007AB00200C6B0020017B10200F8B5064621
:109CDC000768FFF72FFF3368BB4205461DD91948AB
:109CEC00194C1A49241AE408240444F002042046AE
:109CFC00FCF782FE336816493A462046FCF789FE8B
:109D0C004FF080533268D3F80C3112499B0203F1A7
:109D1C0000539A1A2046FCF773FE25B90E4B01220C
:109D2C001A702846F8BD2846FEF740F9064B0B4939
:109D3C00024604481B1ADB081B0443F00100FCF725
:109D4C005FFEEEE7E8A7020030A802006AB102004D
:109D5C0099B10200CAB10200D7230020F4B102006D
:109D6C004BDF70471FB50E4C01A8FFF7F9FF70B918
:109D7C00214602A8FEF7BFF8039B002BF4D00198F4
:109D8C00D3E90021904702A8FEF7BFF8F4E70528B5
:109D9C0004D004B0BDE81040FDF70AB904B010BD02
:109DAC0038B2020053EA020C61D02DE9F04BB3FA41
:109DBC0083F51E0007BFB2FA82F502FA05F403FA26
:109DCC0005F41646C5F120051EBF22FA05F73C43E3
:109DDC00203556EA044C4FEA144418BF0134A3460C
:109DEC004FF00009C846904271EB030C39D309427D
:109DFC0007BFB0FA80F700FA07F6B1FA81F701FA5B
:109E0C0007F6C7F120071EBF20FA07FC46EA0C062E
:109E1C002037B6FBFBFC7F1B103F07F01F04C4F17F
:109E2C0020060CFA04F42CFA06F644BF344600263D
:109E3C00202FA4BF2646002454EA060C08BF012498
:109E4C0018EB040849EB0609A4FB027CC01B06FBBB
:109E5C0002CC04FB03CC71EB0C01904271EB030CB4
:109E6C00C5D20B46024649464046BDE8F08BB2FBD4
:109E7C00F3F200007F2805D8034A044B105C5B5CAE
:109E8C00184070470020704750B20200D0B2020058
:109E9C00A0F16103192B98BF20387047A0F1410342
:109EAC00192B98BF203070477F299ABF0170012071
:109EBC006FF02E00704700BF5AB10A787F2A0AD87B
:109ECC0000B102600021501AC3E9001118BF012033
:109EDC007047104670476FF02E007047A0F1610379
:109EEC00192B98BF20387047A0F14103192B98BF4C
:109EFC00203070477F2805D8034A044B105C5B5C0C
:109F0C00184070470020704750B20200D0B20200D7
:109F1C0038B585680446084645B122686168531C0B
:109F2C008B4208BF00208A420AD2A854E2682368F8
:109F3C002AB161688B4202D22146904723680133D3
:109F4C00236038BD70B54D1E22D413681446C6B2BA
:109F5C000EE0D0542368E2682AB16168994202D9B4
:109F6C00214690472368013D01336A1C23600FD0C2
:109F7C00A26872B1616803F1010C8C4514BF3046C4
:109F8C0000209942E5D8013D63466A1C2360EFD15D
:109F9C0070BD3046DFE700BFC3062BD410F4007F42
:109FAC0070B514BF302620264D1E22D413681446DB
:109FBC00F6B20EE0D0542368E2682AB16168994287
:109FCC0002D9214690472368013D01336A1C236066
:109FDC000FD0A2687AB1616803F1010C8C4514BFF3
:109FEC00304600209942E5D8013D63466A1C236047
:109FFC00EFD170BD70473046DEE700BF024B5B68A7
:10A00C009B6809211B68184798190020027862B1D7
:10A01C0069B100EB010C034601E0634503D013F872
:10A02C00011F0029F9D1181A7047104670470846CD
:10A03C00704700BF30B5944685B00025CDE90205C8
:10A04C000C461A4661466846019400F0B1F805B01A
:10A05C0030BD00BF844640EA010313F0030F18D152
:10A06C008446202A0BD32DE9F007B1E8F807A0E8C5
:10A07C00F807A2F12002202AF7D2BDE8F007042A43
:10A08C0007D351F8043B40F8043BA2F10402042A24
:10A09C00F7D2002A05D011F8013B00F8013B013A38
:10A0AC00F9D1604670478446002A2DD010F0030F7A
:10A0BC0004D000F8011B013A26D0F7E7C9B241EAF7
:10A0CC00012141EA0141202A12D3A2F120022DE9FB
:10A0DC00F0030B460C460D460E460F468846894645
:10A0EC00A0E8FA03203AFBD2BDE8F00320320BD0F3
:10A0FC00042A05D340F8041B043A05D0042AF9D2EB
:10A10C0000F8011B013AFBD160467047024610F083
:10A11C00030F16D111F0030F13D12DE9F0004FF0FE
:10A12C0001374FF0803351F8044BA4EB070525EAB7
:10A13C0004051D4002D142F8044BF4E7A1F10401DF
:10A14C00F0BC11F8013B02F8013B002BF9D1704730
:10A15C0000F1010110F0030F11D010F8012B002AAF
:10A16C0023D010F0030F0AD010F8012B002A1CD0BA
:10A17C0010F0030F03D010F8012B002A15D02DE995
:10A18C0070004FF001324FF0803350F8044BA4EBC9
:10A19C00020525EA04051D4000D1F6E7A0F10400F4
:10A1AC0070BC10F8012B002AFBD1A0EB010070470A
:10A1BC002DE9F04F00230C46036089B014F8011B05
:10A1CC0003920746002900F0E582DFF8489207E089
:10A1DC003846FFF79DFE14F8011B002900F05B8147
:10A1EC002529F5D12246002612F8010B302800F261
:10A1FC009E801F280ED9A0F12003102B0AD8DFE86F
:10A20C0003F0AC0909A8090909A4090909A0099CCA
:10A21C0009098D002A2840F0FF80039B10781D68E7
:10A22C000433002D0393BCBF6D4246F01006A21CF4
:10A23C002E2800F007810021742800F092807A28E3
:10A24C0000F08F806C2800F035814C2800F03881AC
:10A25C00682800F0C1811446002800F08880A0F125
:10A26C002503DAB2532A00F22E81532B00F22B81F4
:10A27C00DFE813F0EE012901290129012901290147
:10A28C002901290129012901290129012901290172
:10A29C002901290129012901290129012901290162
:10A2AC002901290129012901290129012901290152
:10A2BC002901290129012901290129012901290142
:10A2CC002901290129012901290129012901290132
:10A2DC0029012901290129012901820029012901CA
:10A2EC002901290129012901290129012901290112
:10A2FC00D901F9002901290129012901F9002901B4
:10A30C0029012901290153024B02160229012901B5
:10A31C00F0012901CE0129012901840046F40076BF
:10A32C001446224612F8010B30287FF662AF5E28E5
:10A33C0072D146F480561446F3E746F010061446E4
:10A34C00EFE746F020061446EBE746F400461446C9
:10A35C00E7E746F080061446E3E746F0400614466D
:10A36C00DFE7144614F8010B00287FF478AF4FF0A8
:10A37C00FF3009B0BDE8F08F46F4005616F0800AA5
:10A38C0006D043F2780A43F25803782818BF9A464D
:10A39C0016F4807307BF06F48042B04626F40078AA
:10A3AC0006F48042002A64D1039A18F0040F02F1DB
:10A3BC0004060396126800F0A38092B2002B68D0BA
:10A3CC0028F400785838202800F2A080DFE810F03C
:10A3DC0076019E009E009E009E009E009E009E00A8
:10A3EC009E009E009E009E00D7009E009E009E0038
:10A3FC009E00D7009E009E009E009E009E000C01B9
:10A40C0076019E009E009E009E00D7009E009E003E
:10A41C00760100BFCDCCCCCCA0F13004E3B2092B3B
:10A42C004FF000053FF604AF12F8010B05EB850564
:10A43C0004EB4505A0F13004E3B2092BF4D92E2826
:10A44C007FF4F9AE10782A2840F07781039B50787E
:10A45C001968941C0433002903932246FFF6ECAED2
:10A46C0046F48076E8E646F4804806F480734FF0B4
:10A47C00000A039A18F0040F02F1040603961268FE
:10A48C0030D012B2002A31DA52424FF02D0A002B92
:10A49C0096D1012196E73868BB68002B3FF469AF71
:10A4AC007A6882427FF665AF00221A54386809B088
:10A4BC00BDE8F08F144646F0010614F8010BCBE60C
:10A4CC0046F001061446B44BD3F80080B8F1000FE7
:10A4DC003FF481AE009103A901912B4632463946D7
:10A4EC00C04778E618F0080FCCD0D2B218F0200F85
:10A4FC0040F03B8118F0400F18BF4FF0200A5DE789
:10A50C0018F0080F3FF45AAFD2B257E74FF0FF36AE
:10A51C00002321EAE17BA5EB0B05BAF1FF0FA5EBBC
:10A52C00030540F20481CAF307213846023DFFF7C8
:10A53C00EFFC5FFA8AF13846FFF7EAFC40463A46F0
:10A54C002946FFF729FD3A4659463020FFF7FAFC19
:10A55C00731C0AD001360DF1140A564416F8011D6D
:10A56C003846FFF7D5FCB245F8D118F0100F3FF480
:10A57C0032AE29463A462020FFF7E4FC2BE6104683
:10A58C00002A00F0038108F4004C624600238C463C
:10A59C004FF02C0E114603F0030209B1032A14D01C
:10A5AC001E46A9FB0032D20802EB820306F1200BF7
:10A5BC00A0EB4303EB44303309280BF80C3C06F1B9
:10A5CC00010340F29F801046E5E703F120026A4444
:10A5DC005E1C02F80CECE4E71078682800F0D180DF
:10A5EC00541C46F0040637E61046002A00F0CE80D4
:10A5FC000DF1140C002302F007023032C0080CF8E5
:10A60C00012B1E46024601330028F4D1C91A80E7FB
:10A61C0016F4807300F0AC8026F4007806F48042C7
:10A62C004FF0000ABEE6039B013D191D93F8008014
:10A63C0003913A4629463046FFF7AEFC4146384670
:10A64C00FFF766FCB3461BF0100F3FF4C4AD90E768
:10A65C002521BDE5039B514A181D0390D3F800A09A
:10A66C00BAF1000F08BF9246F205D04626F4007BE3
:10A67C00504640F18280FFF7C9FC0646AD1B3A46B6
:10A68C0029465846FFF788FC002EDCD018F8011B31
:10A69C003846FFF73DFCAAEB0803F342F6D1D2E7AC
:10A6AC00039B1A1D039216F0800F1A6846F48078EB
:10A6BC000CBF4FF0000A4FF0230A08211046002A65
:10A6CC0064D008F4005C634605AA8C460026194643
:10A6DC0009E0334B000913F80E3002F8013B06F188
:10A6EC0001030FD01E4600F00F0E73460029F0D167
:10A6FC00DFF8B0E000091EF8033002F8013B06F168
:10A70C000103EFD16146C91A03E716F0800F0CBFA5
:10A71C004FF0000A4FF0300A3AE6039B3A68191DD5
:10A72C0003911B6831074CBF1A701A6053E5BAF1DC
:10A73C00000F3FF403AF013DFBE6A0F13004E3B2A0
:10A74C00092B02F101024FF000013FF689AE12F81D
:10A75C00010B01EB810104EB4101A0F13004E3B2E8
:10A76C00092BF4D946F4807666E54FF02B0A25E6E2
:10A77C0006F48042B0469A4614E6FFF7E9FC06461A
:10A78C007CE7507846F00806941C65E513464FF0BC
:10A79C00FF36BEE608467FE6D8230020A4B40200AC
:08A7AC0094B4020084B4020021
:08A7B4002184020000000000F6
:08A7BC00BD8402000000000052
:10A7C4004D9B020000000000719D0200000000008B
:10A7D400F0190020B81A0020C01A0020F81900202F
:04A7E4001800000059
:10A7E80048AF0200000000004EAF02000000000069
:10A7F80055AF02000000000059AF02000000000041
:10A80800AEA802000000030384A9020000000000B3
:10A81800ADA902000000000042AF020000000000E5
:10A82800C3AF02000000030311B2020000000303DB
:10A838002CB202000000030316AA02000000000068
:08A848002CAA02000000000030
:10A8500080A80200000000008CA80200D41800208C
:10A86000FFFFFFFFFFFFFFFFFFFFFFFFFFFFFFFFF8
:10A8700000000000000000000000D60106000000FB
:10A88000F5640200DD6402008D640200756172747B
:10A890005F6C6F675F6261636B656E6400426163EA
:10A8A0006B656E647320666C7573686564006170B7
:10A8B00070000000E01E00207F000000601F0020EC
:10A8C0001B5B313B33316D0025734C6F6773206424
:10A8D000726F70706564202825642925730D0A0045
:10A8E0001B5B306D002573003C25733E2025733AB9
:10A8F0002000202530327800202020007C002563B5
:10A90000001B5B313B33306D001B5B313B33326DE1
:10A91000001B5B313B33336D001B5B313B33346DCC
:10A92000001B5B313B33356D001B5B313B33366DB8
:10A93000001B5B313B33376D007761726E696E6768
:10A9400000696E666F00646562756700E0A80200CA
:10A9500001A90200C0A8020009A9020011A9020071
:10A9600019A9020021A9020029A9020031A90200A7
:10A97000000000009AA9020039A9020041A90200C2
:10A9800046A902006170705F627574746F6E00009A
:10A99000E0180020466174616C206572726F72006D
:10A9A00053797374656D207265736574006170709E
:10A9B0005F74696D65720000010006000000000010
:10A9C0009C1F00204570020052544320696E73742E
:10A9D000616E636520616C726561647920696E697E
:10A9E0007469616C697A65642E005254433A206937
:10A9F0006E697469616C697A65642E0000000000FC
:10AA00000738FDD87047303132333435363738396E
:10AA10004142434445467077725F6D676D74000034
:10AA2000BCA70200BCA7020004000000736F727490
:10AA30006C697374004E52465F53554343455353FC
:10AA4000004E52465F4552524F525F5356435F4845
:10AA5000414E444C45525F4D495353494E47004E79
:10AA600052465F4552524F525F534F4654444556EB
:10AA70004943455F4E4F545F454E41424C4544006B
:10AA80004E52465F4552524F525F494E5445524EC8
:10AA9000414C004E52465F4552524F525F4E4F5FFF
:10AAA0004D454D004E52465F4552524F525F4E4FFC
:10AAB000545F464F554E44004E52465F4552524FEA
:10AAC000525F4E4F545F535550504F5254454400BF
:10AAD0004E52465F4552524F525F494E56414C4985
:10AAE000445F504152414D004E52465F4552524FD5
:10AAF000525F494E56414C49445F535441544500BE
:10AB00004E52465F4552524F525F494E56414C4954
:10AB1000445F4C454E475448004E52465F455252A2
:10AB20004F525F494E56414C49445F464C41475352
:10AB3000004E52465F4552524F525F494E56414C6D
:10AB400049445F44415441004E52465F4552524F82
:10AB5000525F444154415F53495A45004E52465F4B
:10AB60004552524F525F54494D454F5554004E5235
:10AB7000465F4552524F525F4E554C4C004E524626
:10AB80005F4552524F525F464F5242494444454EF0
:10AB9000004E52465F4552524F525F494E56414C0D
:10ABA00049445F41444452004E52465F4552524F21
:10ABB000525F42555359004E52465F4552524F52D2
:10ABC0005F434F4E4E5F434F554E54004E52465FCB
:10ABD0004552524F525F5245534F555243455300D1
:10ABE0004E52465F4552524F525F4D4F44554C4571
:10ABF0005F4E4F545F494E495449414C495A454470
:10AC0000004E52465F4552524F525F4D5554455883
:10AC10005F494E49545F4641494C4544004E5246B7
:10AC20005F4552524F525F4D555445585F4C4F430C
:10AC30004B5F4641494C4544004E52465F45525297
:10AC40004F525F4D555445585F554E4C4F434B5FE7
:10AC50004641494C4544004E52465F4552524F5280
:10AC60005F4D555445585F434F4E445F494E4954DC
:10AC70005F4641494C4544004E52465F4552524F53
:10AC8000525F4D4F44554C455F414C5245414459EC
:10AC90005F494E495449414C495A4544004E524639
:10ACA0005F4552524F525F53544F524147455F46A2
:10ACB000554C4C004E52465F4552524F525F4150E8
:10ACC000495F4E4F545F494D504C454D454E54459C
:10ACD00044004E52465F4552524F525F46454154E2
:10ACE0005552455F4E4F545F454E41424C454400DE
:10ACF0004E52465F4552524F525F494F5F50454E4C
:10AD000044494E47004E52465F4552524F525F44AF
:10AD100052565F5457495F4552525F4F5645525203
:10AD2000554E004E52465F4552524F525F44525666
:10AD30005F5457495F4552525F414E41434B004E6D
:10AD400052465F4552524F525F4452565F545749E4
:10AD50005F4552525F444E41434B004E52465F4561
:10AD600052524F525F424C455F495053505F5258C8
:10AD70005F504B545F5452554E4341544544004E2E
:10AD800052465F4552524F525F424C455F495053C5
:10AD9000505F4348414E4E454C5F414C5245414403
:10ADA000595F455849535453004E52465F455252DD
:10ADB0004F525F424C455F495053505F4C494E4B98
:10ADC0005F444953434F4E4E4543544544004E5211
:10ADD000465F4552524F525F424C455F4950535077
:10ADE0005F504545525F52454A45435445440055DE
:10ADF0006E6B6E6F776E206572726F7220636F6418
:10AE0000650000000000000035AA020001000000FB
:10AE100041AA0200020000005FAA02000300000035
:10AE200080AA02000400000093AA020005000000AE
:10AE3000A4AA020006000000B8AA02000700000051
:10AE4000D0AA020008000000E8AA020009000000E1
:10AE500000AB02000A00000019AB02000B0000006A
:10AE600031AB02000C00000048AB02000D000000F6
:10AE70005CAB02000E0000006EAB02000F00000091
:10AE80007DAB02001000000091AB02001100000039
:10AE9000A8AB020012000000B7AB020013000000D4
:10AEA000CCAB020080000000E0AB0200810000009B
:10AEB00001AC0200820000001DAC02008300000013
:10AEC00039AC02008400000057AC0200850000008D
:10AED00078AC0200860000009DAC020090000000EB
:10AEE000B4AC020091000000D2AC0200920000005D
:10AEF000F0AC02000082000005AD020001820000FB
:10AF000023AD0200028200003FAD02000084000079
:10AF10005BAD0200018400007FAD020002840000EE
:10AF2000A9AD020003840000CEAD020000000101C3
:10AF3000010000000101000000000101000000000C
:10AF40000304636C6F636B00434C4F434B004750EB
:10AF5000494F54450050525300554152544500004A
:10AF60000D000300CD8E02000C000300CD8E020008
:10AF70000B000300CD8E020009000300CD8E0200FD
:10AF80001019002030190020501900204576656EF8
:10AF900074007465737400426561636F6E20657838
:10AFA000616D706C6520737461727465642E0054F9
:10AFB00065726D696E616C00525454005345474789
:10AFC0004552006E72665F736468000100000700FE
:10AFD000BCA70200BCA7020008000000BCA702003A
:10AFE000C4A702000800000073645F626C655F63C1
:10AFF00066675F73657428292072657475726E6563
:10B0000064202573207768656E20617474656D70A7
:10B0100074696E6720746F2073657420424C455FBD
:10B02000434F4E4E5F4346475F4741502E00736487
:10B030005F626C655F6366675F7365742829207261
:10B04000657475726E6564202573207768656E205F
:10B05000617474656D7074696E6720746F207365B8
:10B060007420424C455F4741505F4346475F524F13
:10B070004C455F434F554E542E0073645F626C65C0
:10B080005F6366675F7365742829207265747572E3
:10B090006E6564202573207768656E206174746521
:10B0A0006D7074696E6720746F2073657420424CF4
:10B0B000455F434F4D4D4F4E5F4346475F56535F8D
:10B0C000555549442E0073645F626C655F63666723
:10B0D0005F73657428292072657475726E656420CB
:10B0E0002573207768656E20617474656D7074696E
:10B0F0006E6720746F2073657420424C455F474132
:10B100005454535F4346475F415454525F54414245
:10B110005F53495A452E0073645F626C655F6366D6
:10B12000675F73657428292072657475726E656433
:10B13000202573207768656E20617474656D707466
:10B14000696E6720746F2073657420424C455F47B9
:10B15000415454535F4346475F5345525649434514
:10B160005F4348414E4745442E00496E73756666FD
:10B17000696369656E742052414D20616C6C6F6328
:10B180006174656420666F722074686520536F6611
:10B19000744465766963652E004368616E67652057
:10B1A0007468652052414D207374617274206C6F15
:10B1B000636174696F6E2066726F6D2030782578D8
:10B1C00020746F20307825782E004D6178696D7578
:10B1D0006D2052414D2073697A6520666F7220613F
:10B1E00070706C69636174696F6E20697320307868
:10B1F00025782E0073645F626C655F656E61626CBA
:10B200006528292072657475726E65642025732E19
:10B21000006E72665F7364685F626C6500000000B8
:10B22000BCA70200BCA70200080000006E72665FA7
:10B230007364685F736F6300B4A70200BCA7020069
:10B240000800000043000000504F53495800000020
:10B250002020202020202020206828282828202086
:10B2600020202020202020202020202020202020DE
:10B270004810101010101010101010101010101096
:10B280008484848484848484848410101010101036
:10B29000108181818181810101010101010101018F
:10B2A0000101010101010101010101101010101043
:10B2B0001082828282828202020202020202020260
:10B2C0000202020202020202020202101010102008
:10B2D00000070320041702010857104080000000F7
:10B2E00044B2020048B302005CB4020053756E0021
:10B2F0004D6F6E00547565005765640054687500A5
:10B300004672690053617400000000004A616E00DB
:10B31000466562004D617200417072004D617900B6
:10B320004A756E004A756C00417567005365700080
:10B330004F6374004E6F76004465630000000000A8
:10B34000414D00504D00000080B402007CB402006A
:10B350007CB402007CB402007CB402007CB4020025
:10B360007CB402007CB402007CB402007CB4020015
:10B37000FFFFFFFFFFFFFFFFFFFFFFFFFFFF0000DB
:10B38000BCB30200ECB20200F8B302000CB302003E
:10B3900040B30200A0B3020050B40200ACB30200FC
:10B3A000256D2F25642F25790000000025612025BB
:10B3B00062202565202554202559000053756E64B0
:10B3C0006179004D6F6E64617900547565736461D5
:10B3D00079005765646E65736461790054687572AD
:10B3E00073646179004672696461790053617475B0
:10B3F00072646179000000004A616E7561727900C3
:10B400004665627275617279004D617263680041D0
:10B410007072696C004D6179004A756E65004A75FD
:10B420006C79004175677573740053657074656D50
:10B43000626572004F63746F626572004E6F76656D
:10B440006D62657200446563656D6265720000003F
:10B4500025483A254D3A255300000000819E020000
:10B460009D9E0200A99E0200019F0200E99E02002B
:10B47000F59E0200B59E0200C59E0200000000007D
:10B480002E000000303132333435363738396162BE
:10B49000636465663031323334353637383941428A
:0CB4A00043444546286E756C6C29000082
:10B4AC000000000000200040000000000000000030
:10B4BC00FF00000000000000000000000000000081
:10B4CC00FFFFFFFFFFFFFFFF000000000000000078
:10B4DC0000000000000000000010014011000400FA
:10B4EC000090D003000000000000000000000000ED
:10B4FC00FFFFFFFFFFFFFFFF000000000000000048
:10B50C00000000000000000000000000000000002F
:10B51C00FFFFFFFFFFFFFFFF000000000000000027
:10B52C00000000000000000000000000000000000F
:10B53C00FFFFFFFFFFFFFFFF000000000000000007
:10B54C0000000000000000002C2100201F00000063
:10B55C000000000000000000FF0215DEADBEEF454C
:10B56C00566778899AABBCCDDEEFF001020304C3B9
:10B57C00E0B20200E0B20200E0B20200E0B202006F
:04B58C00E0B2020027
:040000032000637501
:00000001FF
